S01100006C76676C5F64656D6F2E737265635A
S3150000000060040020390100002D05000035010000C4
S315000000103501000035010000350100003501000002
S315000000200000000000000000000000003501000094
S315000000303501000000000000A90C0000250D00009D
S3150000004005090000A1090000890A0000D506000084
S31500000050F0F0F0F008000020000000005407002037
S31500000060BC0700202408002000000000000000005B
S31500000070000000000000000000000000000000007A
S31500000080000000000000000000000000000000006A
S31500000090000000000000000000000000000000005A
S309000000A00000000056
S315000000A40348044B834202D0034B03B118477047FD
S315000000B4540000205400002000000000064B0749AD
S315000000C4C91A891048BF0131491003D0044B0BB13A
S315000000D401481847704700BF540000205400002010
S315000000E40000000010B5064C237843B9FFF7D8FF8B
S315000000F4044B13B10448AFF300800123237010BDF1
S315000001047C0400200000000084A2000108B5054B11
S315000001141BB105490548AFF30080BDE80840FFF769
S31500000124CDBF00BF000000008004002084A20001AF
S3150000013400BE704708B500F035F801F071FCFEE723
S31500000144F8B5174F05463E68A6B17C6806EB460629
S3150000015404EB860602E00C34B4420BD0637AAB425D
S31500000164F9D1D4E900020021121A0C3402F019FC68
S31500000174B442F3D1BE6896B1FC6804EB061602E0FD
S315000001841034A6420BD0637BAB42F9D1D4E900020A
S31500000194A168121A103402F057FCA642F3D1F8BD36
S315000001A4742A00004FF47001274B284A70B50020CA
S315000001B4C3F888109A6001F03FFC00F069F801204A
S315000001C401F03AFC224B83F30A880020FFF7B8FFBC
S315000001D400F048F800F002F9032000F04FFA00237B
S315000001E44FF6FF701B4903F1080201330C2B21F86B
S315000001F41200F8D10024032000F010FA032000F0C6
S315000002043DFA154B03205C609C60DC601C6100F0C9
S3150000021405FA022001F010FC0120FFF791FF0F4DB3
S315000002240F4B5B1BA3424FEAA30605DD55F8043BBF
S3150000023401349847A642F9DC00F094F9BDE8704011
S31500000244002000F023B900BF00ED00E0000000002C
S3150000025460000020000D084000000E402C2C000019
S31500000264302C0000064B074993F826001A6A51F809
S315000002742030C2F302620449D3400B60704700BFCA
S3150000028400E001406004002098040020704700BF8D
S31500000294F8B54AF2035001234549464AA1F8FE033C
S315000002A4A2F80431B2F804319BB2002BFAD1012032
S315000002B44FF400454FF0090C3F4CDFF818E13F4E70
S315000002C4C4F804E0DFF810E13949C4F80CE03C4F07
S315000002D4A2F800013B4AB06030606261276091F881
S315000002E42620A5602561086A54F82220364EC0F3FC
S315000002F40260C240326081F8133481F8A2C091F8DA
S3150000030480341BB991F8813499074CD0284D95F85F
S315000003148034002B3CD00022254B83F8812483F8BB
S3150000032480240023224981F8323091F83C301A07A0
S31500000334FBD543F2021000231D4A088581F82A30B2
S3150000034492F83C309B06FBD50320052319494FF050
S31500000354F10C81F81C011D49116282F8263092F8CD
S315000003642630156A54F82300C5F302640123E040DD
S315000003743060F0244FF42540154981F80CC00B7207
S315000003840C7382F8303082F85230A2F8FE03F8BDBE
S315000003940121C82085F8801400F080F895F880348F
S315000003A4012BFBD1B7E74FF47A70FFF76FFFB8E77D
S315000003B400E0014000C001406004002000700040DD
S315000003C4002D310100C2EB0B9804002021120120FC
S315000003D40020004000127A0000366E0138B5002570
S315000003E4284C0121C82084F8285000F057F884F8D6
S315000003F4245094F82430002BFBD194F8243021495E
S3150000040443F0020384F8243091F82430C3F3400007
S315000004149B07F9D41B4A81F8220092F8223003F094
S31500000424FF00002BF9D192F84030164960F3C71348
S3150000043482F8403091F84030DB09FBD191F8420054
S31500000444104A63F3C71081F8420092F84230DB0980
S31500000454FBD192F844000B4963F3C71082F84400B9
S3150000046491F84430C3F3C014DB09F9D1012000F03C
S3150000047405F9054B012083F8BB44BDE8384000F07C
S31500000484CDB800BF0030084000E00140704700BF0F
S31500000494A0F101000028FBD1704700BF1F4B204A82
S315000004A41B6800FB01F1934213D302F1854202F566
S315000004B4071203F5741302F6834203F6FF03A2FB45
S315000004C403231B0DA3FB01314FF0FF30F9B1FFF7F6
S315000004D4DFBF4FF47A7210B4A1FB02C41148B0FB1B
S315000004E4F3F34FF0FF3044B9BCFBF3FC4FEA9C0036
S315000004F488B15DF8044BFFF7CBBF9B00B1FBF3F16A
S31500000504A1FB0212002AF4D1084620B1F1E71846ED
S31500000514002BDCD170475DF8044B7047980400202B
S3150000052400127A0000CA9A3B70B500240B4B0C4E9D
S31500000534B3F82021B3F84051ADB2154025FA04F3BF
S31500000544DB0704D556F82430E0B203B198470134EA
S31500000554102CF3D1014BA3F8305170BD006000405C
S315000005649C04002070B5032084B000F087F86FF077
S31500000574FF054FF0FF31254A254C13885088002B80
S31500000584A5640BBF002601260B466FF00103CDE9D7
S315000005940111039138B3918823F0020359B3D28829
S315000005A423F0040322BB019319491A4A0B67C2F8C4
S315000005B48032029B03204B67C2F88432039B164C9D
S315000005C48B67C2F8883200F029F800230F4931F806
S315000005D4022B03F1C00001330AB144F82020042B96
S315000005E4F5D104B070BD90880028D8D1D28842B124
S315000005F423F00803D7E7D288002AD4D023F00803CF
S31500000604D1E7002ECFD10B46CEE700BFCC2B00009E
S315000006140080004000E100E000600040EFF310813C
S31500000624012383F31088124B33F8102092B22AB1B7
S3150000063433F81020013A92B223F8102033F8103020
S315000006449BB293B90B4A10B4B2F8FE330A4C9BB270
S3150000065434F8100043F4254323EA0003A2F8FE33DA
S3150000066481F310885DF8044B704781F31088704756
S31500000674F004002000E00140682A000030B4EFF3E3
S315000006841081012383F310880E4A32F810309BB28E
S315000006946BB90D4C0D4DB4F8FE3335F810C09BB252
S315000006A443EA0C0343F425439BB2A4F8FE3332F821
S315000006B4103001339BB222F8103081F3108830BC1D
S315000006C4704700BFF004002000E00140682A0000E3
S315000006D410B582B0EFF30383103B0D4A5BB203F10E
S315000006E4C00152F8210020F4803042F8210052F86B
S315000006F42120084A01A852F823406269E36801925E
S315000007049847A368DA680AB101221A7702B010BDC5
S3150000071400600040E00400202DE9F84F0388DBB1B7
S3150000072482464FF0000B4FF00109DFF8D080002419
S31500000734304D4FEACB07DAF8043035F8022BD919D5
S31500000744898891420AD00134032CF4D1BAF80030D6
S315000007540BF1010B5B45EAD8BDE8F88FDB5909FAC2
S3150000076404F603F0B853B3F1807FF6B298F8BB34BD
S3150000077413D0334231D1204A04F1200612F8163040
S31500000784DB09E0D012F81630012123F08003C820DB
S3150000079402F81630FFF782FED5E7334211D0164A27
S315000007A404F1200112F81130DB09CCD112F8113012
S315000007B4C82043F0800302F811300121FFF76EFED2
S315000007C4C1E70120FFF75AFF98F8BB3401203343F1
S315000007D488F8BB34FFF722FFE1E70120FFF74EFF5D
S315000007E498F8BB34012023EA060388F8BB34FFF7E4
S315000007F415FFC0E74C2B00000030084000E0014024
S31500000804F8B50446FFF788FFEFF31082012383F35C
S315000008141088234F3B681BB92249CB704023CB7009
S315000008243B6801333B6082F3108823882BB36168ED
S315000008341D4C01EBC30E06E01B01083113448E4523
S3150000084444F8230019D008688A88C5034FEA12239E
S31500000854D2B2F1D502EB031C54F82C601B0108310B
S3150000086420F4803526F4803613448E4544F82C60F3
S3150000087444F82C5044F82300E5D1EFF31082012309
S3150000088483F310883B6813B13B68013B3B603B68CC
S315000008941BB980200349CB70C87082F31088F8BD59
S315000008A4DC040020000D08400008084008B5034B8E
S315000008B403600846FFF7A4FF002008BD54524F50BA
S315000008C430B5836A85B004468C4601ADABB193E876
S315000008D4070085E8070062681846117883F804C0A3
S315000008E4E26A19609A60636A9847A36A1BB195E83D
S315000008F4070083E8070005B030BD2B46EBE700BFD1
S3150000090410B4EFF30383103B214A5BB203F1C00139
S3150000091452F8210020F4803042F8210052F82120B8
S315000009241C4A52F82330D3E906218A421CD018699E
S315000009349C6838B393F820C0BCF10F0F0AD96168DC
S3150000094440F82210D96901328A429A610CD05DF8C6
S31500000954044B7047BCF1070F16D821798154D96925
S3150000096401328A429A61F2D15B6893F9033001221B
S3150000097403F01F0008495B09824041F823205DF813
S31500000984044B70476068DEE7A48820F81240DAE773
S3150000099400600040E004002000E100E030B4EFF322
S315000009A40382103A344953B203F1C00051F820408F
S315000009B402F0FF0224F4803441F8204051F820105C
S315000009C42E4951F823008168C978890705D54168FD
S315000009D4497A012901D030BC70470121284C5B09B2
S315000009E402F01F02203301FA02F244F82320BFF377
S315000009F44F8FBFF36F8F436893F90230002B32DBBE
S31500000A045A0903F01F0301FA03F3203244F8223093
S31500000A14BFF34F8FBFF36F8FD0E90124237892F988
S31500000A24022023F04003002A237018DB124B02F144
S31500000A34C00453F8245025F4803543F8245053F861
S31500000A442430BFF35F8F53099B0002F01F0203F1AA
S31500000A546043914003F56143C3F880111960012195
S31500000A6430BCFFF72DBF8268012130BC137823F018
S31500000A7440031370FFF724BF00600040E004002029
S31500000A8400E100E070B5EFF30383364A103B5CB235
S31500000A9452F82460736893F90230002B49DB012075
S31500000AA431495A0903F01F03203200FA03F341F8CF
S31500000AB42230BFF34F8FBFF36F8FD6E9013293F91C
S31500000AC402301178002B21F04001117019DB274AFE
S31500000AD403F1C00152F8215025F4803542F8215023
S31500000AE452F82120BFF35F8F03F01F025B099B00BE
S31500000AF403F16043904003F56143C3F88001186035
S31500000B04B2680021D378D1701A07DDB224D4EB077A
S31500000B1415D405F01405142D19D0144A04F1C00394
S31500000B2452F8231021F4803142F8231052F823306E
S31500000B3470BDB268137823F040031370E1E7042113
S31500000B44304605F01405FFF7BBFE142DE5D1082148
S31500000B543046FFF7B5FEE0E705213046FFF7B0FE65
S31500000B64D5E700BFE004002000E100E0006000409B
S31500000B7410B472B60020154A154B1168154A186050
S31500000B8411601549154C0B68154A43F001030B60B7
S31500000B942368A2FB03235B09013BB3F1807F0AD2DE
S31500000BA44FF0E0224FF0F00C07210E4C536184F80D
S31500000BB423C090611161F02200210A4B83F82310AF
S31500000BC4DA7783F822205DF8044B704700000000B2
S31500000BD404050020B4050020001000E0980400205D
S31500000BE41F85EB5100ED00E070B472B61D4D1E4C2E
S31500000BF42868206000282DD14AF2025C1B4A1C4951
S31500000C041C4E8B899BB213801388180409D5B1F83E
S31500000C14FE339BB23360A1F8FEC31388C3F30E03FD
S31500000C248B81BFF34F8F30BFBFF36F8F13881B04C5
S31500000C3408D513889BB28B81336843F425439BB252
S31500000C44A1F8FE3362B6BFF36F8F72B628682060D0
S31500000C540028D6D04FF00062074B5A6062B670BCCB
S31500000C64704700BFAC050020B00500200005002039
S31500000C7400E00140FC04002000ED00E00022074BE8
S31500000C841A60EFF3148C2CF0040C8CF3148862B6FF
S31500000C944FF08052024B5A60FEE700BF1805002051
S31500000CA400ED00E01B48016800292DD0EFF309830D
S31500000CB423E9F00F1EF0100F01D123ED108A43F83B
S31500000CC404ED8B60144C236813B18B6100232360FD
S31500000CD4124E3668D6B10660706801307060B0692D
S31500000CE42060F16801F1280181F30B88B36853F899
S31500000CF404EB1EF0100F01D1B3EC108AB3E8F00F29
S31500000D0483F309887047FEE7034CE1E7FFF76CFFBE
S31500000D140646E1E7B0050020B8050020AC05002032
S31500000D2400F01CB86FF0020370B504690D4624F098
S31500000D340704A4F144068660342244F8443C0021A6
S31500000D44A4F1400001F02DFE4FF0FF324FF0807306
S31500000D5444E9032544F8043C70BD00BF24492548F2
S31500000D640A680368013210B50A6013B1013B0360D7
S31500000D74DBB1214A214C136821681868F8B10122B5
S31500000D841F4B1A6000F0B2FB236833BB1D4B1B6874
S31500000D9453B11D4A1268934206D01C4B1B681BB9FB
S31500000DA44FF080521A4B5A6010BD0121124A134C5F
S31500000DB413681868216010B1114B1960E2E71548F1
S31500000DC404330068136083420AD00D4B1B6811B9C3
S31500000DD4002BDBD0D6E7002BD4D100F039FBD5E7C6
S31500000DE40D48074B00681B6810600029F0D0F2E735
S31500000DF458060020B8050020C80500205406002027
S31500000E04C4050020AC050020B0050020180500200C
S31500000E1400ED00E0CC050020D005002008B500F068
S31500000E2495F9BDE8084000F0E5BB00BF10B50E4CCF
S31500000E34236813F10F3F0AD04FF0F0332360FFF716
S31500000E4497FEFFF7EBFF094A1368013313604FF06F
S31500000E54F033074A2360106800F08CFD00232360FA
S31500000E64BDE81040FFF70ABF000000201805002067
S31500000E740405002010B5EFF3108372B61A4A846E87
S31500000E84944202D083F3108810BDD0F8AC208A4275
S31500000E94F8D1C26E002AF5D0144914688C42F1D1F7
S31500000EA411690029EED00024013984661161C1B1AB
S31500000EB4D0E91C144C672167D468844211D0026BB4
S31500000EC4062ADFD10D240A49C0F884400A68013293
S31500000ED40A6083F3108800F0C1F9EFF3108372B649
S31500000EE4D0E7D160EBE700BF790E0000414D4553D2
S31500000EF418050020002330B4C0E901120360C36062
S31500000F04036143618361EFF3108172B60B4A0C4CA3
S31500000F14136804600B4C4BB9406120608061013357
S31500000F24136081F31088002030BC70472468A569DB
S31500000F34A0616861C0E90545F1E700BF0805002026
S31500000F44414D45530C050020F8B5EFF3108272B6F7
S31500000F5483682BB1013B836082F310880020F8BDBF
S31500000F6431B3174B1C681CBB164C2468D4F8AC5020
S31500000F74E0660135C4F8AC50134DA5660569DDB1CC
S31500000F84C668776F266767673C67746701350561CE
S31500000F94E164196806200131196001232063A36303
S31500000FA482F31088204600F0D3F9D4F88400F8BD03
S31500000FB482F310880D20F8BDC460C4E91C44E5E73B
S31500000FC418050020B0050020790E000038B5034648
S31500000FD4EFF3108172B6026932B982680132826017
S31500000FE481F31088002038BD013AC06813D0046F1D
S31500000FF4456FDC6065672C6700241A61074A8466BE
S315000010041368C0F884400133136081F3108800F03C
S3150000101425F9002038BDDA60EEE700BF1805002088
S315000010242DE9F84F0446DDE90A568A469146EF2132
S31500001034324628460C9F9846DDF838B001F0B1FCDC
S31500001044B0220021204601F0ACFC2023C4F89C30D9
S315000010540D9B364A9F424FF00303666106F1FF3645
S31500001064E56035442046C4E91198C4E906BBC4E9E1
S3150000107415242F49C4F828A02561E762C4F89470A2
S3150000108404BFE763C4F898702363FFF74BFEEFF3DE
S31500001094108172B6274B284A2360136863BB27481E
S315000010A4C4E92244046001331360254A13680133FA
S315000010B413600F9B012B2AD1EFF30582214B1B688A
S315000010C41343B3F1F03F07D281F31088204600F0B2
S315000010D4C5F80020BDE8F88F1B4B1D68002DF3D022
S315000010E4EB6AEE6BEB6381F31088204600F0B6F8EA
S315000010F40020EE63BDE8F88F10480068D0F88C50E5
S31500001104C0F88C40C5F88840C4E92205CBE781F3D2
S315000011141088EFF3108172B61368013B136081F3F4
S31500001124108800F07DF80020BDE8F88FC114000097
S315000011346D11000044524854A4050020A80500205F
S315000011441805002000000020AC0500202020044AD9
S3150000115404491368086043F0C7731360704700BFFF
S31500001164100500209C05002038B5124B1C68D4E9F4
S3150000117411309847104B1B680BB120469847EFF384
S31500001184108072B6012200250C4922630B68A26303
S3150000119413440B60E56480F31088EFF3148323F0A3
S315000011A4040383F31488BFF36F8F2046BDE83840E9
S315000011B400F0CEB8B0050020140500201805002064
S315000011C410B5EFF3108272B6124B1C6864B1EFF3DC
S315000011D40581114B1B680B4306D110B982F31088A5
S315000011E410BD0E4B196819B182F31088132010BD77
S315000011F4C4F884101968E0640131196004210123DC
S315000012042163A36382F31088204600F0A1F8D4F882
S31500001214840010BDB0050020000000201805002041
S315000012240A4B1B688BB90A4A0A4B12681B689A4216
S315000012340BD04FF08052084B5A60EFF3058323B965
S31500001244EFF3108362B683F3108870471805002005
S31500001254B0050020AC05002000ED00E0F8B504461A
S31500001264EFF3108572B6436E002B5BD04C3000F062
S3150000127407FA304AA16B1368013B1360236B0029FC
S3150000128445D15BB92C492D4B1B6885F31088096839
S31500001294994202D01368002B2BD0F8BD636B002B48
S315000012A43AD1E06A2649236351F8203033B1596AAA
S315000012B40C625C62616223621F49E4E741F82040E4
S315000012C40121204E204F336881400B4333603B6835
S315000012D4C4E908448342D5D9174938600B683BB33F
S315000012E4DB6B8342CFD90C6085F310881368002B1F
S315000012F4D3D14FF08052154B5A60EFF30583002B80
S31500001304CBD1EFF3108362B683F31088F8BD013BAB
S31500001314012BB7D9636B3BB1032000230649C4E90B
S315000013240C03B0E7C364A4E70349A3632363AAE7F2
S315000013340C60A8E718050020AC050020B0050020C5
S315000013441C050020A00500209C05002000ED00E0FF
S31500001354F8B5374B04461D68EFF3108672B685421E
S315000013643BD0344A1368013B1360A36B012B08D0AE
S31500001374314B86F310881B68AB4201D01368F3B176
S31500001384F8BD4FF0000C216AE06A8C42C4F838C0FC
S3150000139432D0636A294F4B62196257F82030A34250
S315000013A427D0254B1968A142E3D12549096857F886
S315000013B42110196086F310881368002BE0D14FF0D2
S315000013C48052204B5A60EFF30583002BD8D1EFF3FC
S315000013D4108362B683F31088F8BDEB6C013B0333CC
S315000013E403D805F14C0000F01FF9174BE2691A60A7
S315000013F4B7E747F82010D4E71449104F834047F85D
S3150000140420C0086820EA03030B6033B193FAA3F300
S31500001414B3FA83F30A490B60C3E720200849064C54
S315000014240860236086F310881368002BC7D0F8BDC4
S31500001434B005002018050020AC0500201C0500207E
S315000014449C05002000ED00E0B8050020A005002062
S31500001454144B1B68EFF3108272B600201249086021
S3150000146493B1196B81B9186A10B4D9690F4C9842B3
S315000014749961216003D0D96ADB6B994207D082F364
S3150000148410885DF8044B704782F310887047084C47
S31500001494084B246843F8210053F8243006490B60AE
S315000014A4EDE700BFB005002054060020B805002073
S315000014B49C0500201C050020AC050020EFF3108CD1
S315000014C472B6026B042A07D0826ED0F8AC108CF385
S315000014D4108802B110477047034A1368013313603A
S315000014E48CF31088FFF7BABE180500202DE9F04FDB
S315000014F483B0EFF3108A72B6384A1768002F60D1AA
S31500001504374E3368002B5CD00123DFF8DC80DFF82C
S31500001514DCB0DFF8DC901360324B1B68186800906F
S3150000152408B1C0F818D0D8F800002E4A43F8047B56
S315000015348342136008BFDBF80030376008BF1360CE
S315000015448AF31088EFF3108A72B6009C002C33D00D
S3150000155401AD12E020382060A56124610194C9F828
S3150000156400408AF31088EFF3108A72B6019BC9F81B
S3150000157400709C422CD0009CF4B1236901979C42D4
S3150000158424D0606958610361C3F818D020680093B9
S315000015942028DFD8D4E902326068206010B12846DA
S315000015A424610194A061C9F800408AF31088002BD5
S315000015B4D9D010469847D6E73368002BACD1074AF2
S315000015C413608AF3108803B0BDE8F08F0023DDE7CB
S315000015D42046A76100F028F8CDE700BFBC0500202F
S315000015E4C4050020C8050020CC050020D005002035
S315000015F4C00500200021074B074A10B4074C1360AE
S315000016040748084A236080335DF8044B0360116081
S31500001614704700BFD4050020C8050020D00500206F
S31500001624CC050020BC05002003685A1E033201D8ED
S31500001634826902B17047202B28BF20230D4A0E4928
S3150000164412680968013B02EB8303994208D91A68B8
S315000016545AB1516908615061C0E904218361E9E71F
S31500001664064A5B1A12681344F1E7C0E904001860DD
S31500001674F4E700BFC8050020CC050020D0050020F3
S31500001684836963B1026990420AD0416951610A6172
S315000016941968814204BF93611A600023836170470D
S315000016A41A688242F9D100221A60F6E708B11C2BA7
S315000016B401D00C207047F8B505460F461646EFF3E1
S315000016C4108172B61C4A13680133136081F31088C3
S315000016D41A4B1C681A4B186848B1A54207D0002358
S315000016E401E0A54203D0013383426469F9D1EFF3E3
S315000016F4108172B61368013B136081F31088FFF7FB
S315000017048FFDA54213D0EFF305810E4A13680B43F0
S3150000171406D0EFF3058113680B43B3F1F03F08D30A
S31500001724324639462846BDE8F840FFF7E3BB0C20AD
S31500001734F8BD1320F8BD00BF180500200C050020D5
S31500001744080500200000002018B1084B02689A42E0
S3150000175401D00C20704729B1EFF30582044B1B68B6
S31500001764134301D1FFF7F0BB04207047414D4553A5
S315000017740000002018B1044A0368934201D00C20EB
S315000017847047FFF723BC00BF414D45532DE9F04F89
S3150000179485B0DDE910940194129CDDE90E5803949A
S315000017A4139C0294149C08B1B02C03D00E2005B0EF
S315000017B4BDE8F08F8B4617469A460646EFF310822D
S315000017C472B6DFF810C1DCF800300133CCF8003013
S315000017D482F310883C4B08F1FF301A683B4B2844CF
S315000017E41C68BAB1A64215D000210097E368AB4243
S315000017F459D82769AF4256D94FF0010E00258342C6
S3150000180401F1010144D82369834241D90025009F8F
S31500001814D4F88840EFF3108272B6DCF80030013B4E
S31500001824CCF8003082F31088FFF7FAFCA642BDD04C
S31500001834002D3DD0002F3BD0B8F1C70F36D9B9F1F2
S315000018441F0F3BD8019B99453AD3029B012B33D8F2
S31500001854EFF305811E4A13680B4306D0EFF30581A7
S3150000186413680B43B3F1F03F2CD3029B3A46139310
S31500001874039B59461293019B3046CDE91093534678
S31500001884CDF83C800E9505B0BDE8F04FFFF7C8BB18
S315000018949142D4F8884004D0A64202D0BEF1000F8B
S315000018A4A4D0009FB6E74FF0000EA8E705207EE718
S315000018B4032005B0BDE8F08F102078E70F2076E707
S315000018C4182074E7132072E7A4050020A805002059
S315000018D4000000201805002008B501221C23064933
S315000018E40648FFF7E3FE00B908BD0021BDE808403D
S315000018F4024800F03DB800BF542B00005C060020EF
S3150000190408B500F05BF8BDE8084000F08FB800BFEA
S31500001914012110B5B0204FF480640E4A88B01368D4
S315000019240B4413600C4ACDE90510CDE9031100926E
S3150000193402910023094A0A490A480194FFF726FF3F
S3150000194408B908B010BD0021064808B0BDE810402B
S3150000195400F00EB85007002090080020051900007A
S31500001964682B000080060020FFF7B6BF704700BF53
S3150000197400BE704770B500240C4E0D4D1C23012289
S315000019840C490D4834602C70FFF790FE20B9FFF720
S31500001994BFFFFFF7EBFF70BD21460748FFF7E8FFDF
S315000019A4FFF7B6FFFFF7E2FF70BD00BF5007002048
S315000019B44C070020742B00003007002038B54FF088
S315000019C4FF311448FFF7C0FEF0B9134B1A7802B181
S315000019D438BD0122114C1A70FFF7C6FF2368013B7C
S315000019E42360002BF4D00B4D04E02368013B2360F5
S315000019F4002BEDD02846FFF7BDFE0028F5D00021C8
S31500001A042846FFF7B5FFF0E700210248FFF7B0FFCD
S31500001A14DBE700BF300700204C07002050070020FA
S31500001A2408B5FFF703FA002008BD00BF08B501207A
S31500001A34FFF7C6FBFBE700BF022800D07047024948
S31500001A440248FEF733BF00BF882B0000780600204B
S31500001A54FEE700BF08B500F0F1FF162203464FF07B
S31500001A64FF301A6008BD00BF0120704703685A00A2
S31500001A744CBF43F0004323F000431844704700BFB3
S31500001A842DE9F04729B301F1FF3A80469146002536
S31500001A945646A91948BF0131491008EBC107CC00C5
S31500001AA43846FFF7E3FF8A450DD00834484508EB6E
S31500001AB404000AD8FFF7DAFF01384D1C4845E8D37D
S31500001AC43846BDE8F0874845FAD98D4201F1FF361C
S31500001AD4DFD100273846BDE8F08700BF012809D0CA
S31500001AE4022805D00028044B14BF0020184670476E
S31500001AF40248704702487047C9210000D9210000F6
S31500001B04D1210000224B30B5044683B08D1E43B369
S31500001B1401A92846AFF30080F0B101992A46FFF7E0
S31500001B24AFFF0146C0B1FFF7A1FF4B68A064012BCC
S31500001B342AD0002B01F1040024DBFFF797FF0023D2
S31500001B4423650368E064002B11DBFFF78FFF034670
S31500001B540020236103B030BD00230920236103B0B4
S31500001B6430BD0C480C49091AC9100191D6E7C3F3D4
S31500001B740360FFF7B3FF031E0CBF09200020236197
S31500001B8403B030BD0123DBE700230520E1E700BFF6
S31500001B9400000000402C0000D02C00000368DA0787
S31500001BA410B5044606D49B0700F1500009D500F091
S31500001BB491FC2368590709D51A070ED5DB0613D5F8
S31500001BC410BD00F07FFC23685907F5D404F1D80052
S31500001BD400F088FC23681A07F0D404F5AC7000F012
S31500001BE489FC2368DB06EBD404F5EC70BDE81040F1
S31500001BF400F0C4BC0346006800B11844704700BF37
S31500001C04704700BF70B504460E46316C2046FFF798
S31500001C1479FF054698B9D6F840C03246236921466D
S31500001C240120C4F814C098470828EED0072806D126
S31500001C342846316CFFF7E4FF301D00F037FC00F056
S31500001C44A9FE00BF2DE9F04701F1040CADF5787D3E
S31500001C54C7680646D0F8188014460DF1140E04AD74
S31500001C644FF00009BCE80F00AEE80F00BCE80F0017
S31500001C74AEE80F00BCE80F00AEE80F009CE80F00CA
S31500001C84C5F800908EE80F0023E02B6C4FF4F47235
S31500001C9429467EA8736100F0D7FE33697EAA3146D1
S31500001CA4504698478C9B2146814603933246039CB3
S31500001CB433460120AC64CDE90058B847044628BB36
S31500001CC44FF4F4727EA9284600F0BEFEB9F1080F5F
S31500001CD419D10934296C3046FFF714FF81465FFA9F
S31500001CE484FA0028D1D0AC6B334632464AF0100150
S31500001CF4AC640120CDE90058B84738B948460DF51B
S31500001D04787DBDE8F087B9F1070F06D04FF00909D1
S31500001D1448460DF5787DBDE8F0872046296CFFF727
S31500001D246FFF05A800F0C2FBF0B5CB6BFBB001F169
S31500001D34040C0E460B6401AC05464FF0FF37BCE8B5
S31500001D440F000FC4BCE80F000FC4BCE80F000FC49B
S31500001D549CE80F00009784E80F0006E02B696A46AA
S31500001D64294698470828044608D110992846FFF7BB
S31500001D74C9FE0028F2D009207BB0F0BD6846FFF703
S31500001D840DFF062CF7D131462846FFF73BFF00BF6F
S31500001D9410B4DC6BC1601946826100221C6410BC5D
S31500001DA4FFF750BF70B54369C6680B64AEB90369E3
S31500001DB40A4604460D46014602209847072805D0E0
S31500001DC408280FD129462046FFF71CFF3046296C08
S31500001DD4FFF716FF281D00F069FB0122FFF732FF0B
S31500001DE400F0D8FD00F0D6FDC26832B1D1F83CC08F
S31500001DF40022C1F840C0FFF725BFFFF795BF00BF1B
S31500001E04052915D8DFE801F00A03140303050120A8
S31500001E147047436C0020009A1360704743B90F2A39
S31500001E2406D800EB820200205368009A13607047BC
S31500001E340220704710B584B000230A4603AC194645
S31500001E440094FFF7DDFF039804B010BD052915D8EB
S31500001E54DFE801F00A031403030501207047009B21
S31500001E641B6843640020704743B90F2A06D8009BB9
S31500001E7400EB820200201B68536070470220704703
S31500001E8410B584B0002303AC03920A4619460094A5
S31500001E94FFF7DCFF04B010BDF0B5D36BADF5117DD3
S31500001EA4141D064613640DF15C0C0D464FF0FF3706
S31500001EB40FCCACE80F000FCCACE80F000FCCACE8AD
S31500001EC40F0094E80F0016978CE80F0010E0FFF758
S31500001ED4D7FF294616A8B047034616AA694608201E
S31500001EE483B9049B9847052804460CD009280AD0D0
S31500001EF426996846FFF706FE03466A460C2116A88D
S31500001F04002BE4D0092416A8FFF748FE20460DF559
S31500001F14117DF0BD2DE9F04F1646CA6C89B00D4609
S31500001F2452F8041B00F0030C0692002B7CD00C0C18
S31500001F3409048DF81D40E4B20591022102EB8402E6
S31500001F44BCF1020F8DF81C10296D08BFAA6B11F0A5
S31500001F54010809D005A9304600F09CFB00285BD196
S31500001F64082009B0BDE8F08F1768002FF2D000F002
S31500001F740801BB469A4667460191CDF80880BAF136
S31500001F84020F4DD0B2F800B002F10409548824F0CF
S31500001F940102AB6C64000F2102EB03083046FFF725
S31500001FA449FF04F002040BF00103804543EA0403ED
S31500001FB42CD82BF0010B012BC34472D0022B39D041
S31500001FC453BB17B1834500F2C88009F10402D2F865
S31500001FD400B0BBF1000FD2D105A93046DDF8088068
S31500001FE400F058FBC0B9B8F1000FB9D00F21304644
S31500001FF4FFF720FF0E2102463046FFF741FF704AE5
S315000020040F213046FFF73CFF072006E0012B66D080
S31500002014022B25D0002BD8D0092009B0BDE8F08FBB
S31500002024546802F10809B2E709028DF81D300591DA
S31500002034032185E7D9F8004024F00048B7B9834561
S3150000204405D9019B002B64D0B8F1000F61D0002C98
S3150000205401DA09F1040908F1010309EB8302B6E781
S31500002064D9F8004024F00048002FF0D0D5F820B06D
S315000020740D213046FFF7DEFE8345E8D1AA6A914575
S31500002084E5D100240422C5F82880C5E90B424A4458
S315000020946A63D9F80020A242C0F28D80012302931C
S315000020A4D9E7F7B9834517D9D9F80430D9F8002008
S315000020B4991C4FEAD272AFD005F158040133049447
S315000020C472D009F10400FFF795FD04AB01462846DA
S315000020D4AFF30080002853D109F1080277E7002FF7
S315000020E4FAD02C6A0D213046FFF7A4FE8442F3D1C0
S315000020F4AB6A9945F0D14846FFF7B8FC0F21024672
S315000021043046FFF7BDFE2A4600213046FFF7B8FEEB
S315000021147AE705F15803039709F1040B00241F46D7
S315000021240CE0584600220497FFF764FD04AB014611
S3150000213428460BF1040BAFF3008088BB444504F139
S315000021440104EED10D213046FFF774FE049B0246CE
S3150000215406202A62C5E909395FE74846FFF786FC87
S3150000216409F1040204462846AA63AFF30080002856
S315000021743FF452AF22460F213046FFF781FE43E774
S3150000218404460D213046049EFFF754FE022C2862B5
S3150000219402D1EE6205F12C060620C5E909693CE781
S315000021A4039FD9F8004052E730460D21FFF742FE5F
S315000021B426462862F0E708F1010209EB82009BE754
S315000021C4000000000023FFF7A5BE00BF0123FFF7B0
S315000021D4A1BE00BF0223FFF79DBE00BF2DE9F0415B
S315000021E40546C4B01446052900F2B480DFE801F0C0
S315000021F40F29B2698F03836B002C40F0AB8053F830
S31500002204042B42648363002044B0BDE8F081002BB4
S3150000221440F0A0801FFA84FC806B01262F1D06FA6D
S3150000222403F1024611EA0C0F04D052F8041B1046BF
S3150000223447F823100133102BF1D1A204E3D4A86389
S31500002244E1E703F0FB02260CA4B2012A40F08280E7
S31500002254012B06EB040800F0C280B8F1200F79D8F0
S315000022640F2E79D9002CCED002680193530705D5D9
S3150000227422F0040240F8D82B00F038F902AF6400CB
S31500002284384600F033F9A6F11002A96B601E019BD3
S3150000229407EBC202441C101F01EB840251F8044BE5
S315000022A4914240F8044FF9D1012B00F0CA800F2E59
S315000022B4A96302D822A800F00DF9384600F012F9F5
S315000022C4A1E7032B46D11FFA84F8260C08EB144425
S315000022D4102C3FD803681F0700F1AB8022AF3846A5
S315000022E400F02AF9AC6B4FEA480107EBC6034A1E15
S315000022F441B1E01A013A1958561C43F8041BF9D1A6
S3150000230404EBC8043846AC6300F0F4F87BE70BBB77
S31500002314102C1FD80368D80600F1838022AF3846F4
S3150000232400F036F9AE6B394600234FF0010C0CFA77
S3150000233403F230460133224203D050F8042B0646FA
S315000023440A60042B01F10401F1D13846AE6300F0B2
S3150000235415F958E7022057E70268B8F1100F02F0A2
S31500002364010040F2898058B122F001022846019307
S3150000237442F0020240F8502B00F0B0F82A68019BA4
S315000023845107A8F1100800F18880019322AF38465E
S3150000239400F0A4F802A800F0A9F8C6F11001AA6B8F
S315000023A407EBC6004900019B01390131043802EBF1
S315000023B4810152F8044B914240F8044FF9D1B8F127
S315000023C4000F4FD04FEA4802102E02AF02F1FF3041
S315000023D4324638BF1022103A07EBC2025AE7B8F168
S315000023E4100FB7D8102EB5D00168CA0730D521F022
S315000023F403012846019340F8501B00F067F8019B3F
S31500002404012B25D022AF0193384600F067F8AA6B5A
S3150000241474B3019B64004FF0000807EBC600611E0D
S31500002424C3E723F0100305F5EC702B6000F0B0F859
S3150000243474E723F0080300F5AC702B6000F07CF819
S315000024444CE722AF04323846AA6300F03BF8DAE6DA
S3150000245422AF0193384600F039F8AA6B019B002C91
S31500002464F0D0D7E7012BEDD00F2EA9633FF6CBAE04
S31500002474384600F02FF8C6E611460028C2D0052BD0
S31500002484B5D122F001022846019342F0020240F837
S31500002494502B00F023F8019BB4E722F004022846EF
S315000024A4019340F8D82B00F021F86FE700F13401CE
S315000024B491E838009C46A6464CF8045D90E8FF0F68
S315000024C4E54600BD90EC210B704700BF80EC210B64
S315000024D4704700BF90EC200B704700BF80EC200BC8
S315000024E4704700BFD0EC200B704700BFC0EC200B38
S315000024F4704700BFF0EC0201F0EC0211F0EC02218F
S31500002504F0EC0231F0EC0241F0EC0251F0EC026125
S31500002514F0EC0271F0EC0281F0EC0291F0EC02A115
S31500002524F0EC02B1F0EC02C1F0EC02D1F0EC02E105
S31500002534F0EC02F1704700BFE0EC0201E0EC02119E
S31500002544E0EC0221E0EC0231E0EC0241E0EC025165
S31500002554E0EC0261E0EC0271E0EC0281E0EC029155
S31500002564E0EC02A1E0EC02B1E0EC02C1E0EC02D145
S31500002574E0EC02E1E0EC02F1704700BFB0FC01813F
S31500002584B0FC0191B0FC01A1B0FC01B1704700BFE1
S31500002594A0FC0181A0FC0191A0FC01A1A0FC01B159
S315000025A4704700BFEC4600B52DE900502DE9FF1F2A
S315000025B44FF000032DE90C0001A9FFF7B5FBDDF888
S315000025C440E012B0704700BFEC4600B52DE900505C
S315000025D42DE9FF1F4FF000032DE90C0001A9FFF7B9
S315000025E4E1FBDDF840E012B0704700BFEC4600B5F1
S315000025F42DE900502DE9FF1F4FF000032DE90C00D3
S3150000260401A9FFF7F1FBDDF840E012B0704700BF07
S31500002614EC4600B52DE900502DE9FF1F4FF00003ED
S315000026242DE90C0001ABFFF7B3FBDDF840E012B077
S31500002634704700BFEC4600B52DE900502DE9FF1F99
S315000026444FF000032DE90C0001AAFFF725FCDDF885
S3150000265440E012B0704700BF027A03468AB9427A54
S31500002664B2B14168013A4FF0030C10B442720C1D2A
S31500002674086883F808C002025C60000E10BC1A6089
S3150000268470470068013A1A720202000E1A60704717
S31500002694B02070472DE9F0434FF0000885B0064698
S315000026A40D462846FFF7D8FFB028044600F01E81E1
S315000026B4070638D500F0F003A02B00F083800CD871
S315000026C4802B5ED0902B04D100F00D030D2B40F02F
S315000026D48F80092005B0BDE8F083B02B68D0C02BED
S315000026E43ED1C62800F0EF80C72800F0048100F030
S315000026F4F803C02B00F01181C82800F01C81C928FA
S31500002704E7D12846FFF7A8FF020300F00F0002F402
S31500002714702201300243012105233046FFF75EFD96
S315000027240028BED0D5E783000DF108090D223046F6
S31500002734DBB2CDF800901F1D00231946FFF760FB9E
S31500002744029B60064FF00D023046CDF800904CBF58
S31500002754DF1BFF18002302971946FFF777FBA0E754
S3150000276400F0F803D02BB4D100F0070205230121B1
S315000027743046013242F40022FFF730FD002890D0A3
S31500002784A7E724022846FFF767FF2043B0F5004F6A
S315000027949FD0040100233046A2B21946FFF71EFD5E
S315000027A4002896D114F4004F18BF4FF0010878E7BB
S315000027B4A0F1B103042B00F2DA80DFE803F07B50CA
S315000027C43D332A00C3434FF47F62010703F0070336
S315000027D442FA03F202F47F6201D542F480420023F6
S315000027E430461946FFF7FAFC00283FF45AAF70E763
S315000027F402AF002300F00F02304619460097FFF798
S31500002804FFFA00230D22304619460097FFF71EFBF8
S3150000281447E703AA00233046009219460D22FFF724
S31500002824EFFA3EE70023052130461A46FFF7D6FCA9
S3150000283400283FF436AF4CE72846FFF70DFF012387
S31500002844020300F00F001946013002F4702202431D
S315000028543046FFF7C3FC00283FF423AF39E70023D3
S315000028640DF108090D2230461946CDF80090FFF700
S31500002874C7FA2846FFF7F0FE0206029C4FF002074D
S315000028840AD500F07F00B84007370444284602946E
S31500002894FFF7E2FE0306F4D4B84004F501740023FE
S315000028A40D222044CDF80090194602903046FFF7D9
S315000028B4CDFAF6E62846FFF7CFFE431E0246DBB204
S315000028C40E2B8CD905E72846FFF7C6FE0323020321
S315000028D400F00F001946013002F47022024330461C
S315000028E4FFF77CFC00283FF4DCAEF2E6B8F1000FFB
S315000028F42DD00020EEE62846FFF7AEFE431E024624
S31500002904DBB20E2B3FF6E5AE002304213046FFF77B
S3150000291465FC00283FF4C5AEDBE600F00F02032396
S3150000292430460132194642F42022FFF757FC0028AC
S315000029343FF4B7AECDE62846FFF78EFE00F0F00270
S3150000294400F00F031032013343EA0232E3E602AC2D
S31500002954434641460E2230460094FFF751FA0F22B1
S315000029644346414630460094FFF770FAC1E700F04B
S31500002974FC03B42B3FF4ADAE00F00702012330464E
S315000029841A44194642F40022FFF728FC00283FF4B3
S3150000299488AE9EE6062008B500F034F80120FFF75D
S315000029A457F802440346934200D1704703F8011BCB
S315000029B4F9E71F2938B505460C4604D916230360E2
S315000029C44FF0FF3038BDC26B12B152F821304BB90B
S315000029D4284600F031F8224601462846BDE838402C
S315000029E400F018B8012B0AD0591C03D11623036032
S315000029F40120E7E70021204642F8241098470020EA
S31500002A04E0E70000024B01461868FFF7D2BF00BF9B
S31500002A140400002038B50023064D04460846114636
S31500002A242B60FFF717F8431C02D12B6803B1236010
S31500002A3438BD00BF8C080020FFF716B8014B186894
S31500002A44704700BF040000200A44431E914200D18F
S31500002A54704710B511F8014B914203F8014FF9D1B3
S31500002A6410BD000001000200080010002000000054
S31500002A74040000001C2B0000080000009C2A000033
S31500002A84020000008C2A00000000006800000068B4
S31500002A94600000206000002000000068000000685C
S31500002AA40000006000010C080000006800000068D7
S31500002AB400000070000109080000006800000068BA
S31500002AC40000000800010208000000680000006819
S31500002AD45000000000010108000000200000002052
S31500002AE40000006000010C0300000020000000202C
S31500002AF4000000700001090300000020000000200F
S31500002B04000000080000020300000020540000201A
S31500002B145000000000000103000000680000006887
S31500002B2400010008000000680000006800010008B9
S31500002B345400002060000020000000037C040020F4
S31500002B4490080020000000030204030404040000AB
S31500002B544F4C4544205350492053656D6170686F4E
S31500002B647265000047554920546872656164000027
S31500002B7446535020436F6D6D6F6E20496E69742005
S31500002B8453656D0007000000942B00000000000050
S31500002B940000010008010000000001060901000010
S31500002BA4000001060B010000000001000003000004
S31500002BB404000000020300000400000004030000F7
S31500002BC40500000006030000C401C801C701200077
S31500002BD44275696C7420776974682052656E6573F2
S31500002BE4617320416476616E63656420466C657822
S31500002BF469626C6520536F667477617265205061F3
S31500002C04636B6167652076657273696F6E20362E15
S31500002C14322E3000362E322E30000000000002061E
S30900002C24F8B500BF3A
S30900002C28F8B500BF36
S30900002C2C110100008C
S30900002C30E9000000B1
S31100002C3408B10181B0B00084000000006F
S31500002C40F0EDFF7FF0FFFF7FF4EDFF7F0100000056
S31500002C50B8EEFF7FB0A9028048EFFF7FB0B0A88032
S31500002C6098EFFF7F01000000A0EFFF7FB0B0AA80C1
S31500002C70D8EFFF7FAE77B280B4F0FF7FAB3F3A80EC
S31500002C8014F1FF7F0100000020F1FF7FB0B0AA80A1
S31500002C905CF1FF7F0100000004F2FF7FAB10B28001
S31500002CA078F2FF7FB0AF088020F5FF7F01000000BB
S31500002CB030F5FF7FAC3F0380F8F7FF7F010000008F
S31500002CC0D8F9FF7FB0AD0480D0FCFF7F0100000083
S3090100A100FFFFFFFF58
S3090100A200FFFDFFFF59
S3090100A280F8F8FFFFE5
S70500000139C0
