S01100006C76676C5F64656D6F2E737265635A
S31500000000A040002075010000690500007101000094
S315000000107101000071010000710100007101000012
S315000000200000000000000000000000007101000058
S31500000030710100000000000055170000D1170000F4
S31500000040891300004D14000035150000590A000000
S30900000050810C000019
S31500000054F0F0F0F0000010080000000000000000BE
S31500000064000000000101000000000080D4C3B2A11A
S31500000074700000002D810100F9800100B9800100A3
S31500000084718001007D7F0100457F01004000002052
S31500000094000000004C800120B48001201C81012056
S315000000A40000000000000000000000000000000046
S315000000B40000000000000000000000000000000036
S315000000C40000000000000000000000000000000026
S311000000D40000000000000000000000001A
S315000000E00348044B834202D0034B03B118477047C1
S315000000F08C0000208C00002000000000064B074901
S31500000100C91A891048BF0131491003D0044B0BB1FD
S3150000011001481847704700BF8C0000208C00002063
S315000001200000000010B5064C237843B9FFF7D8FF4E
S31500000130044B13B10448AFF300800123237010BDB4
S31500000140C04000200000000084A2000108B5054B55
S315000001501BB105490548AFF30080BDE80840FFF72D
S31500000160CDBF00BF00000000C440002084A20001F3
S3150000017000BE704708B500F035F802F0AFF9FEE7AB
S31500000180F8B5174F05463E68A6B17C6806EB4606ED
S3150000019004EB860602E00C34B4420BD0637AAB4221
S315000001A0F9D1D4E900020021121A0C341AF0F3FB3B
S315000001B0B442F3D1BE6896B1FC6804EB061602E0C1
S315000001C01034A6420BD0637BAB42F9D1D4E90002CE
S315000001D0A168121A10341AF043FCA642F3D1F8BDF6
S315000001E098AA01004FF47001274B284A70B50020E9
S315000001F0C3F888109A6019F065FA00F069F80120D2
S3150000020019F060FA224B83F30A880020FFF7B8FF43
S3150000021000F048F800F002F9032000F03DFA002350
S315000002204FF6FF701B4903F1080201330C2B21F82E
S315000002301200F8D10024032000F0FEF9032000F09C
S315000002402BFA154B03205C609C60DC601C6100F09F
S31500000250F3F9022019F036FA0120FFF791FF0F4D4E
S315000002600F4B5B1BA3424FEAA30605DD55F8043B83
S3150000027001349847A642F9DC00F094F9BDE87040D5
S31500000280002000F023B900BF00ED00E000000000F0
S31500000290A0000020000D084000000E408809020062
S315000002A08C090200064B074993F826001A6A51F892
S315000002B02030C2F302620449D3400B60704700BF8E
S315000002C000E00140A0400020DC400020704700BF55
S315000002D0F8B54AF2035001234549464AA1F8FE0300
S315000002E0A2F80431B2F804319BB2002BFAD10120F6
S315000002F04FF400454FF0090C3F4CDFF818E13F4E34
S31500000300C4F804E0DFF810E13949C4F80CE03C4FCA
S31500000310A2F800013B4AB06030606261276091F844
S315000003202620A5602561086A54F82220364EC0F3BF
S315000003300260C240326081F8133481F8A2C091F89D
S3150000034080341BB991F8813499074CD0284D95F823
S315000003508034002B3CD00022254B83F8812483F87F
S3150000036080240023224981F8323091F83C301A0764
S31500000370FBD543F2021000231D4A088581F82A3076
S3150000038092F83C309B06FBD50320052319494FF014
S31500000390F10C81F81C011D49116282F8263092F891
S315000003A02630156A54F82300C5F302640123E040A1
S315000003B03060F0244FF42540154981F80CC00B72CB
S315000003C00C7382F8303082F85230A2F8FE03F8BD82
S315000003D00121C82085F8801400F080F895F8803453
S315000003E0012BFBD1B7E74FF47A70FFF76FFFB8E741
S315000003F000E0014000C00140A04000200070004025
S31500000400002D310100C2EB0BDC400020211201203F
S315000004100020004000127A0000366E0138B5002533
S31500000420284C0121C82084F8285000F057F884F899
S31500000430245094F82430002BFBD194F82430214921
S3150000044043F0020384F8243091F82430C3F34000CB
S315000004509B07F9D41B4A81F8220092F8223003F058
S31500000460FF00002BF9D192F84030164960F3C7130C
S3150000047082F8403091F84030DB09FBD191F8420018
S31500000480104A63F3C71081F8420092F84230DB0944
S31500000490FBD192F844000B4963F3C71082F844007D
S315000004A091F84430C3F3C014DB09F9D1012000F000
S315000004B0F3F8054B012083F8BB44BDE8384000F053
S315000004C0BBB800BF0030084000E00140704700BFE5
S315000004D0A0F101000028FBD1704700BF1F4B204A46
S315000004E01B6800FB01F1934213D302F1854202F52A
S315000004F0071203F5741302F6834203F6FF03A2FB09
S3150000050003231B0DA3FB01314FF0FF30F9B1FFF7B9
S31500000510DFBF4FF47A7210B4A1FB02C41148B0FBDE
S31500000520F3F34FF0FF3044B9BCFBF3FC4FEA9C00F9
S3150000053088B15DF8044BFFF7CBBF9B00B1FBF3F12D
S31500000540A1FB0212002AF4D1084620B1F1E71846B1
S31500000550002BDCD170475DF8044B7047DC4000206F
S3150000056000127A0000CA9A3B70B500240B4B0C4E61
S31500000570B3F82021B3F84051ADB2154025FA04F383
S31500000580DB0704D556F82430E0B203B198470134AE
S31500000590102CF3D1014BA3F8305170BD0060004020
S315000005A0E040002030B5032085B000F075F8002546
S315000005B06FF0FF004FF0FF321B4B1C4C9864214636
S315000005C02B464FF0010ECDE90122039231F8020BC2
S315000005D00EFA03FC013310B1012522EA0C02052BA9
S315000005E0F4D1F5B10192124B0F4903200A67C3F803
S315000005F08022029A4A67C3F88422039A8A67C3F85C
S31500000600882200F019F800230A4834F8022B03F177
S31500000610C00101330AB140F82120052BF5D105B000
S3150000062030BD4FF0FF32DEE700800040C8C9010050
S3150000063000E100E000600040EFF31081012383F346
S315000006401088124B33F8102092B22AB133F81020DA
S31500000650013A92B223F8102033F810309BB293B9C6
S315000006600B4A10B4B2F8FE330A4C9BB234F81000B1
S3150000067043F4254323EA0003A2F8FE3381F31088EE
S315000006805DF8044B704781F31088704738410020AD
S3150000069000E001408CAA010030B4EFF31081012381
S315000006A083F310880E4A32F810309BB26BB90D4CAA
S315000006B00D4DB4F8FE3335F810C09BB243EA0C0377
S315000006C043F425439BB2A4F8FE3332F810300133CD
S315000006D09BB222F8103081F3108830BC704700BFFF
S315000006E03841002000E001408CAA010003460901C0
S315000006F09B6841F00101C9B200205977704700BFDD
S315000007000023826818465377704700BF03460122CC
S315000007109B6800201A777047024610B44FF4803465
S3150000072092680C60148A4FF6FF7314F4404F18BF9A
S315000007304FF48063D46800204C6092685DF8044BE7
S3150000074092B2C1E902327047062070470346002084
S31500000750D9605A61704700BF30B400244268124D18
S315000007605268034611788068A03145F82140D16867
S315000007700477A9B14FF0010C92F901100B4D48090D
S3150000078001F01F0120300CFA01F145F82010BFF3EB
S315000007904F8FBFF36F8F064992F9012041F822402F
S315000007A0002030BC186070470060004000E100E0A7
S315000007B02441002091F803C02DE9F0470024674644
S315000007C0436891F802905E6883683278B6F80A80CA
S315000007D0920002F1804202F5C042C9F3810EC2F8CE
S315000007E08042CCF3810A1C774FEA8E1EC2F88082C3
S315000007F05C774FEA9C12CD894EEA8A3E07F0C00A22
S315000008009203CCF3011CBAF1800FADB242EA0C227E
S315000008105FD0BAF1400F5CD0BAF1C00F00F09780FC
S3150000082042F40052B8F1000F01D042F00102D0F8B4
S315000008300CC0BCF1000F33D019F0200F54D14FF08B
S31500000840100C96F90170B37807F160481B01DFF8C8
S315000008501091DBB208F5614888F800333F4B07F189
S31500000860C00849F8270053F8289029F4803943F83E
S31500000870289053F82830BFF35F8F4FF001087B09AB
S315000008809B0007F01F0703F1604303F5614308FA75
S3150000089007F7C3F880711F60CF78836807F0C00A36
S315000008A0BAF1C00F28D00020074692B21FFA8EFE7A
S315000008B09F62D862A3F814E01A82486872681860CA
S315000008C0896859609D60DC609A6183F813C0BDE851
S315000008D0F0878C8905EB0545C9F3001C25F0FC253E
S315000008E0A4B242EA0C329DE7BAF1C00F14BF4FF032
S315000008F01C0C4FF0100CA4E7888907F00C07042F96
S3150000090080B208BF074691F80290B1F80E8009F050
S315000009100C0918BF37891FFA88F808BF4EF4005E25
S31500000920B9F1040F1CBF10FB08F81FFA88F0D1F8C4
S31500000930048008BF4EF0200EC3F82080D1F808804E
S3150000094007EB074700EB0040C3F82480ADE78C892E
S3150000095005EB054525F0FC25A4B263E700600040E1
S315000009602441002038B500254A68416013780446C2
S3150000097003F1012340339B018360D368C36053694D
S31500000980C0E90453EFF3108E4FF0010C8CF310887E
S31500000990084B1A6822F480021A601B688EF31088CE
S315000009A0054B096883F800C0FFF704FF034B284690
S315000009B0236038BD004008400052004043414D448A
S315000009C010B50446FFF7F6FE0122A36800201A7749
S315000009D010BD00BF0346002210B4D3E9014164688C
S315000009E01046237864899B0003F1804303F5C043D6
S315000009F0C3F880220A77C3F880425DF8044B4A7731
S31500000A00704700BF10B4002483B001910092D0E972
S31500000A100121506802784089920002F1804202F575
S31500000A20C042C2F880420C77C2F880024C77019A25
S31500000A300AB1019A0A60009A0AB1009A4A600A8AC3
S31500000A40002012F4404F14BFCB608B6001230B775C
S31500000A5003B05DF8044B704710B582B0EFF3038323
S31500000A60103B0D4A5BB203F1C00152F8210020F49D
S31500000A70803042F8210052F82120084A01A852F895
S31500000A8023406269E36801929847A368DA680AB16D
S31500000A9001221A7702B010BD0060004024410020F8
S31500000AA003460020D3E902235360704770B583697B
S31500000AB084B004468C46164601AD9BB193E8070008
S31500000AC085E8070083F804C0E26918469E601A604C
S31500000AD063699847A3691BB195E8070083E8070097
S31500000AE004B070BD2B46EDE7002800DA704710B45D
S31500000AF000F160430901124CC9B203F5614383F862
S31500000B000013104B00F1C00144F8202053F82120B7
S31500000B1022F4803243F8212053F82130BFF35F8F4F
S31500000B20012243099B0000F01F0003F1604303F517
S31500000B3061438240C3F880211A605DF8044B704718
S31500000B4024410020006000404FF0010C2DE9F041E7
S31500000B5000270A7C474B0D4613440CFA02F21B028F
S31500000B6012F00F0F83600CBF63463B4603744B695C
S31500000B70044643618B69CE69C0E90673C260416071
S31500000B80EFF310808CF310884FF000412A7C3A4B2B
S31500000B90D1401A6922EA01021A611B6980F31088A2
S31500000BA04FF42542D6E9068EA3684FF0000C1A6072
S31500000BB0DF62DF639F6428782A7A03284FF00040BB
S31500000BC04FEAC25208BF42F480326968DA6262684C
S31500000BD00139D769B26B186158619861C3F824C0AE
S31500000BE0C3F828C0C3F81C80C3F820E0996659668C
S31500000BF097F83010C80702D5B86A0138D864890753
S31500000C0002D5F96A0139196500219963C3F888107C
S31500000C1032B996F8212096F82010520742EA41325E
S31500000C2096F830100327002914BF4FF4A0014FF4A3
S31500000C30AA0101201964E1685A631F631863D96029
S31500000C402246697C95F91200FFF74EFF224696F878
S31500000C50221096F92400FFF747FF96F92500224651
S31500000C6096F82310FFF740FF044B00202360BDE8F1
S31500000C70F08100BF901640000040084054504700E5
S31500000C80F0B5EFF30382103A1F4C4FFA82FC0CF1D9
S31500000C90C00E54F82E104FEA8C0321F4803103F174
S31500000CA0804344F82E1003F5C043D3F800131749C8
S31500000CB051F82C0041680978012908D043692BB105
S31500000CC0BDE8F04000221146FFF7F0BEF0BD00255A
S31500000CD0D0E90267B760B564F564356554F82E60EF
S31500000CE002F0FF0265F3104644F82E60D3F8003395
S31500000CF0BFF35F8F064C4FEA5C1302F01F02914070
S31500000D00603344F82310D9E70060004024410020F6
S31500000D1000E100E00120CBB2984080B202B90004A5
S31500000D200B0A5B0103F1804303F500239860002062
S31500000D30704700BF2DE9F84F0388DBB182464FF0BC
S31500000D40000B4FF00109DFF8D0800024304D4FEA48
S31500000D50CB07DAF8043035F8022BD9198988914285
S31500000D600AD00134032CF4D1BAF800300BF1010B90
S31500000D705B45EAD8BDE8F88FDB5909FA04F603F0BB
S31500000D80B853B3F1807FF6B298F8BB3413D0334230
S31500000D9031D1204A04F1200612F81630DB09E0D0E2
S31500000DA012F81630012123F08003C82002F816300D
S31500000DB0FFF794FBD5E7334211D0164A04F1200120
S31500000DC012F81130DB09CCD112F81130C82043F0EB
S31500000DD0800302F811300121FFF780FBC1E70120F3
S31500000DE0FFF75AFC98F8BB340120334388F8BB342C
S31500000DF0FFF722FCE1E70120FFF74EFC98F8BB3431
S31500000E00012023EA060388F8BB34FFF715FCC0E788
S31500000E109CAB01000030084000E00140F8B50446F4
S31500000E20FFF788FFEFF31082012383F31088234F27
S31500000E303B681BB92249CB704023CB703B6801331A
S31500000E403B6082F3108823882BB361681D4C01EB4D
S31500000E50C30E06E01B01083113448E4544F82300F7
S31500000E6019D008688A88C5034FEA1223D2B2F1D591
S31500000E7002EB031C54F82C601B01083120F480356A
S31500000E8026F4803613448E4544F82C6044F82C50E2
S31500000E9044F82300E5D1EFF31082012383F3108891
S31500000EA03B6813B13B68013B3B603B681BB9802044
S31500000EB00349CB70C87082F31088F8BD204100202A
S31500000EC0000D08400008084008B5034B03600846BB
S31500000ED0FFF7A4FF002008BD54524F5030B5836A77
S31500000EE085B004468C4601ADABB193E8070085E8B2
S31500000EF0070062681846117883F804C0E26A196030
S31500000F009A60636A9847A36A1BB195E8070083E86D
S31500000F10070005B030BD2B46EBE700BFF8B5054628
S31500000F201046AA689DF818C092F800E01EF040042A
S31500000F3040F084801F46EB616B6885F820C0C5E9E8
S31500000F4005445C690E46C5E9031044B36368BCF109
S31500000F500F0F1968AF616BD8BCF1070F94BF4FF044
S31500000F60000C4FF0010C4B884FEA0C3C23F4405325
S31500000F7023F00C034CF0080C4CEA030CBBB2CB81FB
S31500000F80A1F802C08860002862D0A36820685B6868
S31500000F90984700284BD16B6895F820C0AA68186955
S31500000FA040B34368BCF10F0F19686F6143D8BCF1B9
S31500000FB0070F94BF4FF0000C4FF0010CBBB2CB8172
S31500000FC0CB784FEA0C1C4CF0080C23F03C034CEA9F
S31500000FD0030C4E6081F803C0002E40D0137884685D
S31500000FE023F02003006864681370A047F8B995F8E9
S31500000FF020C0AA68D17A138ABCF10F0FC9B29BB27E
S315000010001ED90CF1010C21F040014FEA9C0CACF109
S31500001010050C41F02001002023F4706343EA0C2301
S315000010209BB2D1721382137843F060031370F8BD3C
S315000010304FF0020C97E74FF0020CBFE70820F8BD0F
S31500001040BCF1070F94BF41F0400101F09F01E2E7B8
S315000010508B7860F383038B70054B8B6095E75FFAA3
S315000010608CF366F38303CB70024B4B60B6E700BF8D
S31500001070484100204441002010B594461C4682B0E9
S31500001080002263460094FFF749FF02B010BD00BF7F
S315000010902DE9F04F0B78DFF8E8820F691B020D4649
S315000010A0044685B0984477B14FF000627968386895
S315000010B00B681A60C3F80880BB681B689847064629
S315000010C0002840F00D816B6973B1D3E901124FF42A
S315000010D0002618680B6812681E60C3F804809047E3
S315000010E00646002840F00081D5E906130022C4E92F
S315000010F00A2365606162287800F5800303F58D5345
S315000011001B02A3606F7A002F00F0F8801146B0260C
S3150000111096466B7B95F80BC02A6A1B03AD7A43EAA9
S315000011204C032B431578002D40F0ED8001218140C2
S31500001130890740F0168192F801C090784FEA4C1169
S3150000114026EACC1641EA4C01314323F070051679A4
S31500001150D378019198401B011EB1022E0CBF302698
S31500001160202692F805C0BCF1000F06D0BCF1010F95
S3150000117014BF4EF0010E4EF0030E92F808C00CF0AC
S31500001180030C43EA8C032B4395790295002F40F01C
S31500001190BD80917A92F80980D77A43F4604303912F
S315000011A0EFF3108A012585F310886168DFF8D49182
S315000011B091F800C0D9F804B0CCF1130C05FA0CFC78
S315000011C02BEA0C0BC9F804B0D9F804C08AF31088CE
S315000011D04FF0000C4FF010091FFA83FB9DF8041026
S315000011E0A3685FFA80FAD878606883F803C019703C
S315000011F083F801A09E70D2795FFA8EFE9A72039AE6
S3150000120083F80C805A73029A9F7383F80FE0A3F851
S3150000121010B083F8202083F8219090F902306345BE
S3150000122078DA534A90F90130002B26DB417903F135
S3150000123060400901C9B200F5614080F800134D49CC
S3150000124003F1C00042F8234051F8205025F48035C0
S3150000125041F8205051F82010BFF35F8F0120590943
S31500001260890003F01F0301F1604101F5614100FAB5
S3150000127003F3C1F880310B606068017A90F904309D
S315000012803D4809013B4DC618C9B286F8001303F163
S31500001290C00142F8234055F8216026F4803645F80F
S315000012A0216055F82110BFF35F8F012103F01F0560
S315000012B05B099B0003F1604303F56143A940C3F852
S315000012C0801119600026636893F90310DB790844DE
S315000012D01B01DBB280F80033284B42F82140236023
S315000012E0304605B0BDE8F08F002FF9D0BB683868EE
S315000012F01B6A9847304605B0BDE8F08FB82608212E
S315000013004FF0100E05E741F0B10614E70027B84686
S31500001310039745E7817903F160400901144AC9B290
S3150000132000F5614080F80013124903F1C00042F84D
S31500001330234051F820606CF3104641F8206051F8C4
S315000013402010BFF35F8F03F01F015B099B0003F1C1
S3150000135060438D4003F56143C3F880511D606068AA
S3150000136060E7B7FA87F1490943EAC113E3E600BF2C
S31500001370244100200060004000E100E04950535243
S3150000138004A011400040084010B4EFF30383103B63
S31500001390214A5BB203F1C00152F8210020F48030EB
S315000013A042F8210052F821201C4A52F82330D3E992
S315000013B006218A421CD018699C6838B393F820C06D
S315000013C0BCF10F0F0AD9616840F82210D9690132C1
S315000013D08A429A610CD05DF8044B7047BCF1070F46
S315000013E016D821798154D96901328A429A61F2D19B
S315000013F05B6893F90330012203F01F0008495B097B
S31500001400824041F823205DF8044B70476068DEE7B0
S31500001410A48820F81240DAE700600040244100204A
S3150000142000E100E04268136A13B15B78012B00D03B
S31500001430704792F90320044902F01F0083405209C5
S3150000144041F82230704700BF00E100E030B4EFF30E
S315000014500382103A344953B203F1C00051F82040D8
S3150000146002F0FF0224F4803441F8204051F82010A5
S315000014702E4951F823008168C978890705D5416846
S31500001480497A012901D030BC70470121284C5B09FB
S3150000149002F01F02203301FA02F244F82320BFF3C0
S315000014A04F8FBFF36F8F436893F90230002B32DB07
S315000014B05A0903F01F0301FA03F3203244F82230DD
S315000014C0BFF34F8FBFF36F8FD0E90124237892F9D2
S315000014D0022023F04003002A237018DB124B02F18E
S315000014E0C00453F8245025F4803543F8245053F8AB
S315000014F02430BFF35F8F53099B0002F01F0203F1F4
S315000015006043914003F56143C3F8801119600121DE
S3150000151030BCFFF7E3BC8268012130BC137823F0AE
S3150000152040031370FFF7DABC00600040244100203E
S3150000153000E100E070B5EFF30383364A103B5CB27E
S3150000154052F82460736893F90230002B49DB0120BE
S3150000155031495A0903F01F03203200FA03F341F818
S315000015602230BFF34F8FBFF36F8FD6E9013293F965
S3150000157002301178002B21F04001117019DB274A47
S3150000158003F1C00152F8215025F4803542F821506C
S3150000159052F82120BFF35F8F03F01F025B099B0007
S315000015A003F16043904003F56143C3F8800118607E
S315000015B0B2680021D378D1701A07DDB224D4EB07C4
S315000015C015D405F01405142D19D0144A04F1C003DE
S315000015D052F8231021F4803142F8231052F82330B8
S315000015E070BDB268137823F040031370E1E704215D
S315000015F0304605F01405FFF771FC142DE5D10821DE
S315000016003046FFF76BFCE0E705213046FFF766FC46
S31500001610D5E700BF2441002000E100E00060004063
S3150000162010B472B60020154A154B1168154A186099
S3150000163011601549154C0B68154A43F001030B6000
S315000016402368A2FB03235B09013BB3F1807F0AD227
S315000016504FF0E0224FF0F00C07210E4C536184F856
S3150000166023C090611161F02200210A4B83F82310F8
S31500001670DA7783F822205DF8044B704700000000FB
S315000016805441002004420020001000E0DC4000200D
S315000016901F85EB5100ED00E070B472B61D4D1E4C77
S315000016A02868206000282DD14AF2025C1B4A1C499A
S315000016B01C4E8B899BB213801388180409D5B1F888
S315000016C0FE339BB23360A1F8FEC31388C3F30E0347
S315000016D08B81BFF34F8F30BFBFF36F8F13881B040F
S315000016E008D513889BB28B81336843F425439BB29C
S315000016F0A1F8FE3362B6BFF36F8F72B6286820601A
S315000017000028D6D04FF00062074B5A6062B670BC14
S31500001710704700BFFC4100200042002050410020DD
S3150000172000E001404C41002000ED00E00022074BA4
S315000017301A60EFF3148C2CF0040C8CF3148862B648
S315000017404FF08052024B5A60FEE700BF684100200E
S3150000175000ED00E01B48016800292DD0EFF3098356
S3150000176023E9F00F1EF0100F01D123ED108A43F884
S3150000177004ED8B60144C236813B18B610023236046
S31500001780124E3668D6B10660706801307060B06976
S315000017902060F16801F1280181F30B88B36853F8E2
S315000017A004EB1EF0100F01D1B3EC108AB3E8F00F72
S315000017B083F309887047FEE7034CE1E7FFF76CFF08
S315000017C00646E1E70042002008420020FC410020D6
S315000017D000F01CB86FF0020370B504690D4624F0E2
S315000017E00704A4F144068660342244F8443C0021F0
S315000017F0A4F1400019F0CFF84FF0FF324FF080739C
S3150000180044E9032544F8043C70BD00BF244925483B
S315000018100A680368013210B50A6013B1013B036020
S31500001820DBB1214A214C136821681868F8B10122FE
S315000018301F4B1A6000F0B2FB236833BB1D4B1B68BD
S3150000184053B11D4A1268934206D01C4B1B681BB944
S315000018504FF080521A4B5A6010BD0121124A134CA8
S3150000186013681868216010B1114B1960E2E715483A
S3150000187004330068136083420AD00D4B1B6811B90C
S31500001880002BDBD0D6E7002BD4D100F039FBD5E70F
S315000018900D48074B00681B6810600029F0D0F2E77E
S315000018A0A84200200842002018420020A44200203E
S315000018B014420020FC410020004200206841002024
S315000018C000ED00E01C4200202042002008B500F098
S315000018D095F9BDE8084000F0E5BB00BF10B50E4C19
S315000018E0236813F10F3F0AD04FF0F0332360FFF760
S315000018F097FEFFF7EBFF094A1368013313604FF0B9
S31500001900F033074A2360106800F092FD002323603D
S31500001910BDE81040FFF70ABF000000206841002024
S315000019205441002010B5EFF3108372B61A4A846E44
S31500001930944202D083F3108810BDD0F8AC208A42BE
S31500001940F8D1C26E002AF5D0144914688C42F1D140
S3150000195011690029EED00024013984661161C1B1F4
S31500001960D0E91C144C672167D468844211D0026BFD
S31500001970062ADFD10D240A49C0F884400A680132DC
S315000019800A6083F3108800F0C1F9EFF3108372B692
S31500001990D0E7D160EBE700BF25190000414D455364
S315000019A068410020002330B4C0E901120360C3601F
S315000019B0036143618361EFF3108172B60B4A0C4CED
S315000019C0136804600B4C4BB94061206080610133A1
S315000019D0136081F31088002030BC70472468A56925
S315000019E0A0616861C0E90545F1E700BF58410020E4
S315000019F0414D45535C410020F8B5EFF3108272B6B5
S31500001A0083682BB1013B836082F310880020F8BD08
S31500001A1031B3174B1C681CBB164C2468D4F8AC5069
S31500001A20E0660135C4F8AC50134DA5660569DDB115
S31500001A30C668776F266767673C6774670135056117
S31500001A40E164196806200131196001232063A3634C
S31500001A5082F31088204600F0D3F9D4F88400F8BD4C
S31500001A6082F310880D20F8BDC460C4E91C44E5E784
S31500001A7068410020004200202519000038B50346C1
S31500001A80EFF3108172B6026932B982680132826060
S31500001A9081F31088002038BD013AC06813D0046F66
S31500001AA0456FDC6065672C6700241A61074A846607
S31500001AB01368C0F884400133136081F3108800F086
S31500001AC025F9002038BDDA60EEE700BF6841002046
S31500001AD02DE9F84F0446DDE90A568A469146EF217C
S31500001AE0324628460C9F9846DDF838B018F053FF6A
S31500001AF0B0220021204618F04EFF2023C4F89C3067
S31500001B000D9B364A9F424FF00303666106F1FF368E
S31500001B10E56035442046C4E91198C4E906BBC4E92A
S31500001B2015242F49C4F828A02561E762C4F89470EB
S31500001B3004BFE763C4F898702363FFF74BFEEFF327
S31500001B40108172B6274B284A2360136863BB274867
S31500001B50C4E92244046001331360254A1368013343
S31500001B6013600F9B012B2AD1EFF30582214B1B68D3
S31500001B701343B3F1F03F07D281F31088204600F0FB
S31500001B80C5F80020BDE8F88F1B4B1D68002DF3D06B
S31500001B90EB6AEE6BEB6381F31088204600F0B6F833
S31500001BA00020EE63BDE8F88F10480068D0F88C502E
S31500001BB0C0F88C40C5F88840C4E92205CBE781F31C
S31500001BC01088EFF3108172B61368013B136081F33E
S31500001BD0108800F07DF80020BDE8F88F6D1F00002A
S31500001BE0191C000044524854F4410020F8410020DA
S31500001BF06841002000000020FC4100202020044A0B
S31500001C0004491368086043F0C7731360704700BF48
S31500001C1060410020EC41002038B5124B1C68D4E925
S31500001C2011309847104B1B680BB120469847EFF3CD
S31500001C30108072B6012200250C4922630B68A2634C
S31500001C4013440B60E56480F31088EFF3148323F0EC
S31500001C50040383F31488BFF36F8F2046BDE8384032
S31500001C6000F0CEB800420020644100206841002008
S31500001C7010B5EFF3108272B6124B1C6864B1EFF325
S31500001C800581114B1B680B4306D110B982F31088EE
S31500001C9010BD0E4B196819B182F31088132010BDC0
S31500001CA0C4F884101968E064013119600421012325
S31500001CB02163A36382F31088204600F0A1F8D4F8CC
S31500001CC0840010BD00420020000000206841002072
S31500001CD00A4B1B688BB90A4A0A4B12681B689A4260
S31500001CE00BD04FF08052084B5A60EFF3058323B9AF
S31500001CF0EFF3108362B683F31088704768410020C3
S31500001D0000420020FC41002000ED00E0F8B504464A
S31500001D10EFF3108572B6436E002B5BD04C3000F0AB
S31500001D2007FA304AA16B1368013B1360236B002945
S31500001D3045D15BB92C492D4B1B6885F31088096882
S31500001D40994202D01368002B2BD0F8BD636B002B91
S31500001D503AD1E06A2649236351F8203033B1596AF3
S31500001D600C625C62616223621F49E4E741F820402D
S31500001D700121204E204F336881400B4333603B687E
S31500001D80C4E908448342D5D9174938600B683BB388
S31500001D90DB6B8342CFD90C6085F310881368002B68
S31500001DA0D3D14FF08052154B5A60EFF30583002BC9
S31500001DB0CBD1EFF3108362B683F31088F8BD013BF5
S31500001DC0012BB7D9636B3BB1032000230649C4E955
S31500001DD00C03B0E7C364A4E70349A3632363AAE73C
S31500001DE00C60A8E768410020FC410020004200206A
S31500001DF06C410020F0410020EC41002000ED00E0A5
S31500001E00F8B5374B04461D68EFF3108672B6854267
S31500001E103BD0344A1368013B1360A36B012B08D0F7
S31500001E20314B86F310881B68AB4201D01368F3B1BF
S31500001E30F8BD4FF0000C216AE06A8C42C4F838C045
S31500001E4032D0636A294F4B62196257F82030A34299
S31500001E5027D0254B1968A142E3D12549096857F8CF
S31500001E602110196086F310881368002BE0D14FF01B
S31500001E708052204B5A60EFF30583002BD8D1EFF345
S31500001E80108362B683F31088F8BDEB6C013B033315
S31500001E9003D805F14C0000F01FF9174BE2691A60F0
S31500001EA0B7E747F82010D4E71449104F834047F8A6
S31500001EB020C0086820EA03030B6033B193FAA3F34A
S31500001EC0B3FA83F30A490B60C3E720200849064C9E
S31500001ED00860236086F310881368002BC7D0F8BD0E
S31500001EE00042002068410020FC4100206C41002097
S31500001EF0EC41002000ED00E008420020F041002007
S31500001F00144B1B68EFF3108272B60020124908606A
S31500001F1093B1196B81B9186A10B4D9690F4C9842FC
S31500001F209961216003D0D96ADB6B994207D082F3AD
S31500001F3010885DF8044B704782F310887047084C90
S31500001F40084B246843F8210053F8243006490B60F7
S31500001F50EDE700BF00420020A44200200842002016
S31500001F60EC4100206C410020FC410020EFF3108C76
S31500001F7072B6026B042A07D0826ED0F8AC108CF3CE
S31500001F80108802B110477047034A13680133136083
S31500001F908CF31088FFF7BABE684100202DE9F04F98
S31500001FA083B0EFF3108A72B6384A1768002F60D1F3
S31500001FB0374E3368002B5CD00123DFF8DC80DFF876
S31500001FC0DCB0DFF8DC901360324B1B6818680090B9
S31500001FD008B1C0F818D0D8F800002E4A43F8047BA0
S31500001FE08342136008BFDBF80030376008BF136018
S31500001FF08AF31088EFF3108A72B6009C002C33D057
S3150000200001AD12E020382060A56124610194C9F871
S3150000201000408AF31088EFF3108A72B6019BC9F864
S3150000202000709C422CD0009CF4B1236901979C421D
S3150000203024D0606958610361C3F818D02068009302
S315000020402028DFD8D4E902326068206010B1284623
S3150000205024610194A061C9F800408AF31088002B1E
S31500002060D9D010469847D6E73368002BACD1074A3B
S3150000207013608AF3108803B0BDE8F08F0023DDE714
S315000020802046A76100F028F8CDE700BF0C420020EB
S3150000209014420020184200201C420020204200204A
S315000020A0104200200021074B074A10B4074C13606A
S315000020B00748084A236080335DF8044B03601160CB
S315000020C0704700BF24420020184200202042002012
S315000020D01C4200200C42002003685A1E033201D81D
S315000020E0826902B17047202B28BF20230D4A0E4972
S315000020F012680968013B02EB8303994208D91A6802
S315000021005AB1516908615061C0E904218361E9E768
S31500002110064A5B1A12681344F1E7C0E90400186026
S31500002120F4E700BF184200201C4200202042002095
S31500002130836963B1026990420AD0416951610A61BB
S315000021401968814204BF93611A6000238361704756
S315000021501A688242F9D100221A60F6E708B11C2BF0
S3150000216001D00C207047F8B505460F461646EFF32A
S31500002170108172B61C4A13680133136081F310880C
S315000021801A4B1C681A4B186848B1A54207D00023A1
S3150000219001E0A54203D0013383426469F9D1EFF32C
S315000021A0108172B61368013B136081F31088FFF744
S315000021B08FFDA54213D0EFF305810E4A13680B433A
S315000021C006D0EFF3058113680B43B3F1F03F08D354
S315000021D0324639462846BDE8F840FFF7E3BB0C20F7
S315000021E0F8BD1320F8BD00BF684100205C41002007
S315000021F0584100200000002018B1084B02689A429E
S3150000220001D00C20704729B1EFF30582044B1B68FF
S31500002210134301D1FFF7F0BB04207047414D4553EE
S315000022200000002018B1044A0368934201D00C2034
S315000022307047FFF723BC00BF414D45532DE9F04FD2
S3150000224085B0DDE910940194129CDDE90E580394E3
S31500002250139C0294149C08B1B02C03D00E2005B038
S31500002260BDE8F08F8B4617469A460646EFF3108276
S3150000227072B6DFF810C1DCF800300133CCF800305C
S3150000228082F310883C4B08F1FF301A683B4B284418
S315000022901C68BAB1A64215D000210097E368AB428C
S315000022A059D82769AF4256D94FF0010E002583420F
S315000022B001F1010144D82369834241D90025009FD9
S315000022C0D4F88840EFF3108272B6DCF80030013B98
S315000022D0CCF8003082F31088FFF7FAFCA642BDD096
S315000022E0002D3DD0002F3BD0B8F1C70F36D9B9F13C
S315000022F01F0F3BD8019B99453AD3029B012B33D83C
S31500002300EFF305811E4A13680B4306D0EFF30581F0
S3150000231013680B43B3F1F03F2CD3029B3A46139359
S31500002320039B59461293019B3046CDE910935346C1
S31500002330CDF83C800E9505B0BDE8F04FFFF7C8BB61
S315000023409142D4F8884004D0A64202D0BEF1000FD4
S31500002350A4D0009FB6E74FF0000EA8E705207EE761
S31500002360032005B0BDE8F08F102078E70F2076E750
S31500002370182074E7132072E7F4410020F84100208A
S31500002380000000206841002008B501221C230649F0
S315000023900648FFF7E3FE00B908BD0021BDE8084086
S315000023A0024800F043B800BFA4AB0100AC420020D5
S315000023B008B500F061F8BDE8084017F041B900BF64
S315000023C0012110B5B0204FF400540E4A88B01368AE
S315000023D00B4413600C4ACDE90510CDE903110092B8
S315000023E002910023094A0A490A480194FFF726FF89
S315000023F008B908B010BD0021064808B0BDE8104075
S3150000240000F014B80844002088810120B1230000A0
S31500002410B8AB0100D04200200148FFF703B800BF67
S3150000242080430020FFF7B0BF704700BF00BE704773
S3150000243070B500240C4E0D4D1C2301220C490D488D
S3150000244034602C70FFF78AFE20B9FFF7B9FFFFF75B
S31500002450EBFF70BD21460748FFF7E8FFFFF7B0FF27
S31500002460FFF7E2FF70BD00BF0844002004440020CF
S31500002470C4AB0100E843002038B54FF0FF311448E3
S31500002480FFF7BAFEF0B9134B1A7802B138BD012234
S31500002490114C1A70FFF7C6FF2368013B2360002B1F
S315000024A0F4D00B4D04E02368013B2360002BEDD0F4
S315000024B02846FFF7B7FE0028F5D000212846FFF78B
S315000024C0B5FFF0E700210248FFF7B0FFDBE700BFEA
S315000024D0E8430020044400200844002008B5FFF724
S315000024E0FDF9002008BD00BF70B5044682B00E4657
S315000024F0154640F20631002218488DF80740FEF7CF
S3150000250009FC00224FF441711448FEF703FC07232F
S315000025100122134C13480DEB03012270FEF7ACFDAC
S315000025202378012BFCD03DB9012240F206310B483D
S31500002530FEF7F0FB02B070BD01224FF4417107486F
S315000025402270FEF7E7FB07232A4631460548FEF7C9
S3150000255093FD2378012BFCD0E6E700BFC84200209C
S3150000256029BC0020804300202DE9F0413B4F82B07A
S315000025703B78002B5CD103F0FF05394B1B78002B11
S3150000258059D02B46904691F901200C4662F3070379
S31500002590B1F90020064662F30F2391F905202A209F
S315000025A062F31743B1F9042062F31F6304220DEBB3
S315000025B002010193FFF798FF2B46042294F903C00A
S315000025C00DEB02016CF30703B4F902C02B206CF388
S315000025D00F2394F907C06CF31743B4F906C06CF3E4
S315000025E01F630193FFF780FF2A4629462C20FFF739
S315000025F07BFF2A4640F206311A48FEF78BFB012282
S315000026004FF441711748FEF785FB0223A288208804
S315000026103B700132E388121A608801331B1A12FBE1
S3150000262003F24146072310485200FEF725FD38B94C
S3150000263002B0BDE8F08102B0BDE8F04111F0D8BFAC
S31500002640012240F206310748FEF764FB30463D7032
S3150000265011F0CEFF02B0BDE8F08100BF29BC00201A
S3150000266014000020C84200208043002030B52B4CC7
S3150000267083B02B492B48FEF70BFD2B492046FEF76E
S3150000268063FA2046294CFEF70BFA002240F202318B
S315000026902046FEF73FFB4FF47A716420FDF71EFFDC
S315000026A0012240F202312046FEF734FB4FF47A71E4
S315000026B06420FDF713FF002211201146FFF714FFD7
S315000026C0552300240DF1060101223A208DF806302B
S315000026D0174DFFF709FF0DF10701012236208DF88E
S315000026E00740FFF701FF224621462920114CFFF73C
S315000026F0FBFE4FF4F05328460F4A104911F06EFEC8
S31500002700204611F047FE20460D4A0E4B22606361BB
S31500002710E56003B0BDE8304011F06EBEC84300204E
S31500002720C8C801008043002024C90100C842002017
S315000027300CBC00202CBC00200C4400200C80002087
S315000027404001F0006925000010B50479012C00D085
S3150000275010BD224640F206310548FEF7DBFA054B6E
S315000027601A78022A04BF044A147000221A7010BD97
S31500002770C842002029BC002028BC0020037903B1F0
S315000027807047012011F048BF10B582B018B1044659
S31500002790206902B010BD11F0F3FE04460028F7D1FF
S315000027A00449022000913622034B044913F086F8AF
S315000027B02046EEE720AC01003CCA0100D8AB010080
S315000027C010B582B018B10446606902B010BD11F0B0
S315000027D0D7FE04460028F7D104490220009147227B
S315000027E0034B044913F06AF82046EEE750AC0100AB
S315000027F024CA0100D8AB010010B582B018B1044656
S31500002800E06902B010BD11F0BBFE04460028F7D106
S315000028100449022000916022034B044913F04EF84C
S315000028202046EEE784AC01000CCA0100D8AB0100DB
S3150000283010B582B018B10446206A02B010BD11F07E
S315000028409FFE04460028F7D1044902200091712218
S31500002850034B044913F032F82046EEE7C0AC010002
S31500002860F4C90100D8AB010008B18068704708B50B
S3150000287011F086FE806808BD10B582B040B10446EE
S31500002880D4F854010028D4BF0020012002B010BDA6
S3150000289011F076FE04460028F2D105490220009187
S315000028A04FF4DF72034B044913F008F82046EDE7B6
S315000028B0FCAC0100D4C90100D8AB010010B50C4630
S315000028C090B1006810B90DE0006858B10369002B9B
S315000028D0FAD000222146E2609847207EC04300F0ED
S315000028E0010010BD012010BD4B681868EAE700BF63
S315000028F070B5054600F0DCFA58B1006883680BB184
S31500002900297A98472B7E9C0700F19680D80700F11C
S3150000291091806E68B368002B39D09A7E910636D0C6
S31500002920DB68002B33D01A68002422B193F9081013
S31500002930187A002914DBB368013404EB440133B37D
S315000029409A7E02F03F02944221D2DB6803EB8103B8
S315000029501A68002AEFD093F90810187A0029EADAE3
S31500002960802820F0800102D0287A8142E3D15B687A
S315000029702846EB6090472B7E9A075DD4DE0759D434
S315000029806E680134B36804EB4401002BD8D12946A4
S315000029900020FFF793FF024600284BD06E68B3680D
S315000029A0002B4BD0997E8C0648D0DB68002B45D097
S315000029B0012808BF002410D03BE0297A814216D0B6
S315000029C0B368013404EB44010BB39A7E02F03F0274
S315000029D094421CD2DB6803EB81031A68002AEFD00D
S315000029E093F90810187A0029EADB0028E5D15B681C
S315000029F02846EB6090472B7E98071DD4D90719D43B
S31500002A006E680134B36804EB4401002BDDD17368B2
S31500002A1093B12A7E52070FD42A7A233A012A10D874
S31500002A2028466B60FFF764FFA0F10100B0FA80F062
S31500002A30400970BD002070BD012070BD012AE6D09E
S31500002A4070BD4FF48041304601F0CAF80028F3D03B
S31500002A502B7A113BDBB21B2B04D8044A22FA03F370
S31500002A60DB07E9D46B685B68DAE700BFFF270F0B6B
S31500002A70D0B130B5002589B09DF818300B4C23F045
S31500002A8007038DF818302368009001906846CDE959
S31500002A9004238DF80810C4F800D00395FFF728FF2B
S31500002AA0059B236009B030BD012070477CBC002027
S31500002AB00068704740687047007A00F07F007047F2
S31500002AC000697047094B1B682BB90EE01A688242F1
S31500002AD004D05B694BB15A688242F7D11A7E42F044
S31500002AE001021A765B69002BF5D170477CBC002089
S31500002AF0037A013B0F2B01D80069704710B5064CCD
S31500002B0082B04FF48D720220044B0549009412F0F6
S31500002B10D5FE002002B010BDB0AD010084CA010090
S31500002B2014AD0100037A143B052B0DD910B5074CE3
S31500002B3082B04FF49B720220054B0649009412F0B6
S31500002B40BDFE002002B010BD00697047B0AD0100A7
S31500002B506CCA010014AD0100037A132B07D1026978
S31500002B60B2F900308B42B8BF0B461380704710B5E0
S31500002B70054C82B040F265120220044B04490094D1
S31500002B8012F09CFE02B010BDB0AD010050CA0100AB
S31500002B9014AD0100F8B50546002011F033FD20B351
S31500002BA0002704463E4604E0204611F02BFD04466D
S31500002BB088B1204600F082F9636DAB42F4D1022859
S31500002BC010D0042808BF2646204611F01BFD2746D4
S31500002BD004460028EDD10EB13046F8BD2FB13E4671
S31500002BE03046F8BD26463046F8BD0020BDE8F84020
S31500002BF011F008BD037FDB074DD42DE9F047C5680A
S31500002C00064688461746002D61D188470546002DA1
S31500002C103ED0A9464FF0000A286800F0EDFF0306F3
S31500002C2013D529463046B8474845054630D0002DCD
S31500002C30F2D1337F1A072BD5BAF1000F28D03046D0
S31500002C40C0474FF0000A0546F1E72C682CB910E0A2
S31500002C50204604F0A7FF044658B10121204600F0A3
S31500002C60BFFF0028F4D02046012100F0B9FF00285C
S31500002C70D7D1F368AB420BD09BB130461C68FFF747
S31500002C8089FF0F2102462046FFF7F2FE012804D0F5
S31500002C900020BDE8F08700207047F368186801F04F
S31500002CA027FF3046F5602C68FFF774FF0E210246B9
S31500002CB02046FFF7DDFE0128EAD1F368186801F027
S31500002CC017FF33690BB1304698470120E1E7A94663
S31500002CD04FF0010AA5E700BF027F38B542F00803AE
S31500002CE003775B070446C2F3C0050ED40F4A1049AA
S31500002CF0FFF780FF63691BB110B901212046984791
S31500002D00237F65F3C303237738BD0A4A0A49FFF7D1
S31500002D1071FF6369002BF3D00028F1D101462046EC
S31500002D209847237F65F3C303237738BD9558010081
S31500002D30855801009D5801008D5801002021014849
S31500002D4012F012BDD8BF0020014B1868704700BFB3
S31500002D5080BC002070B582B0054600F04FFFF8B188
S31500002D60C368044613B11B68AB421BD0204612F061
S31500002D7089FD014628B913E0204612F08BFD014675
S31500002D8070B10B68AB42F7D12046019112F03EFDBF
S31500002D900199084612F0A0FEAB680BB100229A60BA
S31500002DA002B070BD037FDA0744BF23F00103037747
S31500002DB012F068FDE36883420BD02046FFF78CFFD4
S31500002DC0E368002BD2D01B68AB4204BF0023E3604C
S31500002DD0CCE7204612F05AFDE26803469042ECD159
S31500002DE020461E68FFF7D6FE0F2102463046FFF743
S31500002DF03FFEE5E798B370B5044684B008460D4635
S31500002E00FFF7A8FF204612F03DFD014628B909E06C
S31500002E10204612F03FFD014620B10B68AB42F7D1C8
S31500002E2004B070BD284600F0E9FED8B1AB689A68D8
S31500002E301AB1D2681268954212D020469C6012F0F0
S31500002E40CFFC0646B0B12046356012F01BFD864227
S31500002E50E6D1204604B0BDE87040FFF73DBF70479D
S31500002E60FFF73AFFAB68002BE7D1284600F0CAFE11
S31500002E70AB68E2E70649074D074C02918F22032013
S31500002E80CDE90045054B064912F018FDFEE700BFE7
S31500002E905CAD010030AE010090AD010098CA0100A2
S31500002EA0D8AD010010B1007FC0F34000704700BFED
S31500002EB0014B1868704700BF84BC002008B1036846
S31500002EC01878704730B103681B7803F0FD03012BB7
S31500002ED001D00020704790F8440000F00F007047C2
S31500002EE030B103681B7803F0FD03012B01D00020ED
S31500002EF07047006B704700BF2DE9F04FA5B006463E
S31500002F00FFF7DAFD05463046FFF7D2FD122D0446DF
S31500002F1007D0152D18D0182D00F0A88025B0BDE8D3
S31500002F20F08F3046FFF7CCFD03780546022BF5D02F
S31500002F3017220021204603F06BFF0646002800F00A
S31500002F40668102232B70E9E73046FFF7EBFD04AEFE
S31500002F500746304608F018FA34220021204603F0CE
S31500002F6057FF28B19DF8333043F001038DF8333015
S31500002F7032460021204600F0AFFF6922002120469C
S31500002F8003F046FF6A2205460021204603F040FF73
S31500002F90002182B208464FF00008ABB2A58A0DF1B7
S31500002FA04809ED1A65F30F01258B2B4463F30F00D7
S31500002FB0E38A02AD9B1A63F31F41638B02911A44A5
S31500002FC062F31F4039460390484601F0C5F9D34BDA
S31500002FD01A214A46204613931696CDF85080CDF80E
S31500002FE07C801595FFF744FD17224146204603F0E5
S31500002FF00FFF10B1BDF9103063B92A463146384685
S3150000300008F0E8F94A461B212046FFF731FD25B0B6
S31500003010BDE8F08F2A4631463846DDF820B0CDF8B7
S31500003020208008F0D7F9182012F0BEFD824604F180
S3150000303014014346BDF9102007F014FF504604F56D
S31500003040907107F003FDBBF1000FDBD02A46314635
S315000030503846CDF820B08DF813808DF832808DF883
S315000030603A808DF8468008F0B5F9CBE73046FFF791
S3150000307059FD02AD2A4607466946204603F0D6F8B2
S31500003080684611F05DFD20B9284611F059FD00286B
S315000030905AD004AE304608F077F921224FF4803139
S315000030A0204603F0B5FEC0B202288DF8130000F2E8
S315000030B0468131224FF48031204603F0A9FEC0B28A
S315000030C002288DF8320000F22B8145224FF4803120
S315000030D0204603F09DFEC0B202288DF8460000F29D
S315000030E00D814FF48031204604F07EFCFC2840F22E
S315000030F0C0809DF846309DF813209DF832101A4383
S31500003100114321D00B224FF48031204603F080FE7C
S315000031100DF14809ADF810003946484601F01CF992
S31500003120022314934FF480331F937C4B6846169604
S31500003130139311F005FD002840F02481284611F074
S31500003140FFFC002840F0BA8017220021204603F039
S315000031505FFE002840F0C48034220021204603F0A0
S3150000316057FE00283FF4DAAE00260DF11009484656
S3150000317008F00AF94A46314620468DF813608DF864
S315000031802A608DF83A608DF8466000F0A5FE31465B
S315000031906922204603F03CFE804631466A222046DC
S315000031A003F036FE31463246B4F814C01FFA88F3EF
S315000031B0ACEB030C6CF30F01B4F818C080B2634497
S315000031C063F30F02E38A1B1A63F31F41638B0291B9
S315000031D0184460F31F42394612A8039201F0BCF866
S315000031E0012314934D4B12AA1A2120461393CDE9BD
S315000031F015591F96FFF73CFC2A464946384608F003
S31500003200E9F81B21204612AAFFF732FC86E60146A2
S315000032100B22204603F0FCFD692231460FFA80F8A6
S31500003220204603F0F5FD07466A223146204603F0A4
S31500003230EFFDB446BBB2374681B2A08A4246C01AF9
S3150000324060F30F0C208B034463F30F07E38A68686F
S315000032505B1A63F31F4C638BCDF848C0194461F3C6
S315000032601F4712A9139711F0DBFEA8B901232B7093
S3150000327054E69DF8132012FB00F2131200FB03F331
S31500003280C2F30722C3F3072319468DF813208DF8DE
S3150000329032308DF8463032E721223146204603F09F
S315000032A0B7FDC0B2FC28E1D960223146204603F0C2
S315000032B0AFFDC3B2FC2BD9D92E702FE64A461A2190
S315000032C020461595FFF7D4FB31462A463846159514
S315000032D008F080F84A461B212046FFF7C9FB33E772
S315000032E004F5907007F018FC064600283FF434AF4A
S315000032F007F028FC304612F0DBFC2DE740224FF4A5
S315000033008031204603F084FD00B20028ADF83E006F
S315000033101EDC00238DF84630E3E600BFD0CA01006C
S3150000332032224FF48031204603F072FD00B20028AD
S31500003330ADF830001DDC00238DF83230C5E62022C2
S315000033404FF48031204603F063FDADF81400B0E67B
S3150000335043224FF48031204603F05AFD4422ADF853
S3150000336044004FF48031204603F052FDADF83C0096
S31500003370B7E630224FF48031204603F049FDADF820
S315000033802E00A2E64A461A212046CDF854D0FFF771
S315000033906FFB6A463146384608F01CF84A461B2140
S315000033A02046FFF765FBC9E610B50C460846FFF751
S315000033B089FB002003F026FD0021154A204603F074
S315000033C099FF012003F01EFD0021204611F086FA28
S315000033D0A368CBB19A6822B12046FFF7BBFCA3686D
S315000033E093B1186888B112F077FB0023A0680360D8
S315000033F0C3682BB1184612F06FFB0023A068C360A8
S3150000340012F06AFB0023A36010BD1846F0E700BF68
S31500003410FFFF0F002DE9F0414E680C462EB33046F3
S3150000342002F08EFA0746304602F018FA1022002102
S3150000343080463046F58A03F0EBFC2B18A3EB080315
S315000034409BB25A1EE3826283002112223046B58A5D
S3150000345003F0DEFC4BF676330544E81B80B2421ED1
S31500003460A0822283E361BDE8F08141F67603E36141
S31500003470BDE8F0812DE9F04FB0F820B08BB08B4558
S3150000348008D00A4601840C465946064604F062F9FD
S31500003490814610B90BB0BDE8F08F4FF4207012F0E2
S315000034A083FB4FF42071049012F0D6FD738C13F455
S315000034B07C7F58D00025E343CDE908B9A846A1464C
S315000034C005930296029BEF00DE6806EBC504606872
S315000034D020F07F4004F070FA029B8246DB6803907E
S315000034E03B44586820F07F4004F068FA059A83460A
S315000034F01AEA020F27D1E37913F0020323D14FF61C
S31500003500FF70F259918816688142D27942D0D2B1C1
S31500003510012A13D006EB820102E001339A4212D04F
S3150000352031F8020BC0F30D07672FF6D107040AD452
S31500003530410400F1D18056F8236040E0C1F30D0349
S31500003540672B00F0C380029B01355B8CC3F3051328
S315000035509D42B7D34C46DDF820B0029EDDF824909C
S31500003560B8F1000F74D1049812F0A2FBB9F1010F63
S3150000357000F0B780B9F1030F00F0B980B9F1020F7E
S3150000358088D1304601F0B4FA30460BB0BDE8F04FB2
S3150000359000F0EABE002AD6D0304603E09A4200F197
S315000035A00800D0D036F833100133C1F30D07672F6A
S315000035B0F4D10A04C7D44B0400F18E804668326801
S315000035C01388002B00F09D80B8F1000F7BD04FF0E0
S315000035D0000A5746CDE906544FF0000A3D46049CC2
S315000035E0574602E00137474545D0D4F804A01434C5
S315000035F0504604F0E1F902465046924604F0DEF9E0
S31500003600326834F80CCC515B02EB050E8C45E9D1DF
S315000036108345E7D1039B5345E4D8BA46D045704667
S315000036202F4677D00237D35B002BD5D1069D029B60
S3150000363001355B8CC3F30513AB428BD9B8F1200F70
S315000036407FF440AF4C46DDF820B0029EDDF82490B2
S31500003650049D08EB880805EB8808686804F0AEF955
S315000036600095014623465A463046143503F08EFF30
S315000036704545F2D177E77046AA46079C069D049B0E
S3150000368008EB8801D6E9037C23F8217003EB81015E
S31500003690A1F802C00388B0680AF1020A0B816368C8
S315000036A032F80A20C8607068C3F3170308F10108EE
S315000036B04B600861002ABAD0B8F1200FB7D0574640
S315000036C0CDE9065488E7C2461046D8E70A043FF516
S315000036D03AAF4B047FF573AF672013F011FD064632
S315000036E06DE730460BB0BDE8F04F01F001BA4FF67A
S315000036F0FF724FF4702130460BB0BDE8F04F03F077
S3150000370029BD029B01355B8CC3F30513AB423FF623
S31500003710D9AE1FE7BA46DDE90654B0E7F0B508466C
S3150000372085B00D46FFF7C8F904462846FFF7C2F9EB
S31500003730631E0446292B4BD8DFE813F09B004A0092
S31500003740A6004A004A004A004A0010013101AC00B6
S315000037504A004A00C300E70008014A004A004C003C
S3150000376052004A004C004A004A004C004A004A00F7
S315000037704A004A004A004A004A004A004A005C00E1
S315000037804A0080004A004A004A004A002A008B008C
S315000037900922002103F03CFB0A22054600212046AF
S315000037A003F036FB80B208B9EDB215B1204600F041
S315000037B0BDFE204604F00AFA064648B10025A36875
S315000037C01B6853F82500013500F0B0FEAE42F6D175
S315000037D005B0F0BD284605B0BDE8F040FFF78CBB4C
S315000037E0002100F04FFD0146284605B0BDE8F04037
S315000037F0FFF7B2B90122002103F00AFB04220021DF
S315000038000646204603F004FB09220021074620460F
S3150000381003F0FEFA0A2200210546204603F0F8FAD4
S3150000382080B248B9EDB23DB942F2D17336B29E428A
S3150000383002D03FB29F42CBD1204605E090F822301D
S3150000384043F0020380F8223005B0BDE8F04000F0F6
S315000038506DBE04F0BBF906460028B9D00025A36862
S315000038601B6853F82500013500F060FEAE42F6D124
S31500003870AEE7038C43F020018B42A9D0204605B069
S31500003880BDE8F040FFF7F6BD018C8F06A0D521F00C
S315000038902001F3E7018C4B0600F18880204601F0F9
S315000038A0C1FF022894D16946204602AA02F0BEFC56
S315000038B06946204601F0FEF8204602A901F0FAF812
S315000038C086E7C3691E077DD403F40163B3F5016F70
S315000038D07FF47EAF00F0F0FA00287FF479AF20463F
S315000038E002F02EF80646204602F09EF803462846C9
S315000038F01D46FFF7E5F890F90030113B032B3FF624
S3150000390067AFDFE803F0907CBA9DC369590566D4BA
S31500003910A06800B18068FFF7C5FA0646FFF7C8FA47
S31500003920002800F0CD80FFF7C9FA022848D0042805
S315000039300CBF06210221238C1943002E00F0B38010
S3150000394041F008018B423FF443AF97E7018C11F039
S315000039500E0F3FF43DAF21F00E018FE7018C8A0672
S3150000396029D42846FFF7C4F8FFF7BAFA00287FF4EF
S315000039702FAFE3691B077FF52BAF238C13F0010FE5
S3150000398034D143F0010102D12046FFF773FD002236
S315000039901C21204605B0BDE8F040FFF769B8038C4E
S315000039A043F040018B423FF413AF67E721F040013B
S315000039B0FFF760FD72E721F02001FFF75BFDD0E71E
S315000039C00621B8E72846FFF77BF890F90020A2F118
S315000039D01103032B78D8DFE803F00C060C0601214F
S315000039E002F006FC94E7238CDA07D0D523F0010118
S315000039F0CAE7238CD80743F00101C8D4C4E72046A0
S31500003A0001F026FF0546204600F01CFE031EB8BF47
S31500003A10033305EBA3010022204609B205B0BDE839
S31500003A20F04002F0F9B9204601F012FF05462046A3
S31500003A3000F008FE031E00DA0333A5EBA301EAE754
S31500003A40204601F0F7FE8007EDD0002E01DC002DA8
S31500003A50E9DD204601F0F6FE0546204600F0ECFDC5
S31500003A60031EB8BF0333A5EBA3010022204609B20B
S31500003A7005B0BDE8F04002F0B7B9204601F0DAFE25
S31500003A808707BCD0002E01DC002DB8DD204601F0F2
S31500003A90D9FE0546204600F0CFFD031EB8BF03330E
S31500003AA005EBA301E1E78B4203D02046FFF7E2FCDA
S31500003AB0218C0A077FF58CAE21F0080189B2DDE67C
S31500003AC02846FFF715F82EE70A2A3FF481AE5EE78F
S31500003AD010B5174C82B0237803BB11F0D1FF13F059
S31500003AE00FFC11F041FC10F0B7FEFFF727F905F0C7
S31500003AF0C5FB03F081F94FF4B4710E4811F034FEA2
S31500003B005C210D4811F030FE04F09CF808F086F9AF
S31500003B1010F01CFA0123237002B010BD074C662278
S31500003B200220074B0749009411F0C8FE02B010BDF1
S31500003B308CBC002008C00020FCBF002088AE01001D
S31500003B40C8CA010040AE0100014610B5034800F0A6
S31500003B50C1F8044600F044F9204610BDD0CA010061
S31500003B6070B50D4684B0044600F0C6FCEA0606466B
S31500003B7028D4E36923EA0503E361EB0711D4204661
S31500003B8000F0BAFCB04202D115F0C07F07D0204643
S31500003B9004F008F804B0BDE8704000F0C7BC04B0FB
S31500003BA070BD204600F0A4FF204600F0A5FC0028CA
S31500003BB0E5D0204603F0F6FF00F0B8FC204600F002
S31500003BC0B5FCDCE76946204602AA02F02FFB6946EF
S31500003BD0204600F06FFF204602A900F06BFFC8E701
S31500003BE0C36999430CBF012000207047C36919427D
S31500003BF014BF012000207047008C7047806800B118
S31500003C0080687047836803B1704730B5124A04462E
S31500003C10136885B001331C20136011F03FFFA060CC
S31500003C2058B11C2112F018FAA268138B43F4706382
S31500003C3043F00303138305B030BD0849084D094C12
S31500003C4002914FF4B7720320CDE90045064B0749B0
S31500003C5011F034FEFEE700BF88BC00205CAD010019
S31500003C60A0AE010090AD0100ACCA010040AE01005B
S31500003C702DE9F041056804462E680EB33768CFB1CA
S31500003C80D7F800800760B8F1000F0DD0D8F80030E3
S31500003C9013B10360FFF7ECFFD8F80430C4F80080D6
S31500003CA013B14046214698477B68276013B13846D2
S31500003CB0214698477368266013B1214630469847D7
S31500003CC06B68256023B121462846BDE8F0411847B8
S31500003CD0BDE8F081F0B507460E46054683B050B103
S31500003CE003463B4C01E01B682BB19A6914EA0205B6
S31500003CF0F9D0C2F30F15284611F0D0FE044600286D
S31500003D0063D0294612F0A8F9C4E9007616B3B5685F
S31500003D10002D42D0286888B1696801316960890040
S31500003D2011F0F2FEB2682860D2E9002303F1804365
S31500003D30013B42F82340204603B0F0BD042011F0B9
S31500003D40ADFEB36801222860204619680C605A60EF
S31500003D5003B0F0BD10F014FC054658B3C06808B3B4
S31500003D60696A01316962890011F0CEFE6B6AE8600A
S31500003D7003F18043013B40F8234000252846656156
S31500003D8010F004FC0346013B2383284610F010FC88
S31500003D90431E2046638303B0F0BD3046FFF732FF73
S31500003DA0B568B7E7042011F079FE0123E8600460E6
S31500003DB06B62E2E70749022000913A22064B074967
S31500003DC011F07CFD204611F087FE0024B3E700BF0A
S31500003DD0F0FF0F0004AF0100ECCA0100B8AE01000D
S31500003DE02DE9F041044600F0A1FB002003F00AF89B
S31500003DF0204605F007FA25682E6816B33768D7B14E
S31500003E00D7F800802760B8F1000F0ED0D8F8003040
S31500003E101BB120462360FFF72BFFD8F80430C4F807
S31500003E20008013B14046214698477B68276013B14E
S31500003E303846214698477368266013B121463046B6
S31500003E4098476B68256013B121462846984701209C
S31500003E5002F0D8FF4FF6FF724FF47021204603F0B0
S31500003E6079F9204600F080FCFEF76EFF50B122681B
S31500003E7012B907E012682AB1137E13F00C03F9D0C9
S31500003E80042B14D0204603F08DFE054668B1224669
S31500003E902221FEF7EDFD224628462321FEF7E8FD06
S31500003EA02046BDE8F04100F023BEBDE8F081214682
S31500003EB0FEF7A0FFE6E700BF006810B90BE0006858
S31500003EC040B1037E13F00303F9D0A3F10100B0FA69
S31500003ED080F0400970477047F8B506460D4614460F
S31500003EE003F082FD07468DB1022809D80023E3704E
S31500003EF0A37684F8223084F82A3084F83630F8BD68
S31500003F0068222946304602F083FFA0700B2229461C
S31500003F10304602F07DFFE3782080002B43D1322229
S31500003F202946304602F074FF00B2208420B194F88E
S31500003F302230002B40F0D48035222946304602F04C
S31500003F4067FF00B2E08420B194F82A30002B40F0DD
S31500003F50E980A37E002B40F08F8094F83630002B4A
S31500003F6055D1FC2FCBD8E278A37E12FB07F213FBC8
S31500003F7007F312121B1294F82210E270A37694F83B
S31500003F802A2094F8363011FB07F112FB07F213FBD7
S31500003F9007F3091212121B1284F8221084F82A2041
S31500003FA084F83630F8BD21222946304602F030FF2B
S31500003FB0C0B20228E070B2D920222946304602F06B
S31500003FC027FF29460246304603F0A8FB2622A0809A
S31500003FD02946304602F01CFF18B1437A5A0740F0D2
S31500003FE0BE8023222946304602F012FFE37B60F3AF
S31500003FF00203E3735B0740F0B88027222946304668
S3150000400002F006FFE37B60F3C503E37387E7402214
S315000040102946304602F0FCFE00B2E0850028A0D01A
S3150000402094F83630022B9CD945222946304602F0B8
S31500004030EFFEC0B2022884F8360092D94122294602
S31500004040304602F0E5FE422229462086304602F03E
S31500004050DFFE432229466086304602F0D9FE44221E
S315000040602946A086304602F0D3FE2946024630464F
S3150000407003F054FBA08574E728222946304602F057
S31500004080C7FE206100283FF468AF29222946304642
S3150000409002F0BEFEC0B20228A0767FF65EAF2069AF
S315000040A005F0BEFA022800F083802A22294630460F
S315000040B002F0AEFE29460246304603F02FFB2B22C5
S315000040C029462083304602F0A3FE2C22E0762946BC
S315000040D0304602F09DFE003818BF012020773CE7ED
S315000040E031222946304602F093FEC0B2022884F8F7
S315000040F022007FF621AF33222946304602F088FEA1
S3150000410094F82330302260F34503294684F823309F
S31500004110304602F07DFE29460246304603F0FEFA9E
S31500004120E08309E737222946304602F071FEC0B225
S31500004130022884F82A007FF60CAF3822294630463A
S3150000414002F066FE362229462085304602F060FEE1
S3150000415029460246304603F0E1FAA084F9E6014614
S315000041600A22A01D11F0FCFDD9E620222946304680
S3150000417002F04EFE29460246304603F0CFFA2222CE
S315000041802946E080304602F043FE29460246304684
S3150000419003F0C4FA242229466081304602F038FE34
S315000041A0252220722946304602F032FE207324E78B
S315000041B057222946304602F02BFE552229466061D9
S315000041C0304602F025FE29460246304603F0A6FA9E
S315000041D02083C2E670B51446562206460D4602F006
S315000041E017FEC3B2022BA37600D870BD294630460F
S315000041F003F0FAFB022838D9FC28A37E04D810FB6A
S3150000420003F3C3F30723A376022BEED955222946DF
S31500004210304602F0FDFD29460246304603F07EFA9E
S3150000422058222946A081304602F0F2FD592229463D
S31500004230A082304602F0ECFD5A22608229463046C2
S3150000424002F0E6FDA37F60F30203A37785B9572248
S315000042502946304602F0DCFD03465B2229463046FD
S31500004260236002F0D5FD207770BD0023A37670BDD4
S3150000427068222946304602F0CBFDA37F60F3C503D2
S31500004280A377E4E7F8B5402204460D4602F0C0FDE8
S3150000429006B2F6B9002635222946204602F0B8FDB8
S315000042A007B2002F44D129466922204602F0B0FD0C
S315000042B003466A22294620461CB202F0A9FD00B236
S315000042C0A042B8BF20460028C4BF801906B23046B7
S315000042D0F8BD45222946204602F09AFDC0B20228C2
S315000042E0D8D943222946204602F092FD06EBD6761F
S315000042F001304122294600EB6606204602F088FD81
S31500004300422207B22946204602F082FD002F03B260
S31500004310B8BF7F42002BB8BF5B42B6B2BFB29BB2FA
S31500004320BB422CBFF618F61936B226EAE676B2E795
S3150000433037222946204602F06BFDC0B20228B2D9C8
S3150000434038222946204602F063FD07FA80F0B04283
S31500004350B8BF304606B2A6E738B50D460446482132
S3150000436011F07AFE256038BD30B58568044683B005
S315000043700DB1B5F916500023132120460DF10602A2
S31500004380ADF80630FEF774FBBDF90630AB4204D13A
S31500004390A3688BB1DD8203B030BD204600F0A8FBD8
S315000043A0A268BDF9063042B1D3829D42F3D02046C1
S315000043B000F09EFB03B030BD2B46002BF5D0204607
S315000043C0FFF720FCBDF90630A268EDE7806808B16A
S315000043D0B0F91600704700BF806808B1807E80097A
S315000043E0704700BF2DE9F0430E4683B00021174603
S315000043F06E22044602F00CFD6D2205460021204681
S3150000440002F006FD0FFA85F80FFA80F9B8F1000FF1
S3150000441002D1B9F5807F27D06F220021204602F015
S31500004420F7FC7022ADF804000021204602F0F0FCF3
S31500004430BDF904C003B20CF4C042B2F5005F3AD035
S3150000444003F4C042B2F5005F1BD0A28A9444E28A0C
S31500004450ADF804C01344ADF8063047B94A464146A4
S31500004460304601AB10F074FE03B0BDE8F0834FF4A4
S31500004470803393FBF9F36D420FFA85F80FFA83F94F
S31500004480ECE723F4C042B2F5FA6FDEDC638BE18A17
S315000044900133B2F57A7FA3EB0103C8BFC2F57A7286
S315000044A01BB202FB03F3134A82FB0312DB17C3EBB7
S315000044B062131BB2C9E72CF4C042B2F5FA6FBFDC37
S315000044C0B4F818C0A18A0CF1010CB2F57A7FACEBF6
S315000044D0010CC8BFC2F57A720FFA8CFC02FB0CFC09
S315000044E0044A82FB0C124FEAEC7CCCEB621C0FFAFE
S315000044F08CFCA5E71F85EB5138B50B490546FFF740
S3150000450075FB08B1002038BD0446284603F04AFB77
S315000045100028F7D00A22214602F07AFC80B2003841
S3150000452018BF012038BD00BF0100060090F8222008
S3150000453008B542F0010280F8222003F0F3FA90F861
S31500004540222042F0040280F8222003F0F3FA4068A9
S3150000455018B1BDE8084013F02FB808BDF0B5144EE9
S315000045600C463168134F013185B005463160386815
S31500004570C90011F0C9FA386058B10346306800F135
S315000045800052013A43F8325003EBC2035C6005B0B7
S31500004590F0BD0949094D0A4C029140F24712032029
S315000045A0CDE90045074B084911F088F9FEE700BF41
S315000045B090BC0020BCBF00205CAD01008CAF0100A8
S315000045C090AD010004CB010040AF010070B5044678
S315000045D082B0154600221E4603F04CFA002307213E
S315000045E0204601AA02F0B0FF012815D020B900220A
S315000045F02946204603F032FA00230821204601AA64
S3150000460002F0A2FF01280BD020B900223146204635
S3150000461003F02AFA02B070BD019BAB42E7D1EBE78B
S31500004620019BB342F1D102B070BD00BF42698369FC
S315000046300A604B60704700BF038B828A581C801A41
S3150000464000B27047438BC28A581C801A00B270476A
S3150000465070B512220021054602F0DAFB1322044649
S315000046600021284602F0D4FB0646322200212846C5
S3150000467002F0CEFB34442A8BC4F10104AB8AA4EBCE
S3150000468040001044C01A00B270BD00BF70B51022C1
S315000046900021054602F0BCFB1122044600212846F3
S315000046A002F0B6FB064632220021284602F0B0FB95
S315000046B034446A8BC4F10104EB8AA4EB4000104435
S315000046C0C01A00B270BD00BF38B532220C460021B8
S315000046D0054602F09DFBAB696969424212B263600E
S315000046E020462160114610F03BFA1222002128468E
S315000046F002F08EFB238813221844002120802846CE
S3150000470002F086FBA38810221B1A0021A3802846EC
S3150000471002F07EFB63881122034463800021284651
S3150000472002F076FBE3881B1AE38038BD00B5064B22
S3150000473083B02C2101AA0193FEF79AF9BDF9040072
S3150000474003B05DF804FB00BF000001E04EF2010378
S3150000475000B583B02C2101AA0193FEF789F9BDF9B2
S31500004760060003B05DF804FB38B5012200210446BB
S3150000477002F04EFB042205460021204602F048FBCB
S3150000478042F2D1732DB29D4204D000B2984201D0BC
S31500004790002038BD94F82230204643F0010384F807
S315000047A0223003F0BFF990F8222042F0040280F88C
S315000047B0222003F0BFF9406808B112F0FDFE012087
S315000047C038BD00BF2DE9F04F85B082460E4614462F
S315000047D002910392009303F0F9F998B300251FFAAA
S315000047E086F91FFA84F80190DAF808301B6853F846
S315000047F02540009B2BB14FF480212046FFF7F0F9AE
S31500004800E0B9DDE9021200200646B4F814B0B4F8A7
S3150000481018C0B4F816E0678BCB44CC440346C644B4
S3150000482047446BF30F006CF30F066EF31F4067F3FC
S315000048301F466061A6612046FFF7C4FF019B013554
S31500004840AB42D1D105B0BDE8F08F00BF90B32DE9E2
S31500004850F0410E4615461F460446FFF7BDFD80464D
S31500004860A7B9022809D07DB1204603F09BF904467A
S3150000487050B1FFF7B1FD0228F6D10022314620469D
S31500004880FFF7B0FD002DEFD1BDE8F0814DB9B8F1CD
S31500004890020FF9D131462046BDE8F0410122FFF76B
S315000048A0A1BD204603F07EF9012331461A46FFF7E3
S315000048B0CDFFECE7704700BF2DE9F04F0C460546EB
S315000048C016461F46B4F900C085B0ADF800C0ADF875
S315000048D004C0B4F902C06946ADF802C0ADF80AC01A
S315000048E0B4F906C0ADF806C0ADF80EC0B4F904C000
S315000048F0ADF808C0ADF80CC0FFF7A8FF3B4632463E
S31500004900284601A9FFF7A2FF3B463246284602A9E0
S31500004910FFF79CFF3B463246284603A9FFF796FF62
S31500004920BDF90C50BDF90800BDF90E30BDF90A10ED
S315000049308542A846A8BF80468542B8BF05468B4239
S315000049401E46A8BF0E468B42B8BF0B46BDF904B043
S31500004950BDF906A0D845A8BFD8465D45B8BF5D4697
S315000049605645A8BF56465345B8BF53460027BDF91E
S315000049700090BDF902E0C845A8BFC8464D45B8BF7E
S315000049804D467645A8BF7646BC467345B8BF7346C6
S31500004990052268F30F0765F30F0C63F31F4C66F3EC
S315000049A01F47114620462760C4F804C010F0D8F807
S315000049B005B0BDE8F08F00BFF0B50E4683B001210B
S315000049C00446FFF70DF910B1002003B0F0BD2046F4
S315000049D003F0A8F8054603F0ADF80746FDF7D4FE48
S315000049E085420ED03846FDF7EBFE854209D03846A3
S315000049F0FDF702FF854204D03846FDF719FF8542D0
S31500004A00E2D14FF400212046FFF7F0F80546E8B959
S31500004A102046FFF7DBFC2B46A28A80B2121A62F30D
S31500004A200F05228B3146024462F30F03E28A121A03
S31500004A3062F31F450095658B6A46284460F31F4361
S31500004A403046019310F0C6F80028BDD0204600235A
S31500004A5001223146FFF730FF204603F0A3F8044653
S31500004A6028B36D4601212046FFF7BAF80028ABD1DE
S31500004A704FF400212046FFF7B9F804F1140203466B
S31500004A8078B992E80300012285E80300294620460A
S31500004A90FFF712FF2A463146304610F09BF80028F1
S31500004AA092D0204603F07EF804460028DAD1012091
S31500004AB003B0F0BD30B583B00C46054603F03AF8B6
S31500004AC0FDF7DAFE08B903B030BD636822686946AF
S31500004AD02846CDE90023FFF76FFF0028F3D02846CC
S31500004AE003F028F8694603F03BFF03B030BD00BF72
S31500004AF030B583B00446FFF769FC00221546218BCA
S31500004B0083B2194461F30F05618BB4F814C01944DC
S31500004B1061F31F45E18AACEB030C6CF30F02CB1A71
S31500004B2063F31F4220466946CDE90025FFF7C2FF21
S31500004B3003B030BD2DE9F0474768044686B08EB213
S31500004B4095B237B312220021384602F061F90021EE
S31500004B5010228146384602F05BF94FF480218046E8
S31500004B602046FFF73DF8002800F0A180FB8AA84404
S31500004B709844BB8A4E441E441FFA88F8B6B23222C5
S31500004B800021384602F044F980B206444044B6B2E9
S31500004B9085B2A38AF61AE38A1FFA86F8ED1A1FFA77
S31500004BA085FA58EA0A0336B22DB27BD02046FFF7C3
S31500004BB00DFCB4F9163080B21B1AADF81230B4F9F8
S31500004BC0183004A90344ADF81430B4F91A3003447C
S31500004BD0ADF81630A38A1B1A2046ADF81030FFF741
S31500004BE069FFA369B4F9142001936369B4F9180045
S31500004BF00093B4F91A10B4F91630002F55D0384680
S31500004C0002A9FFF761FD0022684602A910F008FA22
S31500004C108146002863D0B4F91420B4F91630B4F9EB
S31500004C201800B4F91A104244534480448A44A282BC
S31500004C30E3822A46314600232046A4F81880A4F8C9
S31500004C401AA0FFF7BFFD27B1224622213846FDF7FD
S31500004C500FFF2046FFF7BAFBB4F9162083B2D21A2B
S31500004C60ADF81220B4F9182020461A44ADF81420E5
S31500004C70B4F91A2004A91A44ADF81620A28AD31A48
S31500004C80ADF81030FFF716FF67B1002202A904F154
S31500004C90140010F0C5F9B9F1000F00D110B1384673
S31500004CA001F0C2FE06B0BDE8F087B946BBE7B7F92A
S31500004CB01430384603FA89F900F0C4FDB7F9163006
S31500004CC0A9EB0009384603FA88F800F0C1FDA8EB05
S31500004CD000084E44A844B6B21FFA88F84FE7384693
S31500004CE001F0A2FE97E700BF2DE9F04F87B004461A
S31500004CF002F058FF072200210746204602F088F8F6
S31500004D00082280460021204602F082F80FFA88FA2F
S31500004D1006B2002F00F03B8105463846FFF798FCA7
S31500004D2001903846FFF7B2FC08F4C048B8F5005FBA
S31500004D30029000F09F8005F4C045B5F5005F00F0D5
S31500004D4083806B220021204602F062F880466C22A6
S31500004D500021204602F05CF8238B08F4C0420133A0
S31500004D60B4F814900FFA88F5B4F81A801FFA83FB8A
S31500004D7008F10108E38AABEB090109B21FFA88F8CA
S31500004D800491A8EB030109B2B2F5005F059101B2E7
S31500004D9045D000F4C040B0F5005F2BD055440E441A
S31500004DA000930021ABB209222046039302F030F8AB
S31500004DB010F0FF011FFA86FA009B2DB236B20AD018
S31500004DC001290FD0881E07280CD8DFE800F0926A68
S31500004DD08BCDBFB39F723846162202F019F8C0B2C7
S31500004DE001285ED032462946204607B0BDE8F04F7E
S31500004DF0FFF7A0BE21F4C042B2F5FA6FCEDC0599EA
S31500004E00B2F57A7FC8BFC2F57A7201FB02F2644935
S31500004E1081FB0201D217C2EB611211B2BEE725F483
S31500004E20C042B2F5FA6FB4DC049DB2F57A7FC8BF12
S31500004E30C2F57A7205FB02F2594D85FB025CD21768
S31500004E40C2EB6C1215B2A4E726F4C043B3F5FA6FB1
S31500004E503FF777AF029AB3F57A7FC8BFC3F57A7387
S31500004E6002FB03F34E4A82FB0312DB17C3EB62130A
S31500004E701EB266E72AF4C043B3F5FA6F3FF75BAF9D
S31500004E80019AB3F57A7FC8BFC3F57A7302FB03F3C1
S31500004E90434A82FB0312DB17C3EB62130FFA83FA52
S31500004EA049E7019BA9EB0B051D44039B2B441DB24F
S31500004EB098E7049B019903EBD37201EBD171521071
S31500004EC0C2EB61020399059B1144029A03EBD3736B
S31500004ED002EBD2725B10C3EB62039A440DB20FFA77
S31500004EE08AF67FE7029AA3EB0803134453441EB2E3
S31500004EF078E7049B03EBD375019B6D1003EBD3732B
S31500004F00C5EB6305039B2B441DB26BE7019AA9EB26
S31500004F100B031344039A1A441346059A1DB202EB77
S31500004F20D276029A761002EBD272C6EB620656442D
S31500004F3036B257E7059B03EBD376029B761003EB5D
S31500004F40D373C6EB6306564436B24BE7019AA9EB18
S31500004F500B051544029AA3EB08031344039A534422
S31500004F602A4415B21EB23DE7029AA3EB0803134486
S31500004F70049A534402EBD275019A6D1002EBD27279
S31500004F80C5EB6205039A1EB22A4415B22AE73246D9
S31500004F905146204607B0BDE8F04FFFF7CBBD00BF36
S31500004FA01F85EB5101F4C04CBCF5005F00B5864689
S31500004FB00DD002F4C04CBCF5005F21D07245A8BFED
S31500004FC072468A42B8BF0A4610465DF804FB21F4D1
S31500004FD0C04CBCF5FA6FECDCBCF57A7FC8BFCCF5EB
S31500004FE07A7C0CFB03FC104981FB0C014FEAEC7C3C
S31500004FF0CCEB611102F4C04CBCF5005F09B2DDD107
S3150000500022F4C040B0F5FA6FD8DCB0F57A7FC8BF9D
S31500005010C0F57A7000FB03F3034A82FB0302DB1739
S31500005020C3EB62131AB2C9E71F85EB5190F8233020
S3150000503003F00C030C2B00F0B3802DE9F04F8FB07A
S31500005040044602F0AFFD0190002800F0A58020463E
S3150000505000F076FC94F82310814611F0080100F068
S31500005060A180258BA38A20460135ED1A00F0F6FBB8
S3150000507094F82370804617F004072DB200F0EF80F5
S31500005080B4F81AB0E38A0BF1010BABEB030B1FFA72
S315000050908BFB238BA28A01339B1A1BB29D427BD0CA
S315000050A02046FFF793F9B4F9163080B21B1AADF813
S315000050B03230B4F918300CA90344ADF83430B4F9E1
S315000050C01A3004F114080344ADF83630A38A1B1ACB
S315000050D02046ADF83030FFF7EDFCA369019809933F
S315000050E063690AA90893FFF7EFFA00220AA908A83C
S315000050F00FF096FF0746002800F0E180E38A1622AB
S31500005100013B5B4400212046638301F081FEC0B26F
S315000051100128ADB200F0CE80A38A013B1D44258351
S31500005120292108AA2046FDF7A3FC22462221019840
S31500005130FDF79EFC2046FFF749F9B4F9162083B225
S31500005140D21AADF83220B4F9182020461A44ADF828
S315000051503420B4F91A200CA91A44ADF83620A28AD4
S31500005160D31AADF83030FFF7A5FC94F822300022B0
S3150000517043F0020340460AA984F822300FF050FF9C
S3150000518007B910B1019801F04FFC2046FFF7ECF883
S3150000519001200FB0BDE8F08F00200FB0BDE8F08F02
S315000051A0002070470122204601F032FE07B200F4CB
S315000051B0C040B0F5005F019800F08580FFF748FA1F
S315000051C042F2D1739F42804600F03C813D46022266
S315000051D00021204601F01CFE032200210FFA80FA6E
S315000051E0204601F015FE024643465146284612B2B5
S315000051F0FFF7D8FE0546204600F030FB94F8233032
S31500005200804613F0040F42F2D17324D0B4F81AA0EA
S31500005210E28A0AF1010AAAEB020A9F421FFA8AFBF6
S315000052200FFA8AFA7FF435AF4246494600232046F4
S3150000523000F00AFE238BA28A01339B1A1BB29D4201
S3150000524006D1638BE28A01339B1A1BB25345A3D066
S315000052501FFA8AFB24E7FF1AB7FA87F77F090422A9
S315000052600021204601F0D4FD00F4C043B3F5005FF1
S315000052700FFA80FA01984BD0FFF708FA42F2D17381
S315000052809A45029069D005220021204601F0C0FD12
S31500005290062200210FFA80FB204601F0B9FD0246E6
S315000052A059465046029B12B2FFF77CFE8246002FFB
S315000052B0BAD1BFE7238B01335B1BA38230E701988A
S315000052C001F0B2FB1AE727F4C045B5F5FA6F3FF7D0
S315000052D075AF42F2D17BFFF7BBF95F45804600F020
S315000052E0B180019B93F8231011F0080A00F0748135
S315000052F02B46B5F57A7FC8BFC5F57A7303FB08F36D
S31500005300C64A82FB0312DB17C3EB62152DB25EE7BA
S315000053102AF4C04BBBF5FA6FAEDCFFF7B7F942F2E1
S31500005320D1739A45029018D0019A92F8231011F081
S31500005330040A00F02A81029BBBF57A7FC8BFCBF531
S315000053407A7B0BFB03FBB54B83FB0B234FEAEB7B13
S31500005350CBEB631B0FFA8BFA95E70022204611462A
S3150000536000F05AFD32220021204601F051FD1022A4
S3150000537000210746204601F04BFDBFB23B189EB206
S3150000538011221BB2002120460696079301F040FD2C
S315000053904EF2010307442C21BFB20CAA20460C93FF
S315000053A00597FDF765FBBDF93220F3191344204636
S315000053B01EB202F00BFC8246002800F0D1800027C6
S315000053C00395DFF864B23D4604960EE0B7F91A205D
S315000053D0B4F91610521A01325A45B8BF5A460FFA96
S315000053E082FB0135AA4500F0AF80A2688C4912689D
S315000053F052F825703846FEF7F9FB0028F1D13846F9
S31500005400FFF77AF806460028E0D1092238463146E9
S3150000541001F0FEFC10F0FC0FD8D0314608223846C9
S3150000542001F0F6FC00B20028DBD17A8BF98A079BE3
S315000054300132521A03FA82F1069B92B28B451A4444
S31500005440CFDCCCE700222046114600F0CDFC32220C
S315000054500021204601F0DCFC1322002105462046EF
S3150000546001F0D6FCADB2284486B2122200212046B5
S31500005470039601F0CDFC6B4B05442C210CAAADB272
S31500005480204602950C93FDF7F3FABDF930307519F5
S3150000549020461D4402F09AFB1622002106462046AD
S315000054A001F0B6FCC0B201282DB200F0CF80002E6C
S315000054B03FF48DAE4FF0000B5B4ABDF90830B246A3
S315000054C0CDE904535D4693460EE0B6F91820B4F9CB
S315000054D01410521A01325A45B8BF5A460FFA82FBC7
S315000054E00135AA4500F0A280A2684D49126852F81B
S315000054F025603046FEF77AFB0028F1D13046FEF7EC
