S01100006C76676C5F64656D6F2E737265635A
S31500000000A040002085010000790500008101000064
S3150000001081010000810100008101000081010000D2
S315000000200000000000000000000000008101000048
S31500000030810100000000000081200000FD2000007A
S31500000040B51C0000791D0000611E0000690A000051
S31500000050910C0000FD1000007D12000085130000C9
S309000000605D14000025
S31500000064F0F0F0F0000010080000000000000000AE
S31500000074000000000101000000000080D4C3B2A10A
S3150000008470000000C5A3010091A3010051A3010063
S3150000009409A3010015A20100DDA101004000002012
S315000000A400000000E48001204C810120B48101207D
S315000000B40000000000000000000000000000000036
S315000000C40000000000000000000000000000000026
S315000000D40000000000000000000000000000000016
S311000000E40000000000000000000000000A
S315000000F00348044B834202D0034B03B118477047B1
S315000001008C0000208C00002000000000064B0749F0
S31500000110C91A891048BF0131491003D0044B0BB1ED
S3150000012001481847704700BF8C0000208C00002053
S315000001300000000010B5064C237843B9FFF7D8FF3E
S31500000140044B13B10448AFF300800123237010BDA4
S31500000150C04000200000000084A2000108B5054B45
S315000001601BB105490548AFF30080BDE80840FFF71D
S31500000170CDBF00BF00000000C440002084A20001E3
S3150000018000BE704708B500F035F802F04DFEFEE7F8
S31500000190F8B5174F05463E68A6B17C6806EB4606DD
S315000001A004EB860602E00C34B4420BD0637AAB4211
S315000001B0F9D1D4E900020021121A0C341CF05DFDBD
S315000001C0B442F3D1BE6896B1FC6804EB061602E0B1
S315000001D01034A6420BD0637BAB42F9D1D4E90002BE
S315000001E0A168121A10341CF0ADFDA642F3D1F8BD79
S315000001F07CCD01004FF47001274B284A70B50020D2
S31500000200C3F888109A601BF0CFFB00F069F8012054
S315000002101BF0CAFB224B83F30A880020FFF7B8FFC6
S3150000022000F048F800F002F9032000F03DFA002340
S315000002304FF6FF701B4903F1080201330C2B21F81E
S315000002401200F8D10024032000F0FEF9032000F08C
S315000002502BFA154B03205C609C60DC601C6100F08F
S31500000260F3F902201BF0A0FB0120FFF791FF0F4DD1
S315000002700F4B5B1BA3424FEAA30605DD55F8043B73
S3150000028001349847A642F9DC00F094F9BDE87040C5
S31500000290002000F023B900BF00ED00E000000000E0
S315000002A0A0000020000D084000000E405409020086
S315000002B058090200064B074993F826001A6A51F8B6
S315000002C02030C2F302620449D3400B60704700BF7E
S315000002D000E00140A0400020DC400020704700BF45
S315000002E0F8B54AF2035001234549464AA1F8FE03F0
S315000002F0A2F80431B2F804319BB2002BFAD10120E6
S315000003004FF400454FF0090C3F4CDFF818E13F4E23
S31500000310C4F804E0DFF810E13949C4F80CE03C4FBA
S31500000320A2F800013B4AB06030606261276091F834
S315000003302620A5602561086A54F82220364EC0F3AF
S315000003400260C240326081F8133481F8A2C091F88D
S3150000035080341BB991F8813499074CD0284D95F813
S315000003608034002B3CD00022254B83F8812483F86F
S3150000037080240023224981F8323091F83C301A0754
S31500000380FBD543F2021000231D4A088581F82A3066
S3150000039092F83C309B06FBD50320052319494FF004
S315000003A0F10C81F81C011D49116282F8263092F881
S315000003B02630156A54F82300C5F302640123E04091
S315000003C03060F0244FF42540154981F80CC00B72BB
S315000003D00C7382F8303082F85230A2F8FE03F8BD72
S315000003E00121C82085F8801400F080F895F8803443
S315000003F0012BFBD1B7E74FF47A70FFF76FFFB8E731
S3150000040000E0014000C00140A04000200070004014
S31500000410002D310100C2EB0BDC400020211201202F
S315000004200020004000127A0000366E0138B5002523
S31500000430284C0121C82084F8285000F057F884F889
S31500000440245094F82430002BFBD194F82430214911
S3150000045043F0020384F8243091F82430C3F34000BB
S315000004609B07F9D41B4A81F8220092F8223003F048
S31500000470FF00002BF9D192F84030164960F3C713FC
S3150000048082F8403091F84030DB09FBD191F8420008
S31500000490104A63F3C71081F8420092F84230DB0934
S315000004A0FBD192F844000B4963F3C71082F844006D
S315000004B091F84430C3F3C014DB09F9D1012000F0F0
S315000004C0F3F8054B012083F8BB44BDE8384000F043
S315000004D0BBB800BF0030084000E00140704700BFD5
S315000004E0A0F101000028FBD1704700BF1F4B204A36
S315000004F01B6800FB01F1934213D302F1854202F51A
S31500000500071203F5741302F6834203F6FF03A2FBF8
S3150000051003231B0DA3FB01314FF0FF30F9B1FFF7A9
S31500000520DFBF4FF47A7210B4A1FB02C41148B0FBCE
S31500000530F3F34FF0FF3044B9BCFBF3FC4FEA9C00E9
S3150000054088B15DF8044BFFF7CBBF9B00B1FBF3F11D
S31500000550A1FB0212002AF4D1084620B1F1E71846A1
S31500000560002BDCD170475DF8044B7047DC4000205F
S3150000057000127A0000CA9A3B70B500240B4B0C4E51
S31500000580B3F82021B3F84051ADB2154025FA04F373
S31500000590DB0704D556F82430E0B203B1984701349E
S315000005A0102CF3D1014BA3F8305170BD0060004010
S315000005B0E040002030B5032085B000F075F8002536
S315000005C06FF0FF014FF0FF301B4B1C4C9964224625
S315000005D02B464FF0010ECDE90100039032F8021FC1
S315000005E00EFA03FC013311B1012520EA0C00092B98
S315000005F0F4D1F5B10190124B0F4A1067C3F880028F
S31500000600029903205167C3F8841203999167C3F8CE
S31500000610881200F019F800230A4834F8022F03F173
S31500000620C00101330AB140F82120092BF5D105B0EC
S3150000063030BD4FF0FF30DEE7008000409ED0010065
S3150000064000E100E000600040EFF31081012383F336
S315000006501088124B33F8102092B22AB133F81020CA
S31500000660013A92B223F8102033F810309BB293B9B6
S315000006700B4A10B4B2F8FE330A4C9BB234F81000A1
S3150000068043F4254323EA0003A2F8FE3381F31088DE
S315000006905DF8044B704781F310887047484100208D
S315000006A000E0014070CD010030B4EFF3108101236A
S315000006B083F310880E4A32F810309BB26BB90D4C9A
S315000006C00D4DB4F8FE3335F810C09BB243EA0C0367
S315000006D043F425439BB2A4F8FE3332F810300133BD
S315000006E09BB222F8103081F3108830BC704700BFEF
S315000006F04841002000E0014070CD01000346090199
S315000007009B6841F00101C9B200205977704700BFCC
S315000007100023826818465377704700BF03460122BC
S315000007209B6800201A777047024610B44FF4803455
S3150000073092680C60148A4FF6FF7314F4404F18BF8A
S315000007404FF48063D46800204C6092685DF8044BD7
S3150000075092B2C1E902327047062070470346002074
S31500000760D9605A61704700BF30B400244268124D08
S315000007705268034611788068A03145F82140D16857
S315000007800477A9B14FF0010C92F901100B4D4809FD
S3150000079001F01F0120300CFA01F145F82010BFF3DB
S315000007A04F8FBFF36F8F064992F9012041F822401F
S315000007B0002030BC186070470060004000E100E097
S315000007C02441002091F803C02DE9F0470024674634
S315000007D0436891F802905E6883683278B6F80A80BA
S315000007E0920002F1804202F5C042C9F3810EC2F8BE
S315000007F08042CCF3810A1C774FEA8E1EC2F88082B3
S315000008005C774FEA9C12CD894EEA8A3E07F0C00A11
S315000008109203CCF3011CBAF1800FADB242EA0C226E
S315000008205FD0BAF1400F5CD0BAF1C00F00F09780EC
S3150000083042F40052B8F1000F01D042F00102D0F8A4
S315000008400CC0BCF1000F33D019F0200F54D14FF07B
S31500000850100C96F90170B37807F160481B01DFF8B8
S315000008601091DBB208F5614888F800333F4B07F179
S31500000870C00849F8270053F8289029F4803943F82E
S31500000880289053F82830BFF35F8F4FF001087B099B
S315000008909B0007F01F0703F1604303F5614308FA65
S315000008A007F7C3F880711F60CF78836807F0C00A26
S315000008B0BAF1C00F28D00020074692B21FFA8EFE6A
S315000008C09F62D862A3F814E01A82486872681860BA
S315000008D0896859609D60DC609A6183F813C0BDE841
S315000008E0F0878C8905EB0545C9F3001C25F0FC252E
S315000008F0A4B242EA0C329DE7BAF1C00F14BF4FF022
S315000009001C0C4FF0100CA4E7888907F00C07042F85
S3150000091080B208BF074691F80290B1F80E8009F040
S315000009200C0918BF37891FFA88F808BF4EF4005E15
S31500000930B9F1040F1CBF10FB08F81FFA88F0D1F8B4
S31500000940048008BF4EF0200EC3F82080D1F808803E
S3150000095007EB074700EB0040C3F82480ADE78C891E
S3150000096005EB054525F0FC25A4B263E700600040D1
S315000009702441002038B500254A68416013780446B2
S3150000098003F1012340339B018360D368C36053693D
S31500000990C0E90453EFF3108E4FF0010C8CF310886E
S315000009A0084B1A6822F480021A601B688EF31088BE
S315000009B0054B096883F800C0FFF704FF034B284680
S315000009C0236038BD004008400052004043414D447A
S315000009D010B50446FFF7F6FE0122A36800201A7739
S315000009E010BD00BF0346002210B4D3E9014164687C
S315000009F01046237864899B0003F1804303F5C043C6
S31500000A00C3F880220A77C3F880425DF8044B4A7720
S31500000A10704700BF10B4002483B001910092D0E962
S31500000A200121506802784089920002F1804202F565
S31500000A30C042C2F880420C77C2F880024C77019A15
S31500000A400AB1019A0A60009A0AB1009A4A600A8AB3
S31500000A50002012F4404F14BFCB608B6001230B774C
S31500000A6003B05DF8044B704710B582B0EFF3038313
S31500000A70103B0D4A5BB203F1C00152F8210020F48D
S31500000A80803042F8210052F82120084A01A852F885
S31500000A9023406269E36801929847A368DA680AB15D
S31500000AA001221A7702B010BD0060004024410020E8
S31500000AB003460020D3E902235360704770B583696B
S31500000AC084B004468C46164601AD9BB193E80700F8
S31500000AD085E8070083F804C0E26918469E601A603C
S31500000AE063699847A3691BB195E8070083E8070087
S31500000AF004B070BD2B46EDE7002800DA704710B44D
S31500000B0000F160430901124CC9B203F5614383F851
S31500000B100013104B00F1C00144F8202053F82120A7
S31500000B2022F4803243F8212053F82130BFF35F8F3F
S31500000B30012243099B0000F01F0003F1604303F507
S31500000B4061438240C3F880211A605DF8044B704708
S31500000B5024410020006000404FF0010C2DE9F041D7
S31500000B6000270A7C474B0D4613440CFA02F21B027F
S31500000B7012F00F0F83600CBF63463B4603744B694C
S31500000B80044643618B69CE69C0E90673C260416061
S31500000B90EFF310808CF310884FF000412A7C3A4B1B
S31500000BA0D1401A6922EA01021A611B6980F3108892
S31500000BB04FF42542D6E9068EA3684FF0000C1A6062
S31500000BC0DF62DF639F6428782A7A03284FF00040AB
S31500000BD04FEAC25208BF42F480326968DA6262683C
S31500000BE00139D769B26B186158619861C3F824C09E
S31500000BF0C3F828C0C3F81C80C3F820E0996659667C
S31500000C0097F83010C80702D5B86A0138D864890742
S31500000C1002D5F96A0139196500219963C3F888106C
S31500000C2032B996F8212096F82010520742EA41324E
S31500000C3096F830100327002914BF4FF4A0014FF493
S31500000C40AA0101201964E1685A631F631863D96019
S31500000C502246697C95F91200FFF74EFF224696F868
S31500000C60221096F92400FFF747FF96F92500224641
S31500000C7096F82310FFF740FF044B00202360BDE8E1
S31500000C80F08100BF901640000040084054504700D5
S31500000C90F0B5EFF30382103A1F4C4FFA82FC0CF1C9
S31500000CA0C00E54F82E104FEA8C0321F4803103F164
S31500000CB0804344F82E1003F5C043D3F800131749B8
S31500000CC051F82C0041680978012908D043692BB1F5
S31500000CD0BDE8F04000221146FFF7F0BEF0BD00254A
S31500000CE0D0E90267B760B564F564356554F82E60DF
S31500000CF002F0FF0265F3104644F82E60D3F8003385
S31500000D00BFF35F8F064C4FEA5C1302F01F0291405F
S31500000D10603344F82310D9E70060004024410020E6
S31500000D2000E100E030B5836B83B004460A466D46A9
S31500000D30A3B193E8030085E80300E16B1A71184636
S31500000D40626B19609047A36B1BB195E8030083E8BB
S31500000D500300002384F82B3003B030BD2B46ECE7AC
S31500000D6030B5404B83B01B6A0193019B03F00F2300
S31500000D70019303690199019D1A7C90F82C4094B95E
S31500000D80C1F30321D2B2A1EB15618A40920804D1C6
S31500000D90082003B030BD013AFAD05978C1F3C01427
S31500000DA0C909F8D1DC71002290F82610056880F890
S31500000DB0271080F8282081696C6A80F82B2002624F
S31500000DC080F82D20C16180F82E2080F82F2080F831
S31500000DD03020217894F801E0012914BF4FF0040C6B
S31500000DE04FF0050C6179090141EA4E0194F806E0DD
S31500000DF0E47941EACE114CEA0101C9B2D9701979F8
S31500000E0041F010011971197962F3C3011971197949
S31500000E1062F3041119711A7964F3C7121A715A79B7
S31500000E2042F001025A7195F90F20002A08DB0123CE
S31500000E3002F01F040C495209A34041F8223003690D
S31500000E40BF215A7A02F0F3025A72D97190F82C2017
S31500000E502AB1002380F82C30002003B030BD0222D6
S31500000E605A70F9E700E0014000E100E090F808C0A0
S31500000E70C0E90512BCF1010F80F82A3008D1002222
S31500000E80436880F826C05B0080F8243080F825206F
S31500000E90002380F82930FFF763BF00BF90F808C031
S31500000EA0C0E90512BCF1010F80F82A300AD10022F0
S31500000EB0436880F826C05B0043F0010380F82430C5
S31500000EC080F82520012380F82930FFF749BF00BFAD
S31500000ED02DE9F0434022002403691C701A701A7829
S31500000EE05206FCD5C0260268DFF89491576AD2F8FC
S31500000EF004E01E703E794FF0000C46F0E0061E74CA
S31500000F00FE784FF0B30846F0E0065E74BE78594CA2
S31500000F10360106F0700646F008069E703E787F7829
S31500000F20012E14BF04260526CE4514BF4FF0770EBA
S31500000F304FF0F70E46EA4706F6B2DE7083F805E094
S31500000F4083F806C083F807804E7B91F911304A4D2D
S31500000F5036014A4AE718F6B287F8006303F1C0067D
S31500000F6045F8230052F826706CF3104742F82670B5
S31500000F7052F82660BFF35F8F4FF0010E5E09B60090
S31500000F8003F01F0306F1604606F561460EFA03F309
S31500000F90C6F8803133604E7B91F90F303601E71881
S31500000FA0F6B287F8006303F1C00645F8230052F84D
S31500000FB026706CF3104742F8267052F82660BFF38D
S31500000FC05F8F5E09B60003F01F0306F160460EFA56
S31500000FD003F306F56146C6F8803133604E7B91F91E
S31500000FE010303601E718F6B287F8006303F1C00641
S31500000FF045F8230052F826706CF3104742F8267025
S3150000100052F82660BFF35F8F5E09B60003F01F0338
S3150000101006F160460EFA03F306F56146C6F880311E
S3150000102033604B7B91F90E101B010C44DBB284F844
S31500001030003301F1C00345F8210052F823406CF358
S31500001040104442F8234052F82330BFF35F8F4B0918
S315000010509B0001F01F0103F160430EFA01F103F555
S315000010606143C3F8801119609F2203691A70BDE8B5
S31500001070F08300BF00E100E0244100200060004052
S3150000108040420F0070B500250A78016002F5800223
S3150000109002F51F62120202618A68044642600A7BF8
S315000010A00272CA6942630A6A80F82950C26380F8EC
S315000010B02A50856380F82B504561C0E906550562C4
S315000010C080F82C50EFF3108C012282F310880B78F5
S315000010D0C3F109039A40074B5E6826EA02025A608A
S315000010E05B688CF31088FFF7F3FE034B2846E3603A
S315000010F070BD00BF004008404349495210B582B058
S31500001100EFF30383103B5A4A5BB2C03352F8231005
S3150000111021F4803142F8231052F82330EFF3038391
S31500001120544A103B5BB252F8234094F82D304BBB27
S31500001130A369022B20D9E369012B0CD123691A7903
S3150000114042F010021A711A7942F008021A711A79DD
S3150000115022F010021A7123685B6ADB79002B3ED1FC
S3150000116001222369DB7CDBB28DF807309DF807305E
S3150000117084F82D2002B010BD2269137943F0400394
S315000011801371D8E7E369002BF4D02268526AD2794A
S31500001190FAB9032B17D0022B26D0012B32D02269A5
S315000011A0D17C236A6269D154D4E907320132013B0A
S315000011B0C4E90732002BDDD121690A7963F386126F
S315000011C00A7102B010BD2269137943F0400313710E
S315000011D0E6E705212046FFF7A5FDE369D9E70521E6
S315000011E02046FFF79FFDBBE72269137943F0100302
S315000011F01371137943F008031371137923F0100365
S315000012001371CDE794F82A204AB322681A4892F956
S315000012100F20510902F01F0203FA02F2203140F8B2
S315000012202120BFF34F8FBFF36F8F04202269D1793E
S3150000123041F08001D171117941F0100111711179DC
S3150000124021F008011171117921F01001117150700E
S31500001250517921F00101517184F82C30A0E7082161
S315000012602269537A03F0F7035372517098E700BF6F
S31500001270006000402441002000E100E010B5EFF3DB
S315000012800383103B3C4A5BB2C03352F8231021F46F
S31500001290803142F8231052F82330EFF30383374AA4
S315000012A0103B5BB252F8234094F82730002B3BD119
S315000012B094F82930002B36D123685B6ADB792BB191
S315000012C094F82B3013B9236A002B50D1E3692169B6
S315000012D0002B3AD1CB79C02223F08003CB7101E0F9
S315000012E0013A02D0CB79DB09FAD12368224A93F975
S315000012F0103003F1C00052F8204024F4803442F844
S31500001300204052F82020002B09DB01205A091C4CF2
S3150000131003F01F03603200FA03F344F82230CB795E
S3150000132043F04003CB7110BD94F8261094F82820A2
S31500001330032915D094F8240021690132013B8874F1
S3150000134084F8282084F8273010BD226A6069013BA2
S31500001350805C01328874C4E90732002BBAD010BD14
S31500001360022AE7D194F830100029E3D110BD0521F7
S315000013702046FFF7D7FCA9E7006000402441002083
S3150000138000E100E038B5EFF30383314A103B5BB26E
S3150000139052F8234023685B6ADB79002B45D194F829
S315000013A029301BB194F82730012B4BD0E369D3B118
S315000013B02169CA79C02322F04002CA7101E0013BCB
S315000013C002D0CA795206FAD4EFF30383103B214ABE
S315000013D05BB2C03352F8231021F4803142F8231057
S315000013E052F8233038BD94F82A201AB30120226817
S315000013F0194D92F90F20510902F01F02203100FA0F
S3150000140002F245F82120BFF34F8FBFF36F8F21699A
S31500001410CA7942F08002CA7104224A704A7963F39B
S3150000142000024A7184F82C00C3E705212046FFF725
S3150000143079FCB4E7082221694B7A03F0F7034B7273
S315000014404A70B6E794F83030002BAFD1B0E700BF52
S31500001450244100200060004000E100E038B5EFF3D1
S3150000146003834B4A103B5BB252F8230003695A7A56
S31500001470597AD50601F0E00159725FFA82FC02F052
S3150000148003012AD55A7854064CD400240125016854
S3150000149080F82B50DC71FFF71BFDB32290F8263045
S315000014A080F82C4080F82830C46180F82A4003690F
S315000014B0846929460462DA71FFF734FCEFF303838B
S315000014C0103B344A5BB2C03352F8231021F480310A
S315000014D042F8231052F8233038BD0029D5D11CF02C
S315000014E0080F10D0C269002A42D190F82B20002A9A
S315000014F03ED1B32290F82910DA71C1F10301C9B2C5
S31500001500FFF710FCDAE790F82C100CF0040231B368
S31500001510002AD3D0C269002A38D190F82B20002A9D
S3150000152034D1E6E70029B0D15A78C2F380115206C9
S31500001530D5D50822046880F82B10616A88795A701C
S315000015400A78497942EAC01242EA011242F00202DE
S31500001550D2B2DA705A7942F001025A71AEE7002A25
S31500001560ACD003685B6ADB79002BA7D00421C7E700
S315000015700022B32190F8264080F82C2080F82840DD
S315000015808469C261046280F82A20D9710121B7E713
S3150000159024410020006000400120CBB2984080B278
S315000015A002B900040B0A5B0103F1804303F5002333
S315000015B098600020704700BF2DE9F84F0388DBB123
S315000015C082464FF0000B4FF00109DFF8D08000246F
S315000015D0304D4FEACB07DAF8043035F8022BD9192B
S315000015E0898891420AD00134032CF4D1BAF800302C
S315000015F00BF1010B5B45EAD8BDE8F88FDB5909FA18
S3150000160004F603F0B853B3F1807FF6B298F8BB3412
S3150000161013D0334231D1204A04F1200612F8163095
S31500001620DB09E0D012F81630012123F08003C82030
S3150000163002F81630FEF75AFFD5E7334211D0164AA4
S3150000164004F1200112F81130DB09CCD112F8113067
S31500001650C82043F0800302F811300121FEF746FF4F
S31500001660C1E70120FFF720F898F8BB340120334387
S3150000167088F8BB34FEF7E8FFE1E70120FFF714F82E
S3150000168098F8BB34012023EA060388F8BB34FEF73A
S31500001690DBFFC0E780CE01000030084000E00140DB
S315000016A0F8B50446FFF788FFEFF31082012383F3B2
S315000016B01088234F3B681BB92249CB704023CB705F
S315000016C03B6801333B6082F3108823882BB3616843
S315000016D01D4C01EBC30E06E01B01083113448E4579
S315000016E044F8230019D008688A88C5034FEA1223F4
S315000016F0D2B2F1D502EB031C54F82C601B01083161
S3150000170020F4803526F4803613448E4544F82C6048
S3150000171044F82C5044F82300E5D1EFF3108201235E
S3150000172083F310883B6813B13B68013B3B603B6821
S315000017301BB980200349CB70C87082F31088F8BDAE
S3150000174020410020000D08400008084008B5034B62
S3150000175003600846FFF7A4FF002008BD54524F500F
S3150000176070B5012686B001AB03A80C461546049356
S31500001770ADF80C60ADF808100192FFF71DFFEFF30E
S31500001780108286F310881D490B681BB940261C4839
S31500001790C370C6700B6801330B6082F31088EA03CE
S315000017A04FEA1423E4B219D41B01164A234442F823
S315000017B02350EFF31082012383F310880B6813B1D3
S315000017C00B68013B0B600B681BB980200C49CB7082
S315000017D0C87082F31088002006B070BD094A04EB79
S315000017E0031052F820601B0126F4803642F8206070
S315000017F025F4803642F82060D7E700BF204100205C
S31500001800000D08400008084030B5836A85B00446DC
S315000018108C4601ADABB193E8070085E80700626826
S315000018201846117883F804C0E26A19609A60636A00
S315000018309847A36A1BB195E8070083E8070005B03F
S3150000184030BD2B46EBE700BFF8B505461046AA6843
S315000018509DF818C092F800E01EF0400440F0848025
S315000018601F46EB616B6885F820C0C5E905445C69D5
S315000018700E46C5E9031044B36368BCF10F0F19683F
S31500001880AF616BD8BCF1070F94BF4FF0000C4FF05F
S31500001890010C4B884FEA0C3C23F4405323F00C0315
S315000018A04CF0080C4CEA030CBBB2CB81A1F802C089
S315000018B08860002862D0A36820685B689847002883
S315000018C04BD16B6895F820C0AA68186940B3436885
S315000018D0BCF10F0F19686F6143D8BCF1070F94BFB5
S315000018E04FF0000C4FF0010CBBB2CB81CB784FEA26
S315000018F00C1C4CF0080C23F03C034CEA030C4E6025
S3150000190081F803C0002E40D01378846823F02003AA
S31500001910006864681370A047F8B995F820C0AA68F3
S31500001920D17A138ABCF10F0FC9B29BB21ED90CF142
S31500001930010C21F040014FEA9C0CACF1050C41F082
S315000019402001002023F4706343EA0C239BB2D1727A
S315000019501382137843F060031370F8BD4FF0020C46
S3150000196097E74FF0020CBFE70820F8BDBCF1070F60
S3150000197094BF41F0400101F09F01E2E78B7860F3EC
S3150000198083038B70054B8B6095E75FFA8CF366F3E8
S315000019908303CB70024B4B60B6E700BF5841002073
S315000019A05441002010B594461C4682B0002263467E
S315000019B00094FFF749FF02B010BD00BF2DE9F04FBC
S315000019C00B78DFF8E8820F691B020D46044685B0E6
S315000019D0984477B14FF00062796838680B681A60EE
S315000019E0C3F80880BB681B6898470646002840F085
S315000019F00D816B6973B1D3E901124FF400261868A3
S31500001A000B6812681E60C3F80480904706460028DB
S31500001A1040F00081D5E906130022C4E90A23656077
S31500001A206162287800F5800303F58D531B02A360DD
S31500001A306F7A002F00F0F8801146B02696466B7B31
S31500001A4095F80BC02A6A1B03AD7A43EA4C032B4375
S31500001A501578002D40F0ED8001218140890740F086
S31500001A60168192F801C090784FEA4C1126EACC16FE
S31500001A7041EA4C01314323F070051679D378019180
S31500001A8098401B011EB1022E0CBF3026202692F86C
S31500001A9005C0BCF1000F06D0BCF1010F14BF4EF01B
S31500001AA0010E4EF0030E92F808C00CF0030C43EA48
S31500001AB08C032B4395790295002F40F0BD80917AD7
S31500001AC092F80980D77A43F460430391EFF3108AC2
S31500001AD0012585F310886168DFF8D49191F800C07C
S31500001AE0D9F804B0CCF1130C05FA0CFC2BEA0C0B5C
S31500001AF0C9F804B0D9F804C08AF310884FF0000C76
S31500001B004FF010091FFA83FB9DF80410A3685FFAD3
S31500001B1080FAD878606883F803C0197083F801A04A
S31500001B209E70D2795FFA8EFE9A72039A83F80C80C1
S31500001B305A73029A9F7383F80FE0A3F810B083F8E4
S31500001B40202083F8219090F90230634578DA534AD1
S31500001B5090F90130002B26DB417903F16040090141
S31500001B60C9B200F5614080F800134D4903F1C00089
S31500001B7042F8234051F8205025F4803541F8205092
S31500001B8051F82010BFF35F8F01205909890003F037
S31500001B901F0301F1604101F5614100FA03F3C1F849
S31500001BA080310B606068017A90F904303D48090184
S31500001BB03B4DC618C9B286F8001303F1C00142F8BE
S31500001BC0234055F8216026F4803645F8216055F803
S31500001BD02110BFF35F8F012103F01F055B099B00F6
S31500001BE003F1604303F56143A940C3F8801119600E
S31500001BF00026636893F90310DB7908441B01DBB206
S31500001C0080F80033284B42F821402360304605B067
S31500001C10BDE8F08F002FF9D0BB6838681B6A98477B
S31500001C20304605B0BDE8F08FB82608214FF0100EFB
S31500001C3005E741F0B10614E70027B846039745E7E4
S31500001C40817903F160400901144AC9B200F5614087
S31500001C5080F80013124903F1C00042F8234051F8FE
S31500001C6020606CF3104641F8206051F82010BFF355
S31500001C705F8F03F01F015B099B0003F160438D40FA
S31500001C8003F56143C3F880511D60606860E7B7FAE9
S31500001C9087F1490943EAC113E3E600BF2441002066
S31500001CA00060004000E100E04950535204A011409A
S31500001CB00040084010B4EFF30383103B214A5BB2A7
S31500001CC003F1C00152F8210020F4803042F82100CF
S31500001CD052F821201C4A52F82330D3E906218A42C1
S31500001CE01CD018699C6838B393F820C0BCF10F0F5C
S31500001CF00AD9616840F82210D96901328A429A618C
S31500001D000CD05DF8044B7047BCF1070F16D821794B
S31500001D108154D96901328A429A61F2D15B6893F99A
S31500001D200330012203F01F0008495B09824041F895
S31500001D3023205DF8044B70476068DEE7A48820F82E
S31500001D401240DAE7006000402441002000E100E094
S31500001D504268136A13B15B78012B00D0704792F981
S31500001D600320044902F01F008340520941F8223043
S31500001D70704700BF00E100E030B4EFF30382103A91
S31500001D80344953B203F1C00051F8204002F0FF027B
S31500001D9024F4803441F8204051F820102E4951F89F
S31500001DA023008168C978890705D54168497A0129E0
S31500001DB001D030BC70470121284C5B0902F01F029C
S31500001DC0203301FA02F244F82320BFF34F8FBFF30A
S31500001DD06F8F436893F90230002B32DB5A0903F008
S31500001DE01F0301FA03F3203244F82230BFF34F8F6A
S31500001DF0BFF36F8FD0E90124237892F9022023F0F4
S31500001E004003002A237018DB124B02F1C00453F87A
S31500001E10245025F4803543F8245053F82430BFF37A
S31500001E205F8F53099B0002F01F0203F1604391404C
S31500001E3003F56143C3F880111960012130BCFFF737
S31500001E40E3BC8268012130BC137823F04003137091
S31500001E50FFF7DABC006000402441002000E100E00A
S31500001E6070B5EFF30383364A103B5CB252F8246038
S31500001E70736893F90230002B49DB012031495A0976
S31500001E8003F01F03203200FA03F341F82230BFF3B8
S31500001E904F8FBFF36F8FD6E9013293F90230117875
S31500001EA0002B21F04001117019DB274A03F1C00114
S31500001EB052F8215025F4803542F8215052F821205D
S31500001EC0BFF35F8F03F01F025B099B0003F16043C2
S31500001ED0904003F56143C3F880011860B2680021A1
S31500001EE0D378D1701A07DDB224D4EB0715D405F0E8
S31500001EF01405142D19D0144A04F1C00352F8231006
S31500001F0021F4803142F8231052F8233070BDB268B4
S31500001F10137823F040031370E1E70421304605F0FF
S31500001F201405FFF771FC142DE5D108213046FFF7A3
S31500001F306BFCE0E705213046FFF766FCD5E700BFFE
S31500001F402441002000E100E00060004010B472B6B9
S31500001F500020154A154B1168154A1860116015497D
S31500001F60154C0B68154A43F001030B602368A2FB6E
S31500001F7003235B09013BB3F1807F0AD24FF0E022D5
S31500001F804FF0F00C07210E4C536184F823C090618A
S31500001F901161F02200210A4B83F82310DA7783F8C7
S31500001FA022205DF8044B70470000000064410020C9
S31500001FB014420020001000E0DC4000201F85EB5199
S31500001FC000ED00E070B472B61D4D1E4C286820600E
S31500001FD000282DD14AF2025C1B4A1C491C4E8B89F3
S31500001FE09BB213801388180409D5B1F8FE339BB24F
S31500001FF03360A1F8FEC31388C3F30E038B81BFF3CE
S315000020004F8F30BFBFF36F8F13881B0408D513881B
S315000020109BB28B81336843F425439BB2A1F8FE3310
S3150000202062B6BFF36F8F72B6286820600028D6D0DC
S315000020304FF00062074B5A6062B670BC704700BF33
S315000020400C420020104200206041002000E00140C8
S315000020505C41002000ED00E00022074B1A60EFF320
S31500002060148C2CF0040C8CF3148862B64FF080525A
S31500002070024B5A60FEE700BF7841002000ED00E009
S315000020801B48016800292DD0EFF3098323E9F00FDF
S315000020901EF0100F01D123ED108A43F804ED8B607A
S315000020A0144C236813B18B6100232360124E3668EB
S315000020B0D6B10660706801307060B0692060F16862
S315000020C001F1280181F30B88B36853F804EB1EF085
S315000020D0100F01D1B3EC108AB3E8F00F83F309882F
S315000020E07047FEE7034CE1E7FFF76CFF0646E1E7C2
S315000020F010420020184200200C42002000F01CB8BC
S315000021006FF0020370B504690D4624F00704A4F1CC
S3150000211044068660342244F8443C0021A4F1400081
S315000021201AF0ABFD4FF0FF324FF0807344E9032500
S3150000213044F8043C70BD00BF244925480A6803687A
S31500002140013210B50A6013B1013B0360DBB1214ACD
S31500002150214C136821681868F8B101221F4B1A60D8
S3150000216000F0B2FB236833BB1D4B1B6853B11D4AFD
S315000021701268934206D01C4B1B681BB94FF0805265
S315000021801A4B5A6010BD0121124A134C1368186885
S31500002190216010B1114B1960E2E71548043300685D
S315000021A0136083420AD00D4B1B6811B9002BDBD09C
S315000021B0D6E7002BD4D100F039FBD5E70D48074B05
S315000021C000681B6810600029F0D0F2E7B8420020D2
S315000021D01842002028420020B44200202442002059
S315000021E00C420020104200207841002000ED00E063
S315000021F02C4200203042002008B500F095F9BDE8D9
S31500002200084000F0E5BB00BF10B50E4C236813F183
S315000022100F3F0AD04FF0F0332360FFF797FEFFF72A
S31500002220EBFF094A1368013313604FF0F033074A96
S315000022302360106800F0A2FD00232360BDE8104073
S31500002240FFF70ABF0000002078410020644100200B
S3150000225010B5EFF3108372B61A4A846E944202D018
S3150000226083F3108810BDD0F8AC208A42F8D1C26E34
S31500002270002AF5D0144914688C42F1D1116900295D
S31500002280EED00024013984661161C1B1D0E91C1475
S315000022904C672167D468844211D0026B062ADFD1CD
S315000022A00D240A49C0F884400A6801320A6083F3A3
S315000022B0108800F0C1F9EFF3108372B6D0E7D16051
S315000022C0EBE700BF51220000414D45537841002005
S315000022D0002330B4C0E901120360C36003614361A7
S315000022E08361EFF3108172B60B4A0C4C13680460DD
S315000022F00B4C4BB94061206080610133136081F360
S315000023001088002030BC70472468A569A061686108
S31500002310C0E90545F1E700BF68410020414D45533E
S315000023206C410020F8B5EFF3108272B683682BB1CA
S31500002330013B836082F310880020F8BD31B3174B50
S315000023401C681CBB164C2468D4F8AC50E0660135FA
S31500002350C4F8AC50134DA5660569DDB1C668776F44
S31500002360266767673C67746701350561E16419682C
S3150000237006200131196001232063A36382F31088CC
S31500002380204600F0D3F9D4F88400F8BD82F3108813
S315000023900D20F8BDC460C4E91C44E5E7784100207F
S315000023A0104200205122000038B50346EFF3108199
S315000023B072B6026932B982680132826081F310888E
S315000023C0002038BD013AC06813D0046F456FDC6049
S315000023D065672C6700241A61074A84661368C0F88B
S315000023E084400133136081F3108800F025F9002042
S315000023F038BDDA60EEE700BF784100202DE9F84FDE
S315000024000446DDE90A568A469146EF2132462846B9
S315000024100C9F9846DDF838B01AF02FFCB022002148
S3150000242020461AF02AFC2023C4F89C300D9B364A1D
S315000024309F424FF00303666106F1FF36E5603544BF
S315000024402046C4E91198C4E906BBC4E915242F49FE
S31500002450C4F828A02561E762C4F8947004BFE76356
S31500002460C4F898702363FFF74BFEEFF3108172B642
S31500002470274B284A2360136863BB2748C4E92244D4
S31500002480046001331360254A1368013313600F9B00
S31500002490012B2AD1EFF30582214B1B681343B3F1BD
S315000024A0F03F07D281F31088204600F0C5F80020DF
S315000024B0BDE8F88F1B4B1D68002DF3D0EB6AEE6B61
S315000024C0EB6381F31088204600F0B6F80020EE6337
S315000024D0BDE8F88F10480068D0F88C50C0F88C40E2
S315000024E0C5F88840C4E92205CBE781F31088EFF3ED
S315000024F0108172B61368013B136081F3108800F0F7
S315000025007DF80020BDE8F88F9928000045250000D9
S3150000251044524854044200200842002078410020DA
S31500002520000000200C4200202020044A04491368C1
S31500002530086043F0C7731360704700BF7041002006
S31500002540FC41002038B5124B1C68D4E9113098477D
S31500002550104B1B680BB120469847EFF3108072B6FC
S31500002560012200250C4922630B68A26313440B6009
S31500002570E56480F31088EFF3148323F0040383F3F8
S315000025801488BFF36F8F2046BDE8384000F0CEB800
S3150000259010420020744100207841002010B5EFF36E
S315000025A0108272B6124B1C6864B1EFF30581114BB1
S315000025B01B680B4306D110B982F3108810BD0E4B71
S315000025C0196819B182F31088132010BDC4F884105D
S315000025D01968E06401311960042101232163A363B2
S315000025E082F31088204600F0A1F8D4F8840010BDCC
S315000025F01042002000000020784100200A4B1B6892
S315000026008BB90A4A0A4B12681B689A420BD04FF0E4
S315000026108052084B5A60EFF3058323B9EFF310831A
S3150000262062B683F31088704778410020104200207C
S315000026300C42002000ED00E0F8B50446EFF31085EB
S3150000264072B6436E002B5BD04C3000F007FA304A6E
S31500002650A16B1368013B1360236B002945D15BB95D
S315000026602C492D4B1B6885F310880968994202D0C6
S315000026701368002B2BD0F8BD636B002B3AD1E06AB0
S315000026802649236351F8203033B1596A0C625C62E3
S31500002690616223621F49E4E741F820400121204E90
S315000026A0204F336881400B4333603B68C4E90844DC
S315000026B08342D5D9174938600B683BB3DB6B83423D
S315000026C0CFD90C6085F310881368002BD3D14FF057
S315000026D08052154B5A60EFF30583002BCBD1EFF3F5
S315000026E0108362B683F31088F8BD013B012BB7D97E
S315000026F0636B3BB1032000230649C4E90C03B0E732
S31500002700C364A4E70349A3632363AAE70C60A8E7AD
S31500002710784100200C420020104200207C4100201D
S3150000272000420020FC41002000ED00E0F8B5374BE8
S3150000273004461D68EFF3108672B685423BD0344AD4
S315000027401368013B1360A36B012B08D0314B86F352
S3150000275010881B68AB4201D01368F3B1F8BD4FF087
S31500002760000C216AE06A8C42C4F838C032D0636A31
S31500002770294F4B62196257F82030A34227D0254BC8
S315000027801968A142E3D12549096857F82110196053
S3150000279086F310881368002BE0D14FF08052204B4F
S315000027A05A60EFF30583002BD8D1EFF3108362B69E
S315000027B083F31088F8BDEB6C013B033303D805F1B6
S315000027C04C0000F01FF9174BE2691A60B7E747F8AB
S315000027D02010D4E71449104F834047F820C00868FA
S315000027E020EA03030B6033B193FAA3F3B3FA83F33E
S315000027F00A490B60C3E720200849064C086023609D
S3150000280086F310881368002BC7D0F8BD104200204D
S31500002810784100200C4200207C410020FC41002031
S3150000282000ED00E01842002000420020144B1B6817
S31500002830EFF3108272B600201249086093B1196B4B
S3150000284081B9186A10B4D9690F4C98429961216010
S3150000285003D0D96ADB6B994207D082F310885DF802
S31500002860044B704782F310887047084C084B246865
S3150000287043F8210053F8243006490B60EDE700BF0A
S3150000288010420020B442002018420020FC410020E3
S315000028907C4100200C420020EFF3108C72B6026BD4
S315000028A0042A07D0826ED0F8AC108CF3108802B1DF
S315000028B010477047034A1368013313608CF310887E
S315000028C0FFF7BABE784100202DE9F04F83B0EFF351
S315000028D0108A72B6384A1768002F60D1374E3368AF
S315000028E0002B5CD00123DFF8DC80DFF8DCB0DFF8FA
S315000028F0DC901360324B1B681868009008B1C0F872
S3150000290018D0D8F800002E4A43F8047B834213609F
S3150000291008BFDBF80030376008BF13608AF3108801
S31500002920EFF3108A72B6009C002C33D001AD12E092
S3150000293020382060A56124610194C9F800408AF31B
S315000029401088EFF3108A72B6019BC9F800709C429A
S315000029502CD0009CF4B1236901979C4224D0606975
S3150000296058610361C3F818D0206800932028DFD887
S31500002970D4E902326068206010B1284624610194CF
S31500002980A061C9F800408AF31088002BD9D0104600
S315000029909847D6E73368002BACD1074A13608AF311
S315000029A0108803B0BDE8F08F0023DDE72046A7615D
S315000029B000F028F8CDE700BF1C420020244200208A
S315000029C0284200202C4200203042002020420020D5
S315000029D00021074B074A10B4074C13600748084A02
S315000029E0236080335DF8044B03601160704700BFBD
S315000029F03442002028420020304200202C42002091
S31500002A001C42002003685A1E033201D8826902B1B3
S31500002A107047202B28BF20230D4A0E4912680968EB
S31500002A20013B02EB8303994208D91A685AB15169EE
S31500002A3008615061C0E904218361E9E7064A5B1A2F
S31500002A4012681344F1E7C0E904001860F4E700BF18
S31500002A50284200202C42002030420020836963B1C6
S31500002A60026990420AD0416951610A61196881423E
S31500002A7004BF93611A600023836170471A6882421B
S31500002A80F9D100221A60F6E708B11C2B01D00C2000
S31500002A907047F8B505460F461646EFF3108172B635
S31500002AA01C4A13680133136081F310881A4B1C68A3
S31500002AB01A4B186848B1A54207D0002301E0A54289
S31500002AC003D0013383426469F9D1EFF3108172B602
S31500002AD01368013B136081F31088FFF78FFDA54251
S31500002AE013D0EFF305810E4A13680B4306D0EFF3BC
S31500002AF0058113680B43B3F1F03F08D332463946DC
S31500002B002846BDE8F840FFF7E3BB0C20F8BD1320CC
S31500002B10F8BD00BF784100206C41002068410020CC
S31500002B200000002018B1084B02689A4201D00C2020
S31500002B30704729B1EFF30582044B1B68134301D19B
S31500002B40FFF7F0BB04207047414D455300000020BD
S31500002B5018B1044A0368934201D00C207047FFF76E
S31500002B6023BC00BF414D45532DE9F04F85B0DDE94B
S31500002B7010940194129CDDE90E580394139C029460
S31500002B80149C08B1B02C03D00E2005B0BDE8F08F20
S31500002B908B4617469A460646EFF3108272B6DFF862
S31500002BA010C1DCF800300133CCF8003082F3108815
S31500002BB03C4B08F1FF301A683B4B28441C68BAB1FD
S31500002BC0A64215D000210097E368AB4259D8276981
S31500002BD0AF4256D94FF0010E0025834201F10101A3
S31500002BE044D82369834241D90025009FD4F8884000
S31500002BF0EFF3108272B6DCF80030013BCCF80030FF
S31500002C0082F31088FFF7FAFCA642BDD0002D3DD016
S31500002C10002F3BD0B8F1C70F36D9B9F11F0F3BD8FB
S31500002C20019B99453AD3029B012B33D8EFF30581DB
S31500002C301E4A13680B4306D0EFF3058113680B4356
S31500002C40B3F1F03F2CD3029B3A461393039B5946AC
S31500002C501293019B3046CDE910935346CDF83C8044
S31500002C600E9505B0BDE8F04FFFF7C8BB9142D4F80A
S31500002C70884004D0A64202D0BEF1000FA4D0009F27
S31500002C80B6E74FF0000EA8E705207EE7032005B063
S31500002C90BDE8F08F102078E70F2076E7182074E75C
S31500002CA0132072E7044200200842002000000020A2
S31500002CB07841002008B501221C230C490C48FFF777
S31500002CC0E3FE38B91C2301220A490B48FFF7DCFE54
S31500002CD028B908BD0021064800F04EF8F2E70021A9
S31500002CE0BDE80840044800F047B800BF88CE0100A0
S31500002CF0D84200209CCE0100BC4200200148FFF7CC
S31500002D0027B800BFFC42002008B500F05BF8BDE81C
S31500002D10084018F039BE00BF012110B5B0204FF4AD
S31500002D2000540E4A88B013680B4413600C4ACDE970
S31500002D300510CDE90311009202910023094A0A49C0
S31500002D400A480194FFF710FF08B908B010BD00212A
S31500002D50064808B0BDE8104000F00EB874440020E4
S31500002D6020820120092D0000B4CE0100A4430020DA
S31500002D70FFF7A0BF704700BF00BE704770B50024C4
S31500002D800C4E0D4D1C2301220C490D4834602C704D
S31500002D90FFF77AFE20B9FFF7BFFFFFF7EBFF70BD25
S31500002DA021460748FFF7E8FFFFF7B6FFFFF7E2FF08
S31500002DB070BD00BF7444002070440020C0CE0100E6
S31500002DC05444002038B54FF0FF311448FFF7AAFEEF
S31500002DD0F0B9134B1A7802B138BD0122114C1A70A2
S31500002DE0FFF7C6FF2368013B2360002BF4D00B4D91
S31500002DF004E02368013B2360002BEDD02846FFF753
S31500002E00A7FE0028F5D000212846FFF7B5FFF0E71A
S31500002E1000210248FFF7B0FFDBE700BF5444002063
S31500002E20704400207444002008B5FFF7EDF9002037
S31500002E3008BD00BFF0B5044683B00F4622484FF0E8
S31500002E40FF3115468DF80740FFF76CFE002240F271
S31500002E5006311E48FEF7A0FB00224FF441711B48C5
S31500002E60FEF79AFB01210846FDF740FB01260723E2
S31500002E70174C324617480DEB03012670FEF792FDFC
S31500002E800DB903B0F0BD4FF0FF310F48FFF74AFE12
S31500002E90002240F206310D482670FEF77DFB3246D1
S31500002EA04FF441710948FEF777FB31463046FDF78E
S31500002EB01DFB07232A4639460648FEF773FD23788D
S31500002EC0012BFCD003B0F0BDD8420020F442002014
S31500002ED094BC0020FC4200203E4B1B78002B77D090
S31500002EE0F0B50C460023054694F90100B1F900102F
S31500002EF060F3070361F30F2394F905101746B4F93D
S31500002F00042061F3174362F31F63042283B00DEBC1
S31500002F1002012A200193FFF78DFF0023042294F972
S31500002F2003C0B4F902606CF3070366F30F2394F948
S31500002F3007600DEB020166F31743B4F906602B2018
S31500002F4066F31F630193FFF775FF00222C201146DD
S31500002F50FFF770FF4FF0FF311F48FFF7E3FD002238
S31500002F6040F206311D48FEF717FB01224FF441716E
S31500002F701A48FEF711FB01210846FDF7B7FA0222AF
S31500002F80174EB4F804C0B4F806E03270228864889C
S31500002F900CF1010C0EF1010EACEB0202AEEB0404D7
S31500002FA012FB04F2072339460E485200FEF7FAFCDC
S31500002FB008B903B0F0BD012240F206310748FEF71A
S31500002FC0EBFA00232846337013F01CFF03B0F0BD64
S31500002FD013F018BF14000020D8420020F44200204D
S31500002FE094BC0020FC42002030B5664C8FB0664988
S31500002FF06648FEF7E3FC66492046FDF7ADFD204630
S31500003000644CFDF755FD002240F202312046FEF7E2
S31500003010C3FA4FF47A716420FDF768FA012240F290
S3150000302002312046FEF7B8FA4FF47A716420FDF7B4
S315000030305DFA0022052411461120FFF7FBFE4FF42E
S315000030407A717820FDF752FA0DF1030101223A2038
S315000030508DF80340FFF7EEFE4F4B224693E8030040
S3150000306004908DF81410B22004A9FFF7E3FE35236F
S3150000307001A90122B7208DF80430FFF7DBFE3223C9
S315000030800DEB04010122BB2001248DF80530FFF76A
S31500003090D1FE2C230DF106010122C0208DF8063049
S315000030A0FFF7C8FE22460DF10701C2208DF8074042
S315000030B0FFF7C0FE1523224602A9C3208DF808306B
S315000030C0FFF7B8FE202322460DF10901C4208DF832
S315000030D00930FFF7AFFE0F2322460DF10A01C62085
S315000030E08DF80A30FFF7A6FE4AF2A41303A90222BE
S315000030F0D020ADF80C30FFF79DFE284B0DF1180CD3
S315000031000FCBACE8070006A90E22E020ACF8003091
S31500003110FFF790FE224B0DF1280C0FCBACE8070011
S315000031200AA90E22E120ACF80030FFF783FE6023E7
S3150000313022460DF10B0136208DF80B30FFF77AFE93
S31500003140002221201146FFF775FE0022154D164C70
S3150000315011462920FFF76EFE4FF4F0532846134A16
S31500003160134913F087FD204613F060FD2046114AEF
S31500003170114B22606361E5600FB0BDE8304013F08B
S3150000318087BD00BF4443002058CF0100FC42002009
S31500003190B4CF0100F4420020B4D00100D4CE010027
S315000031A0E4CE010078BC002098BC002078440020C2
S315000031B0788000204001F000D92E00000279012A13
S315000031C000D0704710B5094C40F206310848FEF7AA
S315000031D0E3F92378022B05D00648FFF7B9FC002354
S315000031E0237010BD044813F00DFEF5E794BC0020D3
S315000031F0F4420020D842002098BC0020037903B195
S315000032007047012013F068BE70B544F6816582B040
S31500003210012302220C463B4801A9ADF80450FDF7F4
S3150000322025FE4FF0FF313848FFF77CFC00230122D2
S3150000323069463448FDF732FE4FF0FF313248FFF75A
S3150000324071FC9DF900309DF80020002B01DA130770
S315000032501CD1002544F6816C2B46032201A929487E
S31500003260ADF804C08DF80650FDF700FE4FF0FF31B3
S315000032702548FFF757FC254B254AB3F90030B2F92C
S315000032800020A5732380628002B070BD0026ADF8D1
S31500003290045045F281053346032201A919488DF8E9
S315000032A00660FDF7E3FD4FF0FF311748FFF73AFCE4
S315000032B00123022269461348ADF80050FDF7D6FDFA
S315000032C04FF0FF311048FFF72DFC042233460DEB7B
S315000032D002010C48FDF7E2FD4FF0FF310A48FFF707
S315000032E021FC0125BDF80420BDF906300748084930
S315000032F0C2F1F00212B203800A80A57323806280B5
S3150000330002B070BD64430020BC420020EABC00202D
S31500003310E8BC002010B50E490E48FDF7B3FE0E4C72
S31500003320002240F202410D48FEF71AFA4FF47A7174
S315000033300A20FDF7DBF8204613F06EFD0122084B4C
S3150000334020466360227013F077FD064B186010BDAF
S3150000335014D0010064430020ECBC0020F44200209D
S31500003360093200000CBD00200379013B022B00D975
S3150000337070470148FFF7ECBBBC42002008B100696A
S31500003380704708B513F006FD00B1006908BD00BF1F
S3150000339008B14069704708B513F0FCFC00B14069FC
S315000033A008BD00BF08B1C069704708B513F0F2FC4C
S315000033B000B1C06908BD00BF08B1006A704708B512
S315000033C013F0E8FC00B1006A08BD00BF08B18068D0
S315000033D0704708B513F0DEFC806808BD08B530B14B
S315000033E0D0F854010028D4BF0020012008BD13F0F6
S315000033F0D1FC0028F4D108BD10B50C4690B1006888
S3150000340010B90DE0006858B10369002BFAD000220C
S315000034102146E2609847207EC04300F0010010BDBF
S31500003420012010BD4B681868EAE700BF70B5054675
S3150000343000F01EFC58B1006883680BB1297A9847E2
S315000034402B7E9C0700F19680D80700F191806E686C
S31500003450B368002B39D09A7E910636D0DB68002BF4
S3150000346033D01A68002422B193F90810187A00297B
S3150000347014DBB368013404EB440133B39A7E02F0E3
S315000034803F02944221D2DB6803EB81031A68002ACB
S31500003490EFD093F90810187A0029EADA802820F08C
S315000034A0800102D0287A8142E3D15B682846EB602E
S315000034B090472B7E9A075DD4DE0759D46E68013497
S315000034C0B36804EB4401002BD8D129460020FFF74E
S315000034D093FF024600284BD06E68B368002B4BD092
S315000034E0997E8C0648D0DB68002B45D0012808BFA2
S315000034F0002410D03BE0297A814216D0B36801340B
S3150000350004EB44010BB39A7E02F03F0294421CD2B4
S31500003510DB6803EB81031A68002AEFD093F90810E1
S31500003520187A0029EADB0028E5D15B682846EB60BB
S3150000353090472B7E98071DD4D90719D46E6801349D
S31500003540B36804EB4401002BDDD1736893B12A7E86
S3150000355052070FD42A7A233A012A10D828466B60DC
S31500003560FFF764FFA0F10100B0FA80F0400970BDDA
S31500003570002070BD012070BD012AE6D070BD4FF459
S315000035808041304603F09CF80028F3D02B7A113B9B
S31500003590DBB21B2B04D8044A22FA03F3DB07E9D477
S315000035A06B685B68DAE700BFFF270F0BD0B130B559
S315000035B0002589B09DF818300B4C23F007038DF8D1
S315000035C018302368009001906846CDE904238DF8F1
S315000035D00810C4F800D00395FFF728FF059B236069
S315000035E009B030BD0120704710BD0020006870474B
S315000035F040687047007A00F07F00704700697047A6
S31500003600C0687047094B1B682BB90EE01A688242E6
S3150000361004D05B694BB15A688242F7D11A7E42F0F8
S3150000362001021A765B69002BF5D1704710BD0020A8
S315000036302DE9F04104460F4616461D4603F058F89C
S31500003640D4F8088098F81AC0D8F80C0063460CF134
S31500003650010C0CF03F0C6CF305030CEB4C0188F8E5
S315000036601A30890014F046FEA368C8F80C00D86822
S3150000367068B19A7E6FF00B010C2302F03F0213FB38
S315000036800213C750184406724560BDE8F081FEE794
S31500003690037A013B0F2B94BF00690020704700BFDF
S315000036A0037A143B052B94BF00690020704700BFC6
S315000036B0037A132B06D10269B2F900308B42B8BFE8
S315000036C00B461380704700BFF8B50546002013F07F
S315000036D0D9FB20B3002704463E4604E0204613F0FB
S315000036E0D1FB044688B1204600F0C8FA636DAB42B0
S315000036F0F4D1022810D0042808BF2646204613F02D
S31500003700C1FB274604460028EDD10EB13046F8BD70
S315000037102FB13E463046F8BD26463046F8BD00205D
S31500003720BDE8F84013F0AEBB037FDB074DD42DE9AF
S31500003730F047C568064688461746002D61D188477A
S315000037400546002D3ED0A9464FF0000A286802F033
S31500003750C3FF030613D529463046B84748450546F4
S3150000376030D0002DF2D1337F1A072BD5BAF1000FD6
S3150000377028D03046C0474FF0000A0546F1E72C68CE
S315000037802CB910E0204607F07BF8044658B1012119
S31500003790204602F095FF0028F4D02046012102F0D1
S315000037A08FFF0028D7D1F368AB420BD09BB13046D0
S315000037B01C68FFF789FF0F2102462046FFF7F6FE39
S315000037C0012804D00020BDE8F08700207047F36888
S315000037D0186803F023FF3046F5602C68FFF774FF86
S315000037E00E2102462046FFF7E1FE0128EAD1F368E2
S315000037F0186803F013FF33690BB130469847012070
S31500003800E1E7A9464FF0010AA5E700BF027F38B5F8
S3150000381042F0080303775B070446C2F3C0050ED4E3
S315000038200F4A1049FFF780FF63691BB110B90121E8
S3150000383020469847237F65F3C303237738BD0A4A9A
S315000038400A49FFF771FF6369002BF3D00028F1D115
S31500003850014620469847237F65F3C303237738BD87
S3150000386025810100158101002D8101001D810100C6
S315000038702021014814F0C0BB70C00020014B18681D
S31500003880704700BF14BD002070B582B0054602F037
S315000038902BFFF8B1C368044613B11B68AB421BD0BB
S315000038A0204614F037FC014628B913E0204614F0F0
S315000038B039FC014670B10B68AB42F7D12046019145
S315000038C014F0ECFB0199084614F0FCFCAB680BB154
S315000038D000229A6002B070BD037FDA0744BF23F06E
S315000038E00103037714F016FCE36883420BD02046ED
S315000038F0FFF78CFFE368002BD2D01B68AB4204BFF6
S315000039000023E360CCE7204614F008FCE268034697
S315000039109042ECD120461E68FFF7D6FE0F210246E4
S315000039203046FFF743FEE5E788B370B50446084620
S315000039300D46FFF7A9FF204614F0ECFB014628B917
S3150000394008E0204614F0EEFB014618B10B68AB42C6
S31500003950F7D170BD284602F0C7FED8B1AB689A68A9
S315000039601AB1D2681268954212D020469C6014F0B3
S315000039707FFB064650B12046356014F0CBFB8642ED
S31500003980E7D12046BDE87040FFF740BFFEE770472D
S31500003990FFF73CFFAB68002BE7D1284602F0A8FEF4
S315000039A0AB68E2E710B50446064A0749FFF7BCFED6
S315000039B063692BB120B92046BDE8104001211847A4
S315000039C010BD00BF258101001581010010B5044618
S315000039D0064A0749FFF7A8FE63692BB120B90146DD
S315000039E02046BDE81040184710BD00BF2D810100DC
S315000039F01D81010010B582B0019140B1C36833B199
S31500003A001C6824B18021204602F068FE10B1012016
S31500003A1002B010BD0D21204601AAFFF7C7FD02B076
S31500003A2010BD00BFD8B1027F10B5C2F340048C426E
S31500003A300FD0C46861F34102027754B1246844B1DF
S31500003A40FFF742FE0E2102462046FFF7AFFD012892
S31500003A5000D010BD2046BDE8104003F0DFBD704722
S31500003A60F8B5054602F040FE20B1017F064611F08A
S31500003A70010100D0F8BDFFF7D5FF304614F04AFB30
S31500003A80044638B9F6E72146304614F04BFB0446A7
S31500003A900028EFD023689D42F5D1F36883B11F68F3
S31500003AA0BD420DD03046FFF70FFE0F2102463846C5
S31500003AB0FFF77CFD0128DDD1F368186803F0AEFD41
S31500003AC03369F46013B130469847F4683046246889
S31500003AD0FFF7FAFD0E2102462046FFF767FD012893
S31500003AE0C8D1F3681868BDE8F84003F097BD00BF79
S31500003AF008B1FFF7B5BF704710B1C06800B10068E4
S31500003B00704700BF10B1007FC0F34000704700BF90
S31500003B1014F010BB2DE9F0434378044613F0080572
S31500003B20406A83B05DD1504FD4F82C90386000289D
S31500003B306FD04E4E08213268FFF738FD637899073B
S31500003B4048BF3D609A07C3F3400565D4B9F1000F3D
S31500003B5069D04FF48078C4E91155656201956E22EB
S31500003B600021484605F026FF03466D222B4400211E
S31500003B7048469EB21DB205F01DFF03461BB2002B40
S31500003B80B8BFFF331B1213FB08F348460FFA83F83E
S31500003B9006F076FE81460028E1D115B9B8F5807F9A
S31500003BA014D04FF4803595FBF8F5764236B22DB237
S31500003BB031462A4601AB04F11C0013F00BFF2A46DE
S31500003BC0314601AB04F1200013F004FF204601F05A
S31500003BD069FD63789B0744BF00233B6003B0BDE8E3
S31500003BE0F083224B03211A68FFF7E0FC6278950701
S31500003BF015D49007C2F340030ED462781A4FC4E975
S31500003C000933C4E9113363F3C302D4F82C9062700C
S31500003C103B60B9F1000FD9D103B0BDE8F0830021B4
S31500003C20114B1960E5E7DD073868326809D40421CD
S31500003C30FFF7BCFC637813F0020F02D0C7F80090C0
S31500003C40EAD1072132683868FFF7B0FC6378980735
S31500003C5007D49907C3F34002DED4C4E91122626295
S31500003C60DAE700223A60F4E718BD00201CBD002008
S31500003C70014B1868704700BF1CBD002008B10368DF
S31500003C801878704738B504460D4688B1274A4379F7
S31500003C90126843F00203824243713DD023681B78C9
S31500003CA0013B012B27D938BDB5B945638562C4628E
S31500003CB013F0E8F860B14379026843F002034371F8
S31500003CC01378013B012BEFD913F0DCF80028F2D171
S31500003CD00022174B1A6038BD436BAB4204BF00236A
S31500003CE04363836AAB4204BF00238362C36AAB4269
S31500003CF0DED1C462DCE79DB1636BAB4204BF002337
S31500003D006363A36AAB4204BF0023A362E36AAB42C8
S31500003D10C9D10023E36238BD0022054B1A60BDE716
S31500003D2000236563A562E362F5E700BF1CBD0020C2
S31500003D3018BD002098B103681B7803F0FD03012B22
S31500003D4006D04FF6FF724FF0FF330A804B80704764
S31500003D50B0F908300B80B0F90A304B807047034643
S31500003D6008804B80704700BF30B103681B7803F0B2
S31500003D70FD03012B01D00020704790F8440000F0AD
S31500003D800F00704730B103681B7803F0FD03012B69
S31500003D9001D000207047006B704700BF014B1868C8
S31500003DA0704700BF18BD002070B50E4682B00121D5
S31500003DB0044602F085FC002835D1054630682A46BF
S31500003DC00123019001A9204603F0D6FA01A9204655
S31500003DD003F07EFE2A46064601A904F1140013F0FC
S31500003DE063FC98B1204606F05FFD451E0AD4A36821
S31500003DF001A91B6853F82500FFF7D6FF013D18B946
S31500003E006B1CF4D17EB1204602B070BD4FF4002188
S31500003E10204602F055FC0028F4D0204606F044FD6A
S31500003E20451EE4D5EEE7002002B070BD2DE9F0474F
S31500003E3004466378AB4D406A1E0728603BD4AA4E01
S31500003E4033681B681F69002800F05081E36A002B65
S31500003E5038D0A389A188E288C91AE38909B2D21A9F
S31500003E60B4F91C3012B20B4403EBD3735B10A3837B
S31500003E70B4F91E30A182134403EBD3735B10E383C2
S31500003E80E369E2822362B0B102213268FFF78EFB5A
S31500003E90637813F0020F10D133685B7913F00807CB
S31500003EA009D1204601F08CF8637813F002012DD079
S31500003EB02F609F072AD5BDE8F0874FF000022A60E1
S31500003EC0F9D1E9E74FF4005102F0FAFB002800F0BF
S31500003ED00D81636A286862688342BAD0E260002B6B
S31500003EE000F08E80184603213268FFF75FFB637887
S31500003EF013F0020F00F083804FF00001C3F340027D
S31500003F002960D8D1C4E909220020A2E7E26A002A82
S31500003F10D1D194F84120D00700F14081676A37B9C2
S31500003F203CE1384606F0ACFC0746002839D04FF491
S31500003F300041384602F0C4FB0028F2D13268B4F9D9
S31500003F4014E0D2F800C08EEAEE739CF81A10A3EBC8
S31500003F50EE739BB28B42B4F9168080F01C8188EA1E
S31500003F60E873A3EBE8739BB2994240F214810146D1
S31500003F707144404403B209B2A187E38781EAE17044
S31500003F809CF81BE0A0EBE17083EAE37C80B2ACEB2B
S31500003F90E37C70451FFA8CFC00F2E280E645C0F037
S31500003FA0DF8063789A07C3F3400001D500222A60B8
S31500003FB0002880D1E26A002A7FF47DAF13F0010762
S31500003FC000F02681DB077FF576AFA06C12F0A0FF2C
S31500003FD032681368DB8B98427FF66DAF062128683E
S31500003FE0FFF7E4FA637813F0020F04D04FF00002F3
S31500003FF02A607FF460AF12F07DFFA0645BE728685B
S31500004000C4E9090000283FF47FAF12F073FF0027D0
S315000040106378606423F001036370B4F840300121D3
S315000040206FF30803A4F8403032682868A761E76395
S315000040306761FFF7BBFA637813F0020F02D02F60B7
S315000040407FF439AFD6F8008098F8053013F00807EA
S315000040507FF431AF0421286802F032FB002836D005
S315000040602868D8F83430834231D002F03DFB8246CE
S31500004070D8F83400002866D002F036FB8245814627
S3150000408000F09280D8F83400B9F1000F00F0E1801A
S3150000409050B110213268FFF789FA98F8053013F00D
S315000040A0020F01D02F6012D12868BAF1000F00F07C
S315000040B089802868FFF71CFD98F80530990703D515
S315000040C000229B072A6002D42B68C8F83430637834
S315000040D013F0020F04D04FF000022A607FF4EBAE1B
S315000040E02868B6E618BD00201CBD0020384604F13D
S315000040F00408FFF761F94146FFF756FE286088B1CC
S31500004100A36A002B3FF4E5AE00272046E76101F0E5
S31500004110C9FA637813F0020F3FF4DBAE2F607FF429
S31500004120CAAED6E63846FFF73DF94146FFF73CFEF4
S3150000413028600028E4D13846FFF720F94146FFF70A
S3150000414033FE2860DCE7BAF1000FB2D132680E21E7
S315000041502868FFF72BFA98F805309A07B0D4B3E72A
S3150000416060453ED90029CCBF02230123B4F8401094
S315000041701B0121F4F87143F480730B43A4F840301B
S315000041800C213846FFF712FA637899077FF512AFCC
S31500004190C3F340000AE7A18FE08FE9E600293FF468
S315000041A00DAF00222A6009E7BAF1000F1ED0286879
S315000041B0FFF79EFC98F8053013F0020F84D02F60AD
S315000041C085D181E70E213268FFF7F0F998F80530BE
S315000041D013F0020F3FF478AFC5F800A07FF477AF75
S315000041E072E7002BCCBF08230423BFE7D8F83400BE
S315000041F032680028AAD00F21FFF7D8F998F80530C1
S3150000420013F0020FA2D0C5F800A07FF460AF9DE7BF
S31500004210606C12F07DFE326813689B8B984205D85D
S31500004220E36A002B7FF447AE6378CBE60521286866
S31500004230FFF7BCF9637813F0020F02D02F607FF40A
S315000042403AAE637843F00103637012F053FEA06444
S31500004250E6E700283FF428AF0F213268FFF7A6F9FA
S3150000426098F8053013F0020F3FF41EAFC5F8009022
S315000042707FF42DAF18E700BF2DE9F04FC468974EC5
S31500004280236887B01969346000297CD063799D075B
S3150000429013D5002294F84400914FC4E90A22C4E9D8
S315000042A01222C4E9072223F0030362F303006371B9
S315000042B03A6084F8440022632264580763D44D6947
S315000042C0002D60D1864F204602A912F0E5FD346824
S315000042D09DF817806379990710D523F0030363715E
S315000042E094F84430C4E90A55C4E91255C4E907559F
S315000042F065F303032563256484F844309DF816208E
S315000043002168012A3D60227100F0D0800B78042BD1
S3150000431000F0E880013B022B18D8DFE803F037777E
S315000043200200A36D8BB1049A53F822909DF81630C3
S31500004330012B00F07A81637913F0020F00F09E8062
S315000043404FF000023A6000F09980346863799B0769
S3150000435012D594F84430C4E90A5565F3030384F88A
S3150000436044306379C4E91255C4E9075523F00303C1
S31500004370256325643D606371B8F1000FA3D1C6F8CB
S315000043800080C7F8008007B0BDE8F08F0869029A80
S315000043900168BDF908E00B7CBDF90AC003F03003E3
S315000043A0202B626100F03481302B42F30F4C12B2A5
S315000043B000F01C81102B09D14B881FFA8CFC013BA5
S315000043C0A3EB0C03ADF80A20ADF8083012F0E8FCB8
S315000043D02368186912F0F6FC206D48B12269029B29
S315000043E09A4205D0BDF90A20BDF9081002F0DCFD9D
S315000043F0029B201DA3602379012B00F00681FFF7A5
S3150000440089FBA368236134686379A0E763791A0797
S3150000441005D523F0090363710023A3642372D4F83E
S315000044205490B9F1000F90D04846FFF765FB38600D
S3150000443000288AD0802102F051F9039AE168E260EF
S315000044409DF8163094F808B0012B8246237200F0CE
S31500004450FC80326868B963B9BBF1010F09D10A293A
S31500004460039100F0CD8200226379A26462F3000317
S315000044706371002334683B60637968E7C4F8089089
S315000044809DF81630201D012B00F0BC80FFF742FB83
S315000044906279910744BF00233B609207316858BF99
S315000044A0A2684B7958BF22610C4650E70C6912F09E
S315000044B021FDC4F86401346821680B78013B032BA5
S315000044C03FF644AF01A252F823F000BF8D4300002F
S315000044D0BB45000023430000D34500001CBD00205F
S315000044E018BD0020BDF91430002BDFD1637903F02D
S315000044F00803002B77D000218A466379A16423F054
S3150000450009036371039BD4F854902272E360B9F1F6
S31500004510000F3FF41AAF4846FFF7EEFA386000285E
S315000045203FF413AF9DF8163013B10023ADF81430E5
S315000045304846FFF7E1FA386000283FF406AF9DF8D9
S315000045401630012B00F0B68063B9BAF1010F09D11C
S31500004550039B0A2B00F0CB8100236279A36463F3EB
S3150000456000026271BDF914304FF0000AC7F800A0CE
S31500004570002B3FF4EAAE4846FFF7C4FABDF9143003
S31500004580002800F05F81002BC0F28B813FF4DDAE86
S31500004590D34604E0BDF914309A45BFF6D6AE1321D2
S315000045A04846FFF727FA63790AF1010A13F0020F6A
S315000045B0F0D0C7F800B0EDD0C7E69DF816206379B5
S315000045C0012A03F008017FF421AF00293FF427AF49
S315000045D0BDE69DF816206379012A03F0080388D109
S315000045E0002B7FF4B2AE94F808A08BE70B889A1ADA
S315000045F04B88013AA3EB0C0C0CF1FF3C12B21FFAEC
S315000046008CFCDCE6FFF712FC42E7FFF70FFCF8E64E
S315000046100A884B88A2EB0E02A3EB0C03013A013B7E
S31500004620ADF80820ADF80A30D0E6B4F910200FFA3C
S3150000463089F39A4205D1B4F91230B3EB294F3FF40E
S315000046407AAE201DFFF766FA75E6BBF1000F56D06D
S3150000465000287FF40EAFBBF1010F7FF40AAF0A2AE0
S3150000466000F0FC81637913F0010A00F0A781E06C89
S3150000467012F04EFC2368DB8B98427FF6FAAE12F0FE
S3150000468039FC0399E0640A2900F08482092900F0C4
S315000046909C820B2900F08D824846FFF7ABF96279C0
S315000046A0910701D500233B603468920763797FF553
S315000046B0E0AE4CE6BAF1000F4DD0BAF1010F7FF42F
S315000046C051AF6379D90740F10281E06C12F020FC0A
S315000046D02368DB8B98427FF645AF12F00BFC0399FB
S315000046E0E0640A2900F02E82142971D0132961D1C1
S315000046F0BDF8143001331BB2ADF8143034E712F0B4
S31500004700F9FB0399A064092900F03E810B2900F00A
S315000047104981BAF1000F7FF4ACAE0A29484600F091
S31500004720DF811B29B9D1FFF765F963799A0748BF7D
S315000047300022C3F3400948BF3A609B07326800F184
S31500004740D38020213868FEF731FF62799007ABD518
S31500004750C7F80090A8E712F0CDFB0399A064A1F179
S315000047600A03112B26D801A252F823F0174800009D
S31500004770B5470000B5470000B5470000B547000043
S31500004780B5470000B5470000B5470000B547000033
S31500004790F1460000D1470000B5470000B5470000CC
S315000047A0B5470000B5470000B5470000B547000013
S315000047B0DF4700004846FFF71DF9637913F0020F43
S315000047C03FF4D0AE4FF000023A607FF4BEADC9E6CA
S315000047D0BDF81430013B1BB2ADF81430C4E61B2102
S315000047E04846FFF707F963799A0744BF00223A6003
S315000047F098073268C3F3400A76D420213868FEF75A
S31500004800D5FE637913F0020F3FF4ACAEC7F800A0F3
S315000048107FF49BADA6E6386802F0A6F8002800F003
S3150000482086814846FFF76EF900283FF49BAE0121CA
S3150000483032683868FEF7BAFE637913F0020F3FF468
S3150000484091AEBFE7002B16DB3FF47FAD8246834671
S3150000485004E0BDF914309A45BFF677AD4846FFF738
S31500004860A1F863790AF1010A13F0020FF1D0C7F833
S3150000487000B0EED069E58246834605E0BDF9143006
S315000048805B429A45BFF661AD4846FFF79FF86379EC
S315000048900AF1010A13F0020FF0D0C7F800B0EDD00C
S315000048A053E5D34605E0BDF914305B429A45BFF6A1
S315000048B04CAD14214846FFF79DF863790AF1010AC9
S315000048C013F0020FEFD0C7F800B0ECD03DE5A06CB6
S315000048D012F01EFB23689B8B9842637900F2CD8011
S315000048E0D9073FF5F2AE3DE6144653792FE502F0BF
S315000048F03BF8002800F0D1804846FFF703F96379BA
S31500004900002800F00C81D90705D54846FFF700F9C5
S31500004910012800F24981326808213868FEF746FE10
S3150000492063799A0701D500223A60C3F3400A9B07D0
S315000049303268D9D404213868FEF738FE63793268C4
S31500004940980748BFC7F800A09907C3F3400ACBD41D
S3150000495007213868FEF72AFE63799A0748BFC7F829
S3150000496000A0C3F3400A9B073FF5EFAC0A21484677
S31500004970FFF740F8637913F0020F3FF4EDADC7F887
S3150000498000A07FF4E2ACE7E559464846FFF74AF84F
S315000049904846FFF707F8627993077FF585AEC7F8B3
S315000049A000B081E659464846FFF73CF84846FFF70F
S315000049B00DF8627994077FF577AEF0E7A06C12F0F8
S315000049C0A7FA23689B8B9842637915D943F00103B4
S315000049D06371039B0A2B7FF44CAD12F08BFA052111
S315000049E03268E0643868FEF7E1FD627991077FF589
S315000049F05BAEC7F800A057E6DA077FF53AAD36E6B4
S31500004A00082138680193FEF7D1FD617932688B077A
S31500004A1044BF019B3B6088073FF566AF11F0010973
S31500004A2038680AD10421FEF7C1FD6279336891071F
S31500004A3048BFC7F8009092070DD40721326838683E
S31500004A40FEF7B4FD6279900744BF00233B609107EF
S31500004A5033687FF508AD1C465B7978E4022132683D
S31500004A603868FEF7A3FD637913F0020F3FF4FBAD40
S31500004A70C7F800A07FF469ACF5E543F00103637164
S31500004A8012F038FA039BE0640A2B5DD0637943F099
S31500004A9001036371BDF9143066E51021386801F031
S31500004AA00FFE824600287FF427AF32680821386857
S31500004AB0FEF77CFD63799A0721D4DB07326860D55F
S31500004AC0072132683868FEF771FD637913F0020F2B
S31500004AD03FF442AD4FF000023A607FF436AC3BE55E
S31500004AE0FEF788FF63793268980748BFC7F800A0C9
S31500004AF09907C3F340093FF5F7AE012122E698076F
S31500004B003268C7F800A04FEA53013FF5EDAED8076B
S31500004B1037D500233B60C8073368D1D59BE7D80754
S31500004B203FF51AAD01214846FEF77CFF14E510213A
S31500004B30386801F0C5FD00287FF473AE4846FEF7DD
S31500004B40E1FF74E6062173E6386801F00DFF28B927
S31500004B501021386801F0B4FD002842D04846FEF71F
S31500004B60D7FF012892D94846FEF7CCFF80F0010115
S31500004B70C9B24846FEF756FF2021386801F096FD77
S31500004B8084E704213868FEF711FD637959089B070D
S31500004B90BFD4C0E7326806213868FEF707FD6279A0
S31500004BA093077FF581AD7DE52021386801F07EFD14
S31500004BB0D2E400214846FEF735FF4846FEF706FFD9
S31500004BC0627990077FF570AD6CE500214846FEF7E7
S31500004BD029FF4846FEF7E6FE627994077FF564AD45
S31500004BE060E5326805213868FEF7E0FC63799A07CC
S31500004BF07FF54CAF002298073A607FF547AFFFF785
S31500004C00A4BB00BF2DE9F04F87B0064688469946FB
S31500004C10009203F0FBFB18B9002007B0BDE8F08F47
S31500004C20102200218346304604F0C4FE03461122BA
S31500004C301BB2002102903046059304F0BBFE0346EA
S31500004C4004901BB23046039305F02EFE82460028E0
S31500004C50E2D0002441F6FF71CDF80480A0460C4650
S31500004C60324FB2683946126852F82850284601F089
S31500004C702DFD58BB4FF48051284601F021FD28B385
S31500004C80BBF1020F4BD0BBF1030F2CD0BBF1010FD0
S31500004C901CD1F18A029BEA8A194409B24A44019B53
S31500004CA010B2984292B211DB009B98420EDC521A67
S31500004CB012B284EAE47182EAE270A1EBE471A0EB3D
S31500004CC0E27089B280B2884238BF144608F1010802
S31500004CD0C245C6D141F6FF739C429DD0604200B2E8
S31500004CE007B0BDE8F08F718BF28A0131059B891AF6
S31500004CF009B2C91A039B688BC91A029B01EBD171D1
S31500004D001A4402EB6101EA8A0130801AC0F3C03509
S31500004D1005FA80F002EB600209B292B2BEE7718B2F
S31500004D20049B6A8BC91A09B2B8E700BF01000400E8
S31500004D302DE9F04F87B0064688469946009203F063
S31500004D405FFB18B9002007B0BDE8F08F12220021E2
S31500004D508346304604F02EFE034613221BB2002182
S31500004D6002903046059304F025FE034604901BB2DC
S31500004D703046039305F098FD82460028E2D00024D1
S31500004D8041F6FF71CDF80480A0460C46324FB2685A
S31500004D903946126852F82850284601F097FC58BB4D
S31500004DA04FF48051284601F08BFC28B3BBF1020F6B
S31500004DB04BD0BBF1030F2CD0BBF1010F1CD1B18A34
S31500004DC0029BAA8A194409B24A44019B10B298422E
S31500004DD092B211DB009B98420EDC521A12B284EAA0
S31500004DE0E47182EAE270A1EBE471A0EBE27089B2B1
S31500004DF080B2884238BF144608F10108C245C6D1C0
S31500004E0041F6FF739C429DD0604200B207B0BDE8F8
S31500004E10F08F318BB28A0131059B891A09B2C91A02
S31500004E20039B288BC91A029B01EBD1711A4402EB32
S31500004E306101AA8A0130801AC0F3C03505FA80F0F4
S31500004E4002EB600209B292B2BEE7318B049B2A8B59
S31500004E50C91A09B2B8E700BF010004002DE9F047FE
S31500004E609DF820500646032D0C4690461F463AD024
S31500004E7003F0CCFA8146FEF791FF1022002182460C
S31500004E80304604F097FD112200210546304604F015
S31500004E9091FDB9F1020F0DD0B9F1030F72D0B9F13E
S31500004EA0010F48D0002F0FDBB8F1000F0CDB2046B6
S31500004EB0BDE8F087758B002FA5EB0005BAF91A300F
S31500004EC02DB231DA9D42F2DB002C01DA023C24B22B
S31500004ED0002CC4BF023424B2002CB8BF033444F300
S31500004EE08F00BDE8F08703F08BFA8146FEF756FF88
S31500004EF0122200218246304604F05CFD1322002176
S31500004F000546304604F056FDB9F1020F4ED0B9F110
S31500004F10030F18D0B9F1010FC4D1B38A002F1D4475
S31500004F202DB2BAF91430CDDBB8F1000FBFDA9D42CD
S31500004F30CADD2046BCE7F38A002F1D442DB2BAF91C
S31500004F401630F1DABEE7338BB28A01339B1A1BB2F5
S31500004F502A442DB25B1B00B21B1A03EBD37302EB80
S31500004F60630215B2BAF81430BAF818200132D21A10
S31500004F70C2F3C03101FA82F203EB6203002F1BB2C7
S31500004F80D2DA9FE7738BF28A01339B1A1BB22A444B
S31500004F902DB25B1B00B21B1A03EBD37302EB630249
S31500004FA015B2BAF81630BAF81A20DFE7358B002F9B
S31500004FB0A5EB0005BAF918302DB2B5DA82E700BFC5
S31500004FC04369002B00F09E802DE9F04FC56A044628
S31500004FD08DB0002D00F0DF80A9464FF480764FF0AB
S31500004FE000086E220021484604F0E4FC03466D22C8
S31500004FF04344002148469FB20FFA83F804F0DAFCD6
S3150000500003461BB2002BB8BFFF331B1213FB06F37C
S3150000501048461EB205F034FC81460028E1D1B8F1BD
S31500005020000F02D1B6F5807F0DD04FF480320023F9
S3150000503092FBF6F279420B9309B20BAB04F1140022
S3150000504012B212F0C7FC94F84060284606F00F062C
S31500005050032E58D003F0ECF98046284603F0EEF90B
S31500005060202107462846B4F9166001F029FB0028DE
S3150000507073D1F74244BF7F423EB2B0452846C0F2E4
S31500005080218203F0B5F9002781075CBF27EAE7779D
S315000050903FB210F004023B4658D1002E56DD1646AC
S315000050A03246B4F91A00B4F9361002448A4202DADA
S315000050B0091A0EB23218B4F93A109142BCBF091A55
S315000050C00EB2B4F91810B4F934200B44934202DA44
S315000050D0521A17B27B18B4F9382028469A42BCBF38
S315000050E0521A17B23946324603F002FB63789B0721
S315000050F005D4228B638B17441E44278366830DB029
S31500005100BDE8F08F704703F079FA8046284603F031
S3150000511001FA202107462846B4F9149001F0D0FA86
S3150000512048BB18EB090F44BFC8F100080FFA88F90D
S315000051304F452846A8BF4F4603F05AF910F0010321
S3150000514027D1002F1E46C8BF1F469DDD0207A7D4E4
S3150000515026EAE67636B23246A3E70C203B463146CF
S31500005160424600902846FFF779FE0646284603F099
S315000051703FF9002788E743463A46494628460096BF
S31500005180FFF76CFE0746284603F032F910F00103DC
S31500005190D7D0002678E7FEF76BFD0368228B1B7ECF
S315000051A0A18A05930A441BB204932283638BE28A85
S315000051B0666A13446383002EA1D0A3462F462C466D
S315000051C0039502950023B1464FF4807A1D460A9353
S315000051D06E220021484604F0EDFB6D2243190021A2
S315000051E048461FFA83F81DB204F0E4FB034648461E
S315000051F01BB20AFB03FA05F043FB4FEA2A2A814653
S315000052000028E5D1DBF818300B9315B9BAF5807F85
S315000052100AD04FF48032C8F1000192FBFAF209B2CB
S315000052200AAB0BA812F0D6FBBDF92C20BDF92E3027
S31500005230002AB8BF5242002BB8BF5B4292B29BB263
S315000052409A424FF0100130468CBF0124012701F02D
S3150000525037FA002840F089804FF48071304601F01B
S315000052602FFA00B954B94FF40071304601F028FA0C
S31500005270002840F01081002F00F00D815C46029D51
S31500005280002D3FF43CAF002694F84030039A80216D
S3150000529062F303032846E56284F84030A66101F014
S315000052A00FFA002800F03181284603F0AFF80228F3
S315000052B000F0D381032800F0B981012840F0B081C5
S315000052C0E98A3346013141F6FF7209B22846FFF7F3
S315000052D099FC3346EA8AA649013AE08612B2284684
S315000052E0FFF790FC03462846638703F089F80228F7
S315000052F000F08481032800F06481012840F05A817F
S31500005300002341F6FF72B5F914102846FFF710FD89
S31500005310B5F914200023A08695492846FFF708FD15
S315000053202087B4F93430002B40F019814EF2010287
S31500005330B4F93830A28613B941F6FF732387B4F95E
S31500005340363013B94EF20103E386B4F93A3013B995
S3150000535041F6FF736387002209212846FEF726F9E6
S31500005360637898073FF5CBAE36E6304603F040F853
S31500005370024612F0010F14BF2146002112F0020F5F
S3150000538014BF2346002312F0040F069314BF3B46B6
S31500005390002312F0080F14BF3A4600223046099146
S315000053A00893079203F044F88046304603F046F827
S315000053B08246304603F0AEF88146304603F01EF9C9
S315000053C0DDE90723B8F1000F09996CDD2BB1BDF9B2
S315000053D02EC0049DAC4580F2A2806AB1059DBDF940
S315000053E02EE0C5F1000CE645029DD8BF3546029574
S315000053F0039DD8BF0C250395B9F1000F57DD29B1E0
S31500005400BDF92CC0049DAC4580F28D80069D6DB122
S31500005410059DBDF92CE0C5F1000CE645029DD8BFFF
S3150000542035460295039DD8BF03250395B8F1000FB5
S315000054304DDDBAF1000F40F38D80B9F1000F3EDD6E
S31500005440002874DD00294DD1069929B10599BDF9C9
S315000054502C00494288424ADD23B1BDF92E30049919
S315000054608B4244DA2AB1059BBDF92E205B429A4253
S315000054703DDD4FF48071304601F022F910B9002C61
S315000054807FF4FCAE4FF40071304601F019F910B903
S31500005490002F7FF4F3AE304605F0F2F906460028F9
S315000054A07FF490AEEAE6BAF1000F8FDCA4E700289D
S315000054B0A5DCB8F1000F6CDDBAF1000F52DD002853
S315000054C0C2DCC9E702F094FF00274646DCE5BAF1E4
S315000054D0000F34DDB9F1000F4CDD002866DD002336
S315000054E00029B1D0BDF92C1004988142ACDB2346CB
S315000054F0002B0CBF0C2203229BF840305C4662F363
